:020000040800F2
:1000000058C50020D50200089F3200088F2E000836
:100010009D320008D70400082D3D000800000000B4
:1000200000000000000000000000000011020008B5
:1000300071050008000000006D020008B5320008DC
:10004000EF020008EF020008EF020008EF020008CC
:10005000EF020008EF020008EF020008EF020008BC
:10006000EF020008EF020008EF020008EF020008AC
:10007000EF020008EF020008EF020008EF0200089C
:10008000DD040008E9040008EF020008EF020008A0
:10009000EF020008EF020008EF020008EF0200087C
:1000A000EF020008EF020008EF020008EF0200086C
:1000B000EF020008EF020008EF020008EF0200085C
:1000C000EF020008EF020008EF020008EF0200084C
:1000D000EF020008EF020008213D0008EF020008CF
:1000E000EF020008EF020008EF020008EF0200082C
:1000F000EF020008EF020008EF020008EF0200081C
:10010000EF020008EF020008EF020008EF0200080B
:10011000EF020008EF020008EF020008EF020008FB
:10012000EF020008EF020008EF020008EF020008EB
:10013000EF020008A1050008DD060008EF02000834
:10014000EF020008EF020008EF020008EF020008CB
:10015000EF020008EF020008EF020008EF020008BB
:10016000EF020008EF020008EF020008EF020008AB
:10017000EF020008EF020008EF0200080000000094
:10018000EF020008EF020008EF020008EF0200088B
:10019000EF020008EF020008EF020008EF0200087B
:1001A000EF020008EF020008EF020008EF0200086B
:1001B000EF020008EF020008EF020008EF0200085B
:1001C000EF020008EF02000800000000EF02000844
:1001D000EF020008EF020008EF020008EF0200083B
:1001E000EF020008EF020008EF020008EF0200082B
:1001F000EF020008EF020008DFF810D000F03CF931
:100200000048004719820008AFF3008058C500205D
:100210002D4B19680868B0E8F04F80F30988BFF3E8
:100220006F8F4FF0000080F31188704700000000CE
:1002300008480068006880F308884FF0000080F3E9
:10024000148862B661B6BFF34F8FBFF36F8F00DFC4
:1002500000BF00BF08ED00E0DFF80C00016841F4CA
:1002600070010160704700BF88ED00E0EFF3098086
:10027000BFF36F8F144B1A681EF0100F08BF20EDEC
:10028000108A20E9F04F106009B44FF0500072B6A8
:1002900080F31188BFF34F8FBFF36F8F62B611F0F9
:1002A000CDFA4FF0000080F3118809BC1968086886
:1002B000B0E8F04F1EF0100F08BFB0EC108A80F3CA
:1002C0000988BFF36F8F704774000020EFF305803B
:1002D000704700000648804706480047FEE7FEE7F3
:1002E000FEE7FEE7FEE7FEE7FEE7FEE7FEE7FEE7E6
:1002F0008D330008F90100082DE9F05F0546002064
:1003000092469B4688460646814640241BE0284686
:1003100041464746224600F09EF853465A46C01AC8
:10032000914110D311461846224600F085F82D1A47
:1003300067EB01084F4622460120002100F07CF8BF
:1003400017EB00094E41201EA4F10104DFDC4846F2
:1003500031462A464346BDE8F09F00000649074A59
:100360000868504343F2390210440860400870475F
:100370000149086070470000D80100206D4EC64159
:1003800010B5431A934209D28318881803E010F875
:10039000011D03F8011D521EF9D210BD40EA0103F0
:1003A0009B0703D009E008C9121F08C0042AFAD22B
:1003B00003E011F8013B00F8013B521EF9D210BDD9
:1003C000D2B201E000F8012B491EFBD27047002297
:1003D000F6E710B513460A4604461946FFF7F0FF44
:1003E000204610BD421C10F8011B0029FBD1801AC9
:1003F000704730B504460020034600E05B1C934282
:1004000003D2E05CCD5C401BF8D030BD30B50B466C
:10041000014600202022012409E021FA02F59D4234
:1004200005D303FA02F5491B04FA02F52844151E08
:10043000A2F10102F1DC30BD202A04DB203A00FAEF
:1004400002F1002070479140C2F1200320FA03F32B
:10045000194390407047202A04DB203A21FA02F029
:100460000021704721FA02F3D040C2F120029140EE
:100470000843194670470000064C074D06E0E06847
:1004800040F0010394E8070098471034AC42F6D3DB
:10049000FFF7B6FE5C2D01087C2D010830B58C18E5
:1004A00010F8012B12F00F0301D110F8013B1209D3
:1004B00006D110F8012B03E010F8015B01F8015B95
:1004C0005B1EF9D101E001F8013B521EFBD1A142B4
:1004D000E6D3002030BDFEE770477047014800F0CA
:1004E00061B90000CC030020014800F05BB90000B6
:1004F0002C04002001681823CAB2103AB2FBF3F2B0
:10050000054B6FF30901032A9B5CC36500D9091DE4
:100510008165084670470000B429010810B5836959
:100520004FF0C074826A0146002053B1B3F5005FFA
:1005300015D072B1012A0CD0022A0AD0032A09D19F
:1005400004E01AB1012A06D0022A03D1C96AC901FE
:1005500000D5012010BDC96AA142FAD010BD002A01
:10056000F7D0012AF2D0022AF3D0032AF3D010BD2B
:10057000704738B50446006800F58050816941F441
:1005800080118161206800F5805080690090012011
:1005900000F04AFA2068009900F58050816138BD6A
:1005A000014800F0B8BB00002C3500202DE9F041D7
:1005B000044621B14FF40061C800C4E90201E069BA
:1005C0000025002862D028462368D4E9021C3D4F4C
:1005D00040261A6841EA0C0101433A4041F4007098
:1005E0001043186020680768012000F01DFA206899
:1005F00007602068466020684668012000F014FA11
:1006000020684FF641724660206885602068C560AA
:1006100021688869104040F0800088612068866900
:10062000012000F001FA206886612068C561206819
:10063000C569012000F0F8F92068234B2349C56102
:10064000206800F5805082691A401143816120685A
:1006500000F580508569012000F0E6F920681C490A
:1006600000F580508561206800F5805001602068A9
:1006700000F580500568012000F0D6F9206800F5EB
:1006800080500560A069012803D009E04FF4806024
:100690009AE720680F4A00F58050C1691143C16193
:1006A00060690D4982880A648278C4784578037845
:1006B000120443EA046042EA052210434864BDE89C
:1006C000F08100000F8120FF233FDEF804002002AC
:1006D0008020C1024000010000800240014800F07B
:1006E0001ABB00002C35002072B6FEE72DE9F04160
:1006F000876D044600F06EFF064694F8350000252D
:10070000022806D080206065012084F83450BDE8BE
:10071000F0812068016821F01601016020684169BC
:1007200021F080014161206C08B9A06C20B12068E3
:10073000016821F0080101602068016821F00101D1
:1007400001600CE000F046FF801B052807D920213E
:100750006165032084F8350084F83450D7E72068B9
:100760000068C007EED194F85C203F200121904042
:10077000B86084F83510002084F83450C7E790F84A
:100780003510022903D080214165012070470521E1
:1007900080F835100068016821F001010160002037
:1007A000704700002DE9F84304464FF00009644B00
:1007B0000820CDF800904FF41652A56D94F85C1007
:1007C0001B682E68B3FBF2F700FA01F131420FD03B
:1007D00021680A6852070BD50A6822F004020A60F1
:1007E00094F85C108840A860606D40F0010060657E
:1007F00094F85C104FF0010808FA01F0304208D07C
:1008000021684969090604D5A860606D40F00200BE
:10081000606594F85C1004208840304208D021685C
:100820000968890704D5A860606D40F00400606520
:1008300094F85C1010208840304218D02168096874
:10084000090714D5A86020680168490304D5006829
:10085000000308D5A16C07E00168C90503D401684D
:1008600021F008010160216C09B12046884794F805
:100870005C1020208840304231D021680968C906C8
:100880002DD5A86094F8350005282068016806D0A9
:10089000490347D5006800031DD4616C1CE021F0BA
:1008A000160101602068416921F080014161206CDE
:1008B00008B9A06C20B12068016821F0080101602E
:1008C00094F85C303F229A40AA6084F8358084F81E
:1008D0003490216D1FE0E16B09B120468847606DBF
:1008E00000282BD0606DC00714D0052084F8350097
:1008F0002068016821F0010101600098401C00900F
:10090000B84203D820680068C007F6D184F8358063
:1009100084F83490E16C002910D001B02046BDE885
:10092000F04308470168C905D5D4036823F01003D4
:10093000036084F8358084F83490CCE7BDE8F88310
:10094000700000202DE9F047044600F043FE054604
:1009500064B102214FF0000984F8351084F8349016
:100960002068016821F0010101600EE00120BDE86E
:10097000F08700BF00F02EFE401B052805D920217E
:100980006165032084F83500F1E720680068C0073E
:10099000F0D1D4E90020D4E90251D4E9043C284341
:1009A00004F1180519430843116895E8E00140EA8D
:1009B0000C001C4B2843194040EA060040EA07009F
:1009C000B8F1040F40EA010003D1D4E90B13194335
:1009D0000843106020680126656A4069042D20F0F4
:1009E000070045EA00050CD1D4E90A01054341B1ED
:1009F0002046FFF793FD20B14020606584F8356004
:100A0000B4E7206845612046FFF774FD94F85C3038
:100A10003F229A408260C4F8549084F835600020E8
:100A2000A5E700003F8010E070B5044600F0D2FD5D
:100A30000546601C02D004480078044400F0CAFD5A
:100A4000401BA042FAD370BD640000202DE9F0479E
:100A5000054690F845000C4601287DD002214FF054
:100A6000010985F84590002C85F8441077D094E86A
:100A70000901E7681843D4E90423D5E9021648EAD6
:100A8000070840EA0800D4F820800843296810438A
:100A9000626AD4E9067C18430B68304338433B4E06
:100AA00040EA0C00A76A40EA08001043334038438C
:100AB00018430860286806680120FFF7B5FF28681A
:100AC000066004F13401D4E90B03276C91E80610A9
:100AD00018432B6811430843D4E9116240EA0C0023
:100AE0003843304310435860286846680120FFF7B8
:100AF0009BFF28684FF6417346602968E06C886068
:100B00002968206DC860B4F85460D4E91607216ED6
:100B10002A68384341EA064CD4E91976916940EADB
:100B20000C003843194030430843906128688669B7
:100B30000120FFF779FF28688661D4E91B012A6844
:100B40000843D0612868C4690120FFF76DFF286859
:100B5000C46114E000E002E00220BDE8F0872968EB
:100B6000D5E902030A68184322F490421043086052
:100B7000286804680120FFF757FF286804600021F7
:100B800085F84490084685F84510E6E70F8120FF78
:100B90002DE9F04390F845400025012C0DD04FF091
:100BA000010980F84590022644F2F45780F8446029
:100BB0005E1E4FF0004C816217E00220BDE8F0831A
:100BC000C5EBC51801EB451408EB480802EB880893
:100BD000C4F800C0B542C4E9017804D204F1200889
:100BE000C4F80C8000E0E1606D1C9D42E8D303680E
:100BF000002403F58053D96080F8449080F8454084
:100C00002046DBE72DE9F04390F84540914600226D
:100C1000012C09D0C1620126022480F845605D1EC6
:100C200080F84440E70422E00220BDE8F08300BFE2
:100C3000C2EBC21404EB440801EB421409EB880C2C
:100C40002760C4F808C0D0F81CC0BCF1000F05D163
:100C5000D4F800C04CF4400CC4F800C0AA4204D23E
:100C600004F1200CC4F80CC000E0E160521C9A4270
:100C7000DED30268002302F58052116180F84460DF
:100C800080F845301846D0E7704730B590F84510E9
:100C90000023012908D0012280F84520022180F894
:100CA0004410816A00241AE0022030BD0D685B1CEC
:100CB000C5F30125022D0AD00D6815F4407F09D037
:100CC000836B5B1C012BC0E90D1313D013E082630F
:100CD000016302E0856B6D1C8563C96881620D68E4
:100CE000002D01DB042BE1D380F8442080F845403F
:100CF000012030BD01630B68C3F30D431B1FC363A9
:100D0000036B9B680364C968816280F8442080F8A3
:100D10004540002030BD70B504460068002500F550
:100D2000805001264169490608D5204600F0DCF9CB
:100D30002068402100F58050416109E04069C0070A
:100D40000AD0204600F0E3FA206800F580504661A2
:100D500084F8446084F845504FF48031206800F5F1
:100D600080504161206800F58050406900040CD536
:100D70002046FFF789FF20684FF4004100F58050BE
:100D8000416184F8446084F8455070BD2DE9FC470A
:100D90004FF000060400B146009603D094F84400DA
:100DA00018B107E00120BDE8FC87204684F84560C3
:100DB00000F0E4F86748016841F480410160006890
:100DC00000F4804001906448016821F40001016052
:100DD0000168226A11430160206800F580500168B3
:100DE00041F00101016000F0F5FB4FF4FA77054690
:100DF00009E000BF00F0EEFB401BB84203D903201E
:100E000084F8440068E0206800F580500068C0075E
:100E1000F0D12068006920F01C0500F0DDFF4F4A8A
:100E20004F4902448A4202D245F0080516E04D4976
:100E30004D4A0144914202D245F00C050EE04B4A66
:100E40004B4902448A4209D34A4A4B4910448842DA
:100E500002D245F0040501E045F010052068056167
:100E600000214FF40042204600F052FA4FF00105F5
:100E7000B0BBFF20FFF7D8FD606890B300F0AAFB7D
:100E8000804641F2883701216A46204600F0E8F8A2
:100E900000F0A0FBA0EB0800B84217D8009840076C
:100EA000F1D5002120464FF4805200F031FAB8B954
:100EB00000F090FB80466A460121204600F0D0F801
:100EC00000F088FBA0EB0800B8420BD901212046B6
:100ED000FFF76CFB84F84450032084F8456062E718
:100EE00024E018E000988006E5D510216A462046E7
:100EF00000F0B6F8D0B90098410703D54FF400616F
:100F0000E16000E0E660800701D5A66019E04FF4DB
:100F10008040A06015E0D4E90210C00840EA51000A
:100F200082B22046002100F0F3F930B101212046C1
:100F3000FFF73CFB84F8445034E740F6FF70FFF7BE
:100F400073FD49462046FFF731FB84F844500020EA
:100F500029E70000443802400438014000D3CEFEA7
:100F6000C0E1E40040F1E9FD40787D0100796CFCCE
:100F7000005A6202001F0AFA80F0FA02F0B587B048
:100F8000044614216846FFF722FA30492068884257
:100F90005AD12F48016841F000710160016801F0E9
:100FA00000710591016841F080610160016801F004
:100FB00080610591016841F000610160016801F004
:100FC00000610591016841F004010160016801F0D0
:100FD00004010591016841F001010160016801F01F
:100FE00001010591016841F00201016000680224DD
:100FF0000025694600F00200059003260B273220E9
:101000008DE8F100134800F0C1F9862069468DE8AB
:10101000F100114800F0BAF94FF4605069468DE8CC
:10102000F1000E4800F0B2F9002205213D2000F049
:1010300035FB3D2000F024FB002205213E2000F07E
:101040002DFB3E2000F01CFB07B0F0BD00800240ED
:101050003038024000080240000002400004024014
:101060002DE9F047044690F84400914682281DD0AF
:1010700082224FF6FF7084F844204FF4F863226810
:1010800003EA8111258A136900EAC52003F01C03D5
:101090001843014321F0020040F00105156100F002
:1010A00099FA012706464FF4803811E00220BDE886
:1010B000F08700BF00F08EFA801B404506D3002069
:1010C00084F8447084F845000320F0E7206805693F
:1010D000E807EFD12068406981B2C9F8001084F8B0
:1010E00044700020E3E700000148006808F058BBA6
:1010F00048000020F8B5044690F84500012839D092
:10110000012584F84550022084F844002068002618
:10111000016841F0080101602068006800902846DD
:10112000FFF782FC2168009808602068016841F0A0
:10113000040101602068006800900120FFF774FC42
:101140002168009808602046FFF713FA206800F530
:101150008050816941F400518161206800F5805020
:10116000816941F00201816184F84450002084F8D3
:101170004560F8BD0220F8BDF8B5044690F845007A
:10118000012839D0012584F84550022084F8440014
:10119000206800F58050816921F400518161206848
:1011A00000F58050816921F00201816120680026EC
:1011B000016821F0040101602068006800900120AE
:1011C000FFF732FC2168009808602046FFF7D1F94C
:1011D0002068016821F00801016020680068009023
:1011E0000120FFF721FC21680098086084F8445032
:1011F000002084F84560F8BD0220F8BDF0B590F8F5
:1012000045200023012A13D0012680F845600222E0
:1012100080F844204FF0000561B1C76A3A68002A9F
:101220000BDA122180F8441080F845500120F0BDFF
:101230000220F0BD80F84460F6E740F2F454A14289
:101240000BD9B1FBF4F204FB121CB1FBF4F2BCF1BC
:10125000000F00D0521C012A45D13A68C1F30C019D
:1012600042F040523A60C26A5160C16A0A6842F074
:1012700000420A60C16AC968C16236E0D7F800C09E
:101280002CF0405CC7F800C033B9C76AD7F800C07B
:101290004CF0805CC7F800C0D0F82CC0571EBB4291
:1012A000CCF8044014D1C76AC2F1010ED7F800C0CF
:1012B000CEEBCE1E4CF0005CC7F800C00EEB4E0E1D
:1012C000D0F82CC001EB8E07C7F30C07CCF80470E4
:1012D000C76AD7F800C04CF0004CC7F800C0C76A16
:1012E0005B1CFF68C7629342C8D3016801F5805157
:1012F0004A69520705D504224A61016801F5805107
:101300004D6080F8446080F845500020F0BD704783
:101310002DE9F041044690F8440042281ED04220B6
:101320004FF6FF7384F8440096B220684FF4F867D4
:10133000258A07EA81110269466103EAC52023680C
:1013400002F01C021043014341F003051D6100F04F
:1013500041F9012706464FF4803811E00220BDE82C
:10136000F08100BF00F036F9801B404506D3002015
:1013700084F8447084F845000320F0E7206805698C
:10138000E807EFD184F84470E9E700002DE9F84F51
:10139000DFF80CB2012403254FF00F0A00220BF1F5
:1013A000040E00BF0B6804FA02F63340B34278D152
:1013B0000F7907F00307012F01D0022F1AD1876898
:1013C0004FEA4209D1F80CC005FA09F827EA0807E4
:1013D0000CFA09FC4CEA070CC0F808C0476891F801
:1013E00004C0B743CCF3001C0CFA02FC4CEA070C17
:1013F000C0F804C00E79F643B6070BD0C6684FEAB2
:10140000420C8F6805FA0CF826EA080607FA0CF772
:101410003743C7600E7906F00306022E12D1D608B4
:101420004FEA427800EB860600960F69D6F82090C6
:101430004FEAD8660AFA06FCB74029EA0C06374399
:10144000009E37620F7906684FEA420C07F00307E7
:1014500005FA0CF807FA0CF726EA08063743076086
:101460004E6816F4403F1CD04E4E376847F4804714
:101470003760366822F00308970706F48046009626
:10148000494E3F0F4644B146D6F80868DFF81C8144
:101490000AFA07FC404526EA0C0603D14FF0000C7F
:1014A00041E076E0DFF808C1604502D14FF0010C61
:1014B00039E0DFF800C1604502D14FF0020C32E0A4
:1014C000DFF8F4C0604502D14FF0030C2BE0DFF8E9
:1014D000ECC0604502D14FF0040C24E0DFF8E0C01E
:1014E000604502D14FF0050C1DE0DFF8D8C0604523
:1014F00002D14FF0060C16E0DFF8CCC0604502D1F7
:101500004FF0070C0FE0DFF8C4C0604502D14FF088
:10151000080C08E0DFF8B8C0604502D14FF0090CB4
:1015200001E04FF00A0C0CFA07FC4CEA060CC9F873
:1015300008C84F68DBF80060FF0226EA030600D502
:101540001E437746CBF80060D1F804C0DEF8006097
:101550005FEA8C2C26EA030600D51E43DFF840C064
:101560003E60ACF1040C4F68DCF80060BF0326EA73
:10157000030600D51E430A4FCCF80060083FD1F89F
:1015800004C03E685FEACC3C26EA030600D51E4351
:101590003E60521C102AFFF405AFBDE8F88F000032
:1015A000083C014044380240003001400000024045
:1015B0000004024000080240000C024000100240FB
:1015C0000014024000180240001C024000200240AB
:1015D0000024024001488068704700006400002039
:1015E00002488168027811448160704764000020DD
:1015F000032010B500F072F80F2000F005F800F09D
:1016000023F8002010BD000070B50D4D04464FF4C6
:101610007A700C4A29781268B0FBF1F0B2FBF0F056
:1016200000F0FEFD48B9102C07D200222146501EC2
:1016300000F034F800206C6070BD012070BD000027
:1016400064000020700000200C4882B0016841F066
:1016500080510160006800F0805000900748001D34
:10166000016841F480410160006800220F2100F40C
:1016700080400090901E02B000F010B84038024048
:10168000002809DB410900F01F028900012001F157
:10169000E0219040C1F80001704700000E4BF0B40B
:1016A0001B680D46C3F30223C3F10706042E00D9BD
:1016B0000426191D072901D2002300E0DB1E0124A6
:1016C00004FA06F19C40491E2940641E99401440CA
:1016D0002143F0BC02F03CBB0CED00E0064900F0F9
:1016E000070210B54FF6FF040868044B204040EA9B
:1016F00002201843086010BD0CED00E00000FA0560
:101700001848F8B5016841F0805101600068164C36
:1017100000F080500090206840F480302060FFF797
:1017200059FF4FF47A76054605E000BFFFF752FFF8
:10173000401BB0420FD86068C003F7D5206840F462
:1017400000302060FFF746FF054606E0FFF742FF46
:10175000401BB04201D90320F8BD60688003F5D575
:101760000020F8BD40380240007000402DE9F84FDD
:1017700004460078DFF824944FF000063746C0078F
:101780000ED0D9F8001021F40001C9F80010D9F8E2
:101790000010626B1143C9F80010606B00B901269C
:1017A000FE4D2068843500030ED5E16B286820F4D7
:1017B000401008432860E06BB0F5801F01D010B1E5
:1017C00002E0012600E0012720684FF4800BC002F0
:1017D0000CD5216C286820F4400008432860206C58
:1017E000584501D1012601E000B901272068C10157
:1017F00000D50126800666D5E8483830016841F0FA
:10180000805101600068DFF898A300F080500090DC
:10181000DAF8001041F48071CAF80010FFF7DAFE20
:10182000804605E0FFF7D6FEA0EB080064287DD8CF
:10183000DAF80000C005F5D5DFF8608308F1680824
:10184000D8F8000010F440702AD0218E01F44071C5
:10185000814225D0D8F80010D8F8002021F440713A
:1018600042F48032C8F80020D8F8002022F48032F8
:10187000C8F80020C8F80010D8F80000C0070FD042
:10188000FFF7A8FE824607E0FFF7A4FEA0EB0A01DF
:1018900041F288308142CAD8D8F800008007F3D5D9
:1018A000206BC0F3012103297ED0D9F8001021F468
:1018B000F811C9F80010228ED8F80010C2F30B02FC
:1018C0001143C8F800102078C00607D5286820F01A
:1018D000807028602868A16B084328602188AF4881
:1018E0008830490405D5626E016821F44031114306
:1018F00001602188090405D5A26E016821F4402108
:10190000114301602168C90305D5E26E016821F425
:101910004011114301602168890305D5226F0168D8
:1019200021F4400111430160217800E034E14906CF
:1019300005D5626C016821F0030111430160217833
:10194000090605D5A26C016821F00C011143016064
:101950002188C90505D5E26C016821F030011143E9
:1019600001602188890505D5226D016821F0C0013B
:10197000114301602188490505D5626D016821F494
:101980004071114301602188090505D5A26D0168E8
:1019900021F44061114301602188C90407D5E26D3B
:1019A000016821F4405100E068E0114301602188A2
:1019B000890405D5226E016821F44041114301607C
:1019C0002168490205D5A26F016821F080611143A9
:1019D000016021684FF0006A890209D5E26F016851
:1019E00021F0006111430160E16F514500D10127F1
:1019F00021680A0700D50127490305D5626F0168F0
:101A000021F04071114301602168090206D5D4F824
:101A10008020016821F08051114301602168490153
:101A200006D5D4F88420016821F0005111430160EB
:101A30002068000106D5D4F88810286820F00070CE
:101A4000084328602068C00006D5D4F88C102868A8
:101A500020F0806008432860DFF84891012E02D012
:101A6000206880017ED5D9F800004E4620F08060C5
:101A7000C9F80000FFF7AEFD80460FE04A4AD9F8EA
:101A80000030104023F4F8120243C9F8002012E796
:101A9000FFF7A0FDA0EB080064287DD830680001A6
:101AA000F6D421783D487C30C90712D0616B81B9EA
:101AB000237A62680168D0F800C09201C1F3014145
:101AC00042EA0142CCF3036142EA016141EA037157
:101AD000016021680A0303D5E26BB2F5801F04D0D0
:101AE000C9021AD5216C594517D16368016894F869
:101AF0000CC002689B01C1F3014143EA0141C2F3FA
:101B0000027241EA0C6141EA027101602968626A6D
:101B100021F01F01521E114329602168C90110D50F
:101B2000238A62680168D0F800C09201C1F30361A2
:101B300042EA034242EA0162CCF3027142EA0171D5
:101B40000160216889010CD56168228A237B94F8A1
:101B500008C0890141EA024141EA036141EA0C718E
:101B6000016000E011E03168B04641F08061316011
:101B7000FFF730FD064604E0FFF72CFD801B6428CC
:101B80000AD8D8F800000001F6D5E7B3D9F800006C
:101B90004E4620F0805009E07BE00000083802400B
:101BA0000070004000380240FFFCFF0FC9F8000041
:101BB000FFF710FD074604E0FFF70CFDC01B64288B
:101BC00067D83068C0438000F6D5216835480A03DD
:101BD00001D5E26B1AB1C9021DD5216CD9B963696F
:101BE0000168277E02689B01C1F3014143EA01437A
:101BF000C2F3027143EA076242EA01710160296897
:101C00006FF0FF0300E04BE0A26A21F4F85103EB10
:101C10000222114329602168890212D5E16F5145E2
:101C20000FD1238C6269016807689201C1F30361D7
:101C300042EA034242EA0162C7F3027142EA0171D9
:101C400001602178090716D561690268D0F800C0E3
:101C50008B01277FC2F30362CCF3014143EA0141C8
:101C600041EA026141EA077101602868E16A20F4F3
:101C7000403008432860306840F080503060FFF703
:101C8000A9FC044608E000BFFFF7A4FC001B642881
:101C900002D90320BDE8F88F3068C0438000F3D438
:101CA0000020F7E7883802402DE9F04705000F468D
:101CB00063D0444E306800F00F00B84209D230685B
:101CC00020F00F0038433060306800F00F00B84259
:101CD00053D128683C4C810712D5400703D52068B2
:101CE00040F4E05020602878000703D5206840F4D5
:101CF00060402060A968206820F0F0000843206060
:101D00002878C0072AD0304968680839012810D0DF
:101D10000968022810D0890700292EDA216821F0ED
:101D2000030101432160FFF755FC804641F28839E9
:101D30000DE009688903EFE78901EDE7FFF74AFC49
:101D4000A0EB0801494502D90320BDE8F087686887
:101D5000216801F00C01B1EB800FEFD1306800F089
:101D60000F00B8420BD9306820F00F0038433060C4
:101D7000306800F00F00B84201D00120E5E7287874
:101D8000400705D5E968206820F4E050084320604A
:101D90002878000706D52869216821F4604141EAC6
:101DA000C000206000F03EF82168084AC1F303112A
:101DB000515CC8400649086006480068FFF724FCEB
:101DC0000020C2E7003C024008380240BC2901085C
:101DD0007000002068000020014800687047000083
:101DE000700000200449054809680068044AC1F3EE
:101DF0008221515CC84070470838024070000020C2
:101E0000CC2901080449054809680068044AC1F35F
:101E10004231515CC84070470838024070000020D1
:101E2000CC290108154910B51548096811F00C02B4
:101E300013D01449042A0FD0082A0ED10F4C241FA6
:101E40002268236802F03F025B0207D52068C0F3D6
:101E50008810A0FB010106E0084610BD2168C1F30F
:101E60008811A1FB00010023FEF746FA2168C1F3A7
:101E70000141491C4900B0FBF1F010BD0838024097
:101E80000024F40040787D012DE9F84F04004FF064
:101E900000076ED02078DFF87CA3AAF10408C00701
:101EA000A8F104054CD0DAF800105046C1F38101C6
:101EB000012908D00068C0F3810002280AD1D8F8AF
:101EC0000000400206D52868800339D560680028E4
:101ED000DFD035E06068B0F5803F0BD010B1B0F5D1
:101EE000A02F11D0286820F480302860286820F4C2
:101EF000802002E0286840F480302860606890B15B
:101F0000FFF768FB06460AE0286840F48020286056
:101F1000F0E700BFFFF75EFB801B642872D82868DB
:101F20008003F7D50CE0FFF755FB064605E000BF40
:101F3000FFF750FB801B6428F0D828688003F7D493
:101F40002078800742D5DAF80010504611F00C0FC7
:101F500008D00068C0F3810002280BD1D8F8000037
:101F6000400207D42868800718D5E068012800D10E
:101F700014E04AE1E0680028286817D040F001002A
:101F80002860FFF727FB064605E000BFFFF722FBAE
:101F9000801B0228C2D828688007F7D520692968E5
:101FA00021F0F80141EAC00028600FE020F00100B4
:101FB0002860FFF70FFB064605E000BFFFF70AFBAE
:101FC000801B02281ED828688007F7D420780007D5
:101FD00029D5904861696C3000298146016812D08A
:101FE00041F001010160FFF7F5FA064605E000BF88
:101FF000FFF7F0FA801B022804D8D9F80000800708
:10200000F6D510E089E021F001010160FFF7E2FA66
:10201000064604E0FFF7DEFA801B02287DD8D9F8D7
:1020200000008007F6D4207840076BD5DFF8E491F4
:1020300009F13809D9F80000C0000BD4D9F8001014
:1020400041F08051C9F80010D9F80000012700F0D4
:102050008050009070480168C90512D40168834619
:1020600041F480710160FFF7B5FA064605E000BF54
:10207000FFF7B0FA801B64284FD8DBF80000C005DA
:10208000F6D5644EA068683601280AD008B1052844
:1020900011D0306820F001003060306820F004007A
:1020A00002E0306840F001003060A068A0B1FFF7A6
:1020B00091FA83460CE0306840F004003060F0E7AD
:1020C000FFF788FAA0EB0B0141F28830814268D813
:1020D00030688007F4D50EE0FFF77CFA834607E00E
:1020E000FFF778FAA0EB0B0141F28830814258D813
:1020F00030688007F4D42FB1D9F8001021F0805156
:10210000C9F80010A069E0B3DAF80010C1F381014A
:1021100002294DD00228286800E042E020F08070BB
:10212000286003D0FFF756FA04463DE0FFF752FA65
:10213000064604E0FFF74EFA801B022831D82868D3
:102140008001F7D4D4E90921DFF8D0C0D4E907062B
:1021500094F830304F0894F82C1030430CEB0744BF
:1021600044EA8212104340EA016040EA0370C8F872
:102170000000286840F080702860FFF72BFA0446C2
:1021800005E044E0FFF726FA001B022809D828687A
:102190008001F7D53BE000BFFFF71CFA001B0228C7
:1021A00002D90320BDE8F88F28688001F4D42EE01E
:1021B0000128D8F8000028D0E16900F480028A42A2
:1021C00023D1216A00F03F028A421ED1626A47F69B
:1021D000C0710140B1EB821F17D1A16A4FF0FF32ED
:1021E00000F4403302EB5101B3EB014F0DD194F8F1
:1021F0002C1000F07062B2EB016F06D194F8301031
:1022000000F0E040B0EB017F01D00120CAE70020E0
:10221000C8E7000008380240007000400000FFFFDF
:10222000401EB0F1807F10B501D3012010BD4FF0EA
:10223000E02460610F21601701F08AFD0020A06199
:102240000721216110BD00002DE9F04390F83C20EA
:10225000012A42D0012280F83C2051F80C4BDFF8D3
:1022600080804FF0000991E8680051E9022723F4CB
:102270004073B1F80CC03B43CF6923F48063134330
:10228000026823F40063234323F4805343EA0503E5
:1022900023F4005343EA060323F4804343EA07038D
:1022A0000C3923F47023424543EA0C4302D00D4C11
:1022B000A2420CD18D8C23F47006D1E9073446EA92
:1022C000055121F08071194321F0007323435364B9
:1022D00080F83C900020BDE8F0830220FBE700007E
:1022E0000000014000040140F0B590F83C20012AB4
:1022F0003BD01F4E012480F83C40022280F83D2054
:1023000002681C4D5368B242D2F808C001D0AA42FC
:1023100003D14F6823F470033B430F6823F070032D
:102320001F4357600268B24213D0B2F1804F10D001
:10233000114B9A420DD0114B9A420AD0104B9A423F
:1023400007D0AA4205D00F4B9A4202D00E4B9A42B8
:1023500004D189682CF0800319439160002180F832
:102360003D4080F83C100846F0BD0220F0BD000062
:10237000000001400004014000040040000800404B
:10238000000C0040004001400018004010B504005F
:1023900003D094F83D0010B107E0012010BD0020EB
:1023A00084F83C00204600F023F8022084F83D0029
:1023B0002068211D00F0F2FF012084F8480084F815
:1023C0003E0084F83F0084F8400084F8410084F81F
:1023D000420084F8430084F8440084F8450084F8FF
:1023E000460084F8470084F83D00002010BD00003E
:1023F00010B586B0044614216846FDF7E8FF1F4A71
:1024000021681F48914207D1016841F00101016034
:10241000006800F001000CE0B1F1804F0CD0194AC7
:10242000914207D1016841F002010160006800F0AB
:102430000200059006B010BD1148001F016841F070
:1024400001010160006800F0010005900C4814389B
:10245000016841F00101016000680021022200F0E2
:102460000100059001200090CDE90121CDE9031084
:1024700005486946FEF78AFFDCE7000000000140DE
:1024800044380240000401400000024070B5044698
:1024900090F83C000025012817D0334B012684F822
:1024A0003C60022084F83D0022689068184020F4C7
:1024B0007F4090600868502838D00DDC20284FD02D
:1024C00005DC90B3102811D14AE0022070BD3028FD
:1024D00046D040280AD13BE060282FD070280DD08C
:1024E000B0F5805F03D0B0F5005F12D0012584F80D
:1024F0003D60002084F83C00284670BD4A68206892
:10250000D1E9021300F0B0FF2068816841F0770143
:1025100009E04A682068D1E9021300F0A5FF2068AD
:10252000816841F480418160E1E719E0CA68496847
:10253000206801F02BF92068502106E0CA6849683C
:10254000206801F075F92068602100F096FFCEE761
:10255000CA684968206801F019F920684021F4E749
:10256000226801461046F0E788FFFEFF2DE9F041A2
:10257000054690F83C0000260C46012810D00120AA
:1025800085F83C0072B1042A1CD0082A2CD00C2AF1
:1025900051D00126002085F83C003046BDE8F0818E
:1025A0000220FBE7E3682868D4E9001201F000F993
:1025B0002868816921F00C01816128688169A2681D
:1025C00011430FE0E3682868D4E9001201F042F9F2
:1025D0002868816921F44061816128688169A26865
:1025E00041EA02218161D5E7D4E900232868217BF3
:1025F000076A4FF4206C090727F4807707620CEA1A
:102600000222C769D0F820C027F003071F432CF42B
:10261000206C27F0F00342EA0C0243EA1161C16129
:1026200002622868C16921F00C01C1612868A268B2
:10263000C169114329E02868D4E90032E168076ADA
:102640004FF6FF7C4FF4204E27F4805707620CEAC8
:102650000131C769D0F820C00EEA033327F4407770
:1026600047EA02222CF4204C22F470421143C1614B
:1026700043EA0C0303622868C16921F44061C16127
:102680002868A168C26942EA0121C16182E710B5E8
:10269000040003D094F83D0010B107E0012010BD04
:1026A000002084F83C00204600F022F8022084F844
:1026B0003D002068211D00F071FE012084F84800D3
:1026C00084F83E0084F83F0084F8400084F841001C
:1026D00084F8420084F8430084F8440084F84500FC
:1026E00084F8460084F8470084F83D00002010BDBF
:1026F0007047000010B586B0044614216846FDF707
:1027000066FE194A00202368184993424FF00202DE
:1027100012D10B6843F010030B600968012301F02C
:10272000100105914FF420610091CDE90120CDE920
:1027300003030F48694613E00E4CA34212D10B6805
:1027400043F004030B600968032301F004010591C1
:10275000C0210091CDE90120CDE903030648694677
:10276000FEF714FE06B010BD0000014030380240F4
:1027700000100240000401400008024070B5044609
:1027800090F83C00002501280BD0012084F83C0083
:102790000C2A1ED007DC82B1042A12D0082A06D1E6
:1027A00013E0022070BD102A17D0142A19D0012579
:1027B000002084F83C00284670BD206800F066FECA
:1027C000F6E7206800F09CFEF2E7206800F0D4FEF7
:1027D000EEE7206800F00CFFEAE7206800F034FF25
:1027E000E6E7206800F05CFFE2E710B5040003D0E4
:1027F00094F83D0010B107E0012010BD002084F8DE
:102800003C00204600F022F8022084F83D002068B9
:10281000211D00F0C3FD012084F8480084F83E002B
:1028200084F83F0084F8400084F8410084F84200B6
:1028300084F8430084F8440084F8450084F8460096
:1028400084F8470084F83D00002010BD704770B543
:10285000044690F83C0000260D4601280BD00120CC
:1028600084F83C000C2A4AD007DC82B1042A20D02C
:10287000082A06D131E0022070BD102A53D0142A54
:1028800063D00126002084F83C00304670BD2068EB
:1028900000F0FCFD2068816941F008018161206839
:1028A000816921F00401816120682A6981691143ED
:1028B00011E0206800F024FE2068816941F4006185
:1028C00081612068816921F48061816120682969C2
:1028D000826942EA01218161D4E7206800F04CFE60
:1028E0002068C16941F00801C1612068C16921F017
:1028F0000401C16120682A69C169114311E020689F
:1029000000F076FE2068C16941F40061C161206871
:10291000C16921F48061C16120682969C26942EA04
:102920000121C161AEE7206800F08EFE2068416D94
:1029300041F0080141652068416D21F004014165C5
:1029400020682A69416D114311E0206800F0A8FE5B
:102950002068416D41F4006141652068416D21F4BA
:102960008061416520682969426D42EA0121416523
:1029700088E710B5040003D094F83D0010B107E0DB
:10298000012010BD002084F83C00204600F022F811
:10299000022084F83D002068211D00F0FFFC01208A
:1029A00084F8480084F83E0084F83F0084F8400032
:1029B00084F8410084F8420084F8430084F844001D
:1029C00084F8450084F8460084F8470084F83D0008
:1029D000002010BD704770B5044690F83C000128F7
:1029E00012D0012584F83C50022084F83D00204696
:1029F00000F082FE00284FF0000007D084F83D5020
:102A000084F83C00012070BD022070BD2168CA68B6
:102A100022F04002CA602168CA6822F48042CA607B
:102A200084F83D5084F83C00002070BD704770472A
:102A3000704700002DE9F04102680446002540F689
:102A40000F06D06911689368304205D186067DD59E
:102A50008E067BD5616E1CE1994F03F001060F4095
:102A6000374373D0C70709D0CF0507D501271762B1
:102A7000D4F8802042F00102C4F8802082070AD5F1
:102A8000DA0708D0276802223A62D4F8802042F0A0
:102A90000402C4F8802042070AD5DA0708D0236868
:102AA00004221A62D4F8802042F00202C4F8802086
:102AB00002070CD501F02002324308D02368082217
:102AC0001A62D4F8802042F00802C4F8802002057F
:102AD0000BD54A0109D523684FF400621A62D4F875
:102AE000802042F02002C4F88020D4F88020002A00
:102AF00036D0800605D5880603D5616E09B120461B
:102B000088472168D4F880008968490602D410F00B
:102B1000280F27D0204600F060FF2068806840061C
:102B20001BD52068083050E8001F21F0400140E824
:102B30000012002AF5D1206F78B162490165206F3B
:102B4000FDF71DFE00280BD0206F00E010E0016DA6
:102B500000E02046BDE8F04108472046FFF768FF47
:102B6000BDE8F0812046FFF763FFC4F88050F7E727
:102B7000276E2026012F7CD1C7067AD5CF0678D5BF
:102B80001020106220688068400641D5216F0868D7
:102B900040680004000CE3D0B4F858208242DFD92A
:102BA000A4F85A00C869B0F5807F2AD0216851E89E
:102BB000000F20F4807041E80002002AF6D120685E
:102BC000083050E8001F21F0010140E80012002AFF
:102BD000F5D12068083050E8001F21F0400140E89E
:102BE0000012002AF5D1E6672566216851E8000F3A
:102BF00020F0100041E80002002AF6D1206FFDF716
:102C000075FDB4F85800B4F85A10401A81B22BE0A0
:102C1000B4F85800B4F85A10B4F85A20401A81B2E7
:102C2000002A9DD000299BD0206850E8002F22F474
:102C3000907240E80023002BF6D1206800F10800D4
:102C400050E8002F22F0010240E80023002BF4D1CD
:102C5000E66725666566206850E8002F22F01002BE
:102C600040E80023002BF6D12046FFF7DFFE77E790
:102C7000FFE7C70208D55B0206D54FF4801010624B
:102C80002046FFF7D4FE6BE7020606D50A0604D5F8
:102C9000A16E00297FF45DAF62E74006E7D54806E4
:102CA000E5D52046026852E8001F21F0400142E8C5
:102CB0000013002BF6D18667856600F0E7F84FE732
:102CC00020010004C739000810B5040002D0A06F2D
:102CD00010B107E0012010BD002084F874002046E8
:102CE00000F026F82420A0672068016821F0010187
:102CF0000160204600F096FE0128ECD0606A10B119
:102D0000204600F0CEFD2068416821F490414160EA
:102D10002068816821F02A0181602068016841F003
:102D2000010101602046BDE8104000F01EBE000019
:102D30002DE9F04387B0074614216846FDF747FBAD
:102D40004A4A0225396803264748002491421FD188
:102D5000454914310A6842F010020A60096801F01E
:102D600010010591016841F0020101600068042131
:102D7000029400F002000590B003CDE90361CDE9B3
:102D800000053B486946FEF701FB07B0BDE8F0834C
:102D9000384A9142F9D1344910310A6842F400327C
:102DA0000A60096801F400310591016841F00101F0
:102DB0000160016801F001010591016841F008011D
:102DC000016000680821CDE9001500F008004FF00F
:102DD0000708CDE902466946CDE904802648FEF79A
:102DE000D5FA2021254802AACDE90015694682E8D6
:102DF0005001FEF7CBFA224E4FF48069214A4FF082
:102E0000006830463260C6E90184C6E9034974614E
:102E1000B461F46134627462FDF794FD08B1FDF7AA
:102E200063FC194D40233E6705F10800B763154A5E
:102E300080E818026C611832AC612846EC612C62A3
:102E40006C62C5E90028FDF77DFD08B1FDF74CFC7B
:102E5000FD6600220521AF632620FEF71FFC262019
:102E6000FEF70EFC91E700003038024000100140F0
:102E7000000402400044004000000240000C0240F8
:102E8000CC030020886002402C0400207047FEE73D
:102E9000194808B5016841F080010160016801F03E
:102EA00080010091016841F004010160016801F0B6
:102EB00004010091016841F001010160016801F025
:102EC00001010091016841F010010160016801F009
:102ED00010010091016841F002010160016801F0F8
:102EE00002010091016841F008010160006800F0F2
:102EF0000800009008BD0000303802403EB50021B7
:102F000008460DF017FA254B0020224A2249186086
:102F10001B1D18601B1D18608DE807001A1F204834
:102F2000111F05F037FE1E4806F050F81C4C94F8AF
:102F300031004007204602D506F060F901E006F0B6
:102F40004BF81849164806F09BF801210022084664
:102F500006F0CEFB114A121F02F110011060C1E908
:102F600000400F4824213830FDF731FA0C48102179
:102F70000DA338304FF480620360C0E90521074992
:102F800002460B480C3106F045FCBDE83E400448C3
:102F900002F06CBB05050108A96A0008500000207A
:102FA00074350020CD6B00084C696E6B546872005C
:102FB000896B000810B59AB000241C21009412A857
:102FC000019402940394049405940694FDF7FFF988
:102FD0002C2107A8FDF7FBF932484FF6FF72304964
:102FE000C0E90014C0E90242046144618461FFF752
:102FF000CDF908B172B6FEE74FF480500090294831
:103000006946FFF743FA08B172B6FEE72548FFF7B5
:10301000B0FC08B172B6FEE72248FFF7E6FB08B144
:1030200072B6FEE71F4804A9049405940694FFF7BE
:103030005BF908B172B6FEE760201494CDE9120482
:103040001848002212A91594169417941894FFF7A3
:10305000FEFB08B172B6FEE71248042212A91294D0
:10306000FFF78CFB08B172B6FEE74FF400500794EF
:103070000894099401030A94CDE90B40CDE90E416F
:10308000084807A90D9410941194FFF7DDF808B1D2
:1030900072B6FEE70348FFF72DFB1AB010BD000023
:1030A00000000140E001002010B58CB0264800244B
:1030B000621E00944FF080410194029403940494A2
:1030C000059406940794089409940A94C0E900149E
:1030D000C0E9024204618461FFF758F908B172B691
:1030E000FEE74FF48050009017486946FFF7CEF98D
:1030F00008B172B6FEE71448FFF7C9FA08B172B614
:10310000FEE7114804A904940694FFF7EDF808B10E
:1031100072B6FEE70120002207A9CDE907400A4860
:1031200009940A94FFF722FA08B172B6FEE702206A
:1031300008900548042207A9FFF718FA002801D0D3
:1031400072B6FEE70CB010BD2C02002010B59AB08C
:10315000142112A8FDF73BF9002417941C211894A0
:103160000BA81994FDF733F92C216846FDF72FF9C8
:103170002D484FF6FF722B49C0E90014C0E9024206
:10318000046144618461FFF701F908B172B6FEE79A
:103190002548FFF72AFB08B172B6FEE7224812A9BC
:1031A00012941394FFF717FC08B172B6FEE71E489D
:1031B00017A9179418941994FFF796F808B172B6E6
:1031C000FEE70B9400220C940BA917480D940E9463
:1031D0000F9410941194FFF7D1FA08B172B6FEE77C
:1031E000114804220BA9FFF7C9FA08B172B6FEE72D
:1031F0004FF400500094019401030294CDE904407F
:1032000003940694CDE907410748694609940A9456
:10321000FFF71AF808B172B6FEE70348FFF76AFA3B
:103220001AB010BD00040140780200200C480021B3
:1032300010B50A4C0C224FF4E1330460C0E90131AF
:10324000C160C0E904128161C16101624162FFF79E
:103250003BFD002801D072B6FEE710BD0010014012
:10326000C40200200C48002110B50A4C0C224FF477
:10327000E1330460C0E90131C160C0E90412816139
:10328000C16101624162FFF71FFD002801D072B6E3
:10329000FEE710BD0044004048030020FEE7FEE7C3
:1032A000FFF72CFE012005F0F9FFFBE7012005F0F8
:1032B000F5FFFBE710B5FEF793F90FF0BBF8012817
:1032C00003D0BDE810400EF073BB10BD70B5B8B0B0
:1032D000342124A8FDF77BF8142131A8FDF777F8F5
:1032E00090216846FDF773F82648016841F0805147
:1032F0000160006800F0805036902348016841F476
:103300004041016000681022022500F440403690E0
:1033100001200A212491CDE92702CDE92905C426FF
:103320000823CDE92D6500242F95309524A8CDE9FB
:103330002B43FEF7A9FD08B172B6FEE7FEF7E0F9F0
:1033400008B172B6FEE74FF4805233944FF4A051A7
:103350000F20CDE93412CDE93105062131A8FEF761
:10336000A3FC08B172B6FEE7C0201194129400903D
:103370006846FEF7FBF9002801D072B6FEE738B0C8
:1033800070BD0000403802400070004002480168F3
:1033900041F470010160704788ED00E0F0B5274B03
:1033A0004FF0804E264D02689842264E264F274CFD
:1033B00009D0704507D0A84205D0B04203D0B8422A
:1033C00001D0A04205D1D1F804C022F070024CEA2D
:1033D000020298421BD0704519D0A84217D0B042C3
:1033E00015D0B84213D0A04211D0194DA8420ED02A
:1033F000184DA8420BD0184DA84208D0174DA8422E
:1034000005D0174DA84202D0164DA84203D1CD6871
:1034100022F440722A434D6922F080022A4302605E
:1034200098428A68C2620A68826201D0A04201D1D1
:103430000969016301214161F0BD00000000014004
:103440000004004000080040000C0040000401405F
:103450000040014000440140004801400018004085
:10346000001C00400020004042EA032283680A4317
:1034700023F47F410A4382607047826822F0700221
:103480000A4342F00701816070470000F0B5026A0C
:10349000DFF860C0184F22F00102DFF860E002623E
:1034A000066A4268836926F002060D68B8428C6895
:1034B00003EA0C0323F0030344EA060445EA030588
:1034C00001D0704505D1CB6824F00804234323F0D4
:1034D0000404B84201D0704505D122F44076D1E908
:1034E000053233431A43426085614968416304628F
:1034F000F0BD00008FFFFEFF00000140000401400E
:10350000F0B5026A194E1A4C22F01002DFF864E09E
:103510000262056A4368826925F02005D1F808C077
:10352000A0420F6802EA060222F4407245EA0C1536
:1035300042EA072201D0704506D1CE6825F0800509
:1035400045EA061525F04005A04201D0704507D197
:10355000D1E9054623F4406343EA840343EA860342
:1035600043608261496881630562F0BDFF8FFFFEA1
:103570000000014000040140F0B5026A194F1A4EE4
:1035800022F48072DFF864E00262056A4368C2696F
:1035900025F40075D1F808C0B0420C6802EA0702B1
:1035A00022F0030245EA0C2544EA020401D07045EA
:1035B00006D1CF6825F4006242EA072222F4806532
:1035C000B04201D0704507D123F44052D1E905360D
:1035D00042EA031242EA06134360C4614968C163C8
:1035E0000562F0BD8FFFFEFF0000014000040140B6
:1035F000F0B5026A124B114F22F4805298420262D7
:10360000046A4268C36924F400548E680D6803EAB2
:10361000070323F4407344EA063443EA052302D047
:10362000084DA84204D14D6922F4804242EA851235
:103630004260C361496801640462F0BDFF8FFFFE10
:103640000000014000040140F0B5026ADFF844C008
:1036500022F480320262056A4268446D25F4003526
:103660000E8960450C4F0B6804EA070445EA0645DD
:1036700043EA040302D0094CA04204D14C6922F46D
:10368000803242EA042242604365496881650562EE
:10369000F0BD0000000001408FFFFEFF000401406C
:1036A000F0B5026ADFF844C022F480120262046AB4
:1036B0004268436D24F400140E8960450C4F0D6878
:1036C00003EA070344EA065443EA052302D0094DFE
:1036D000A84204D14D6922F4802242EA8522426048
:1036E00043654968C1650462F0BD00000000014007
:1036F000FF8FFFFE000401402DE9F041D1E90023D6
:1037000005680024204FAE6826F0700633433B4026
:103710001A43AA604A6812F00F0F32D11211082A18
:103720002FD2DFE802F02F2F2F2F0B2228048A68D8
:103730000068D1E90313FFF797FE23E00A68052A22
:1037400010D00268136A156A25F001051562026837
:103750000D69916921F0F00141EA0511916100685C
:1037600003620FE00120BDE8F0810A690068896802
:1037700000F00CF806E00A690068896800F058F863
:1037800000E001242046EEE7F8FFFEFF10B5036AD3
:10379000046A23F00A0324F00104046284690B43E1
:1037A00024F0F00141EA02118161036210BD0000C2
:1037B00070B5046A174D24F001040462A8428469BC
:1037C000056A14D0B0F1804F11D0134EB0420ED024
:1037D000124EB0420BD0124EB04208D0114EB04241
:1037E00005D0114EB04202D0104EB04203D124F0A9
:1037F0000304144301E044F001041A0724F0F00329
:1038000025F00A0401F00A01214343EA12628261B1
:10381000016270BD0000014000040040000800404B
:10382000000C00400004014000400140001800402E
:1038300010B5036A23F0100303628369046A23F45A
:10384000704324F0A00443EA0232826144EA011189
:10385000016210BD70B5056AA0244FF6FF7606EA36
:10386000033325F01005056204EA01118469056A35
:1038700024F4407425F0A00544EA0222294322F4EE
:10388000704213438361016270BD10B507F0C6FD3D
:10389000002805D0D0E90021BDE8104008461047B7
:1038A00010BD90F82410C90706D00168836A4A68E1
:1038B00022F400321A434A6090F82410890706D592
:1038C0000168C36A4A6822F480321A434A6090F859
:1038D0002410490706D50168036B4A6822F4802248
:1038E0001A434A6090F82410090706D50168436B13
:1038F0004A6822F400421A434A6090F82410C9062C
:1039000006D50168836B8A6822F480521A438A6064
:1039100090F82410890606D50168C36B8A6822F4E2
:1039200000521A438A6090F82410490611D50168A4
:10393000036C4A6822F480121A434A60016CB1F5A4
:10394000801F06D10168436C4A6822F4C0021A4302
:103950004A6090F82410090606D50168826C486810
:1039600020F40020104348607047F8B50026044654
:10397000C0F88060FDF72EFE054620686FF07E4798
:103980000068000708D500222B464FF4001120469E
:10399000009700F05FF960B92068006840070AD519
:1039A00000222B464FF480012046009700F052F988
:1039B00008B10320F8BD2020A067E067266600203C
:1039C00084F87460F8BD10B5806B0021A0F85A101F
:1039D000A0F85210FFF72CF810BD016851E8002F35
:1039E00022F4907241E80023002BF6D101680831DF
:1039F00051E8002F22F0010241E80023002BF5D10D
:103A0000016E012908D1026852E8001F21F010015F
:103A100042E80013002BF6D100212022C267016684
:103A2000416670472DE9F04104460368C269816828
:103A3000D4E90450DFF8F0C17C4E29431F6800250B
:103A400010437B4A014307EA0C070F431F604FF402
:103A500000402168E7684B6823F440533B434B60C8
:103A60002768A369216AD7F808C019432CF430638A
:103A70000B43BB602168B1420AD1116811F0030108
:103A800052D001297CD0022971D003296ED184E063
:103A9000684B99420AD1116811F00C0167D00429D2
:103AA00065D0082975D00C2960D176E0624B994227
:103AB0000AD1116811F0300159D010296BD020299A
:103AC00067D0302952D168E05C4B99420AD1116825
:103AD00011F0C0014BD040295DD0802959D0C029B8
:103AE00044D15AE0564B99420DD1116811F44071FE
:103AF0003DD0B1F5807F4ED0B1F5007F49D0B1F512
:103B0000407F33D149E04F4B99420FD1116811F4F6
:103B1000406109D0B1F5806F3DD0B1F5006F38D06C
:103B2000B1F5406F22D138E0012120E0464B9942A7
:103B30000DD1116811F4405119D0B1F5805F2AD030
:103B4000B1F5005F25D0B1F5405F0FD125E03F4BC7
:103B500099420BD1116811F4404108D0B1F5804F62
:103B600019D0814215D0B1F5404F16D01021E3692C
:103B7000374A4FF6EF7683422ED1092949D201E028
:103B800009E006E0DFE801F00B0E1145134545455D
:103B900016000221EBE70421E9E70821E7E7FEF739
:103BA00021F906E0FEF72EF903E0104602E0FEF7E9
:103BB00039F978B36168400000EB5100B0FBF1F0D7
:103BC000A0F11001B14224D84FF6F0732168C0F380
:103BD00042021840104320E009291AD2DFE801F020
:103BE00005080B190D1919191000FEF7FBF806E06E
:103BF000FEF708F903E0104602E0FEF713F948B1BA
:103C0000616800EB5100B0FBF1F0A0F11001B1428E
:103C100001D9012502E0216880B2C86000206066F9
:103C2000A0662846BDE8F081F369FFEF001001406F
:103C3000903802400044004000480040004C0040E2
:103C4000005000400014014000780040007C00401B
:103C50000024F4002DE9F0479A4617460E46044624
:103C6000089D4FF000094FF020084CE0681C4AD036
:103C7000FDF7B0FCA0EB0A00A8422AD84DB320689B
:103C8000016849073FD5C069C04300053BD421689E
:103C90004FF400600862216851E8000F20F4D070F2
:103CA00041E80002002AF6D12068083050E8001FE1
:103CB00021F0010140E80012002AF5D1C4F8788013
:103CC00084F87490C4F87C80C4F880800320BDE838
:103CD000F087206850E8001F21F4D07140E80012FE
:103CE000002AF6D12068083050E8001F21F00101B9
:103CF00040E80012002AF5D1C4F8788084F8749066
:103D0000C4F87C80E2E72068C06936EA000004D08D
:103D10000020B842AAD00020D9E70120F9E700002E
:103D20000148FEF787BE000048030020FEE70000C0
:103D30000FB4054B10B503A9044A029800F028F807
:103D400010BC5DF814FB00007D6C0008DC01002055
:103D5000090700284FEA116104DB00F1E02080F838
:103D60000014704700F00F0000F1E02080F8141DEF
:103D7000704702E008C8121F08C1002AFAD1704734
:103D80007047002001E001C1121F002AFBD17047DB
:103D90002DE9FF4F8BB09A460F460546002606E0F8
:103DA00025280BD052460D9990476D1C761C28781B
:103DB0000028F5D10FB03046BDE8F08F0024A046B2
:103DC0000122604900E0044315F8013F203B02FA5C
:103DD00003F00842F7D128782E2817D115F8010FE3
:103DE00044F004042A280ED06FF02F022878A0F1A6
:103DF000300109290AD808EB880102EB410100EBE8
:103E000001086D1CF2E757F8048B6D1C28786928AF
:103E10003ED006DC0028CDD063280BD0642804D126
:103E200036E0732810D075284BD052460D99904734
:103E3000761C85E017F8040B8DF8000000208DF843
:103E40000100E946012003E057F8049B4FF0FF30E2
:103E500061074FF0000401D40AE0641C44450DDA08
:103E60008442FADB19F804100029F6D106E0641C3C
:103E70008442FCDB19F804100029F8D1264404E040
:103E800019F8010B52460D999047641EF8D257E07D
:103E900001CF4FF00A0B002802DA40422D2102E048
:103EA000210504D52B218DF82410012103E0E10721
:103EB00005D02021F7E70DF1200908910CE0002141
:103EC000F9E701CF4FF00A0BF9E75946FCF79EFAE4
:103ED00001F1300209F8012D0028F6D1ADEB0900FF
:103EE00000F1200B600701D44FF00108D84502DD36
:103EF000A8EB0B0000E000208046002406E009A8A3
:103F00005246005D0D999047641C761C08988442C7
:103F1000F5DB04E0302052460D999047761CB8F14D
:103F20000001A8F10108F5DC05E019F8010B524683
:103F30000D999047761CBBF10001ABF1010BF4DC4D
:103F40006D1C34E70928010058B1426A002A0FD0DD
:103F50005379082B0CD10968D269914208D100F03D
:103F6000C1BA04A340F28B3210A114A0FFF7E0BE47
:103F7000704700002E2E2F4D6964646C6577617266
:103F800065732F54686972645F50617274792F4C45
:103F90007749502F7372632F636F72652F69707644
:103FA000342F646863702E63000000006E657469CE
:103FB0006620213D204E554C4C0000004173736536
:103FC0007274696F6E2022257322206661696C65A8
:103FD00064206174206C696E6520256420696E2000
:103FE00025730A002DE9FC41050018D06C6ADCB18C
:103FF000A16A00233C274FF00102481C4FF6FF70D6
:104000004FF48036638219D01E31B1FBF7F1B14213
:1040100000D301460904090CA1820ED00EE02DA3A5
:1040200040F2154239A103E02AA340F217423EA113
:1040300043A0FFF77DFEBDE8FC81A282E16AB1F1F9
:10404000FF3F0CD01E31B1FBF7F1B14200D3014666
:104050000904090C618100D162816189E181216BD0
:10406000B1F1FF3F0CD01E31B1FBF7F1B14200D3EB
:1040700001460904090CA18100D1A281A1892182F4
:104080006289A1898A4201D301B16381E17909B1D1
:10409000206A08E0217F7F2901D8FF2003E0C029A2
:1040A00001D36FF07F400090606A019028B9E06909
:1040B0000099084040F0807001900A21204601F0EC
:1040C000CDFA01AB6A4604F11C01284604F04EFF0C
:1040D000B1E700002E2E2F4D6964646C6577617224
:1040E00065732F54686972645F50617274792F4CE4
:1040F0007749502F7372632F636F72652F697076E3
:10410000342F646863702E6300000000646863707D
:104110005F62696E643A206E6574696620213D2095
:104120004E554C4C00000000646863705F62696E1D
:10413000643A206468637020213D204E554C4C0049
:10414000417373657274696F6E2022257322206635
:1041500061696C6564206174206C696E65202564FA
:1041600020696E2025730A0070B5446A082105464F
:10417000204601F073FA0022284604F11C0102F0E7
:1041800043F9A079FF2801D2401CA0714FF4FA70C6
:1041900040F2E731B1FBF0F0208170BD294870B5E5
:1041A00004684CE0606AA0B3417991B3818A69B137
:1041B000418A828A491C89B24182914206D12046B5
:1041C00001F082F8204601F051FA37E0018A19B176
:1041D0004A1E0282012906D0C189D1B14A1EC2817C
:1041E000012917D02AE0656A20466979012905D09E
:1041F0000A2903D0052901D004291FD100F0E8FEC7
:10420000A88A698A401A022818DB00EBD07040089F
:10421000288213E0656A20466979012903D00A29BA
:1042200001D005290AD101F0ADF8A889698A401AA0
:10423000022803DB00EBD0704008E8812468002CE2
:10424000B0D170BD540100202DE9F0470700994618
:1042500016460D461BD0002D1ED04FF49A74362002
:1042600021464FF4207205F0D1FBB0F100081BD0BD
:10427000B8F80A00A246504506D232A340F2717245
:104280003EA14EA0FFF754FD032E12D10EE02DA348
:1042900040F2697253A103E02AA340F26A7259A165
:1042A00046A0FFF745FD0020BDE8F08768790328A8
:1042B00008D1A8795B4C08B1A06802E0FCF74EF881
:1042C000A06028605146D8F804402046FCF77FF8EB
:1042D00001202070607097F83000A070286803F00B
:1042E00083FF082E60600AD0042E08D0072E06D067
:1042F000032E06D16879052801D0042801D17868F9
:10430000E06000203A182318411C92F82A2088B255
:1043100006281A77F6D3444804F1F001C4F8EC00FB
:10432000012335220C46002000F0D8FA32462146FF
:1043300000F020FBB9F1000F01D0A9F800004046C1
:10434000B2E700002E2E2F4D6964646C65776172B0
:1043500065732F54686972645F50617274792F4C71
:104360007749502F7372632F636F72652F69707670
:10437000342F646863702E6300000000646863700B
:104380005F6372656174655F6D73673A206368652A
:10439000636B207468617420666972737420706244
:1043A00075662063616E20686F6C6420737472752B
:1043B000637420646863705F6D7367004173736535
:1043C0007274696F6E2022257322206661696C65A4
:1043D00064206174206C696E6520256420696E20FC
:1043E00025730A00646863705F6372656174655F5A
:1043F0006D73673A206E6574696620213D204E55C5
:104400004C4C0000646863705F6372656174655F43
:104410006D73673A206468637020213D204E554CCF
:104420004C000000B80100206382536310B50B4CB0
:104430002078002805D1FF2209A317A11FA0FFF7AC
:1044400077FC2078401E10F0FF00207004D1E06857
:104450000CF0D2FC0020E06010BD0000B80100208C
:104460002E2E2F4D6964646C6577617265732F54CD
:10447000686972645F50617274792F4C7749502F6C
:104480007372632F636F72652F697076342F64685F
:1044900063702E6300000000646863705F70636285
:1044A0005F726566636F756E7428293A207265665F
:1044B000636F756E74206572726F720041737365FD
:1044C0007274696F6E2022257322206661696C65A3
:1044D00064206174206C696E6520256420696E20FB
:1044E00025730A00FEB5446A0C210646204601F0F9
:1044F000B5F80422214602AB3046FFF7A5FE0500C1
:1045000028D069680423BDF808003222F0310F4634
:1045100000F0E4F9ADF80800E06903F065FE02463A
:10452000BDF80800394600F083FA2A463946ADF84E
:10453000080000F04DFB0F4843230F4A2946CDE900
:1045400000600E48C0680CF0D9FD0646284605F00C
:1045500075FE01E04FF0FF36A079FF2801D2401C24
:10456000A0714FF4FA7142F60310B0FBF1F0208114
:104570003046FEBD442B0108482B0108B80100203D
:104580002DE9FE4F446A0021074689462046E16135
:10459000062101F063F80122214602AB3846FFF7FD
:1045A00053FE06003CD071680223BDF80800392292
:1045B000F0318A46554600F091F9ADF808002946D9
:1045C0003A8D00F0A1FA042329463722ADF80800FD
:1045D00000F084F9DFF884800025ADF8080000BF02
:1045E00018F805205146BDF8080000F0C3F96D1C0D
:1045F000ADF80800EDB2042DF2D380B23246514638
:1046000000F0E6FA16484323164A3146CDE9007019
:104610001248401EC0680CF071FD304605F00EFED9
:10462000A079FF2801D2401CA071C0B2062802D296
:104630000121814000E03C214FF6FF7001EB410277
:10464000C2EBC1124FF4FA7100EAC20000F2F3109B
:10465000B0FBF1F020814846BDE8FE8FB901002093
:10466000442B0108482B01080B4870B5002504684D
:104670000EE0606A58B10189012903D9A1F1010155
:10468000018104E003D10581204601F091F82468FE
:10469000002CEED170BD000054010020F8B5446A32
:1046A0000022204DA5F1280622626262E87808B156
:1046B000F068A062287908B1306901E0A06A40087A
:1046C000E062687908B1706903E0A06AC0EBC000DD
:1046D000C00820630869E061A87930B1B06903F0CF
:1046E00083FD20620121E17100E0E271E87918B1F7
:1046F000F06903F079FD606200240DE006EB8400B0
:10470000006A03F071FD69460090204601F070FADE
:10471000641CE4B2022C03D22819007A0028EDD1DF
:10472000F8BD00005CBC002010B5154C20780028B6
:104730001ED1E068002805D0E52212A31FA129A000
:10474000FFF7F6FA0CF006FBE060B0B1417A4422C4
:1047500041F0200141722D490CF03EF82B494322D3
:10476000E0680CF0D7F82A490022E0680CF000FB62
:104770002078401C2070002010BD4FF0FF3010BD8D
:10478000B80100202E2E2F4D6964646C657761722C
:1047900065732F54686972645F50617274792F4C2D
:1047A0007749502F7372632F636F72652F6970762C
:1047B000342F646863702E630000000064686370C7
:1047C0005F696E635F7063625F726566636F756E6B
:1047D0007428293A206D656D6F7279206C65616B64
:1047E00000000000417373657274696F6E202225AA
:1047F0007322206661696C6564206174206C696E47
:104800006520256420696E2025730A00442B010869
:10481000A951000870B5446A0546002C22D0607981
:104820000026042818D004DC00281BD0032804D15B
:1048300012E0052810D00A280ED00C2806D90AA3A9
:1048400040F26D3216A11BA0FFF772FA2846A6713E
:10485000BDE87040FFF794BE2846A671BDE87040E1
:1048600000F022BC70BD00002E2E2F4D6964646CD8
:104870006577617265732F54686972645F50617205
:1048800074792F4C7749502F7372632F636F726561
:104890002F697076342F646863702E630000000007
:1048A000696E76616C696420646863702D3E737410
:1048B00061746500417373657274696F6E2022259F
:1048C0007322206661696C6564206174206C696E76
:1048D0006520256420696E2025730A002DE9F041CA
:1048E0001D46044628441746801C0E46442806D917
:1048F000154907A315A040F29A52FFF719FA601C58
:1049000080B23755411C355488B2BDE8F0810000B3
:104910002E2E2F4D6964646C6577617265732F5418
:10492000686972645F50617274792F4C7749502FB7
:104930007372632F636F72652F697076342F6468AA
:1049400063702E6300000000D42C0108417373656E
:104950007274696F6E2022257322206661696C650E
:1049600064206174206C696E6520256420696E2066
:1049700025730A0070B5442815460E46044606D332
:1049800005A340F2A65212A11FA0FFF7D1F9601CA7
:1049900080B2355570BD00002E2E2F4D6964646CB9
:1049A0006577617265732F54686972645F506172D4
:1049B00074792F4C7749502F7372632F636F726530
:1049C0002F697076342F646863702E6300000000D6
:1049D000646863705F6F7074696F6E5F627974652D
:1049E0003A206F7074696F6E735F6F75745F6C657A
:1049F0006E203C20444843505F4F5054494F4E5323
:104A00005F4C454E00000000417373657274696F1E
:104A10006E2022257322206661696C6564206174B2
:104A2000206C696E6520256420696E2025730A005C
:104A300070B505461446001D0E46442806D90BA342
:104A400040F2B75217A126A0FFF772F9681C80B296
:104A5000210E220C7155431C325498B2210A421C7B
:104A6000315490B2411C345488B270BD2E2E2F4D5B
:104A70006964646C6577617265732F5468697264E8
:104A80005F50617274792F4C7749502F7372632F86
:104A9000636F72652F697076342F646863702E635C
:104AA00000000000646863705F6F7074696F6E5F10
:104AB0006C6F6E673A206F7074696F6E735F6F759D
:104AC000745F6C656E202B2034203C3D20444843AD
:104AD000505F4F5054494F4E535F4C454E000000BD
:104AE000417373657274696F6E202225732220668C
:104AF00061696C6564206174206C696E6520256451
:104B000020696E2025730A0070B504461546801C86
:104B10000E46442806D907A340F2AE5213A122A0A4
:104B2000FFF706F9601C80B2290A3155411C355443
:104B300088B270BD2E2E2F4D6964646C65776172EA
:104B400065732F54686972645F50617274792F4C79
:104B50007749502F7372632F636F72652F69707678
:104B6000342F646863702E63000000006468637013
:104B70005F6F7074696F6E5F73686F72743A206FE5
:104B80007074696F6E735F6F75745F6C656E202BE8
:104B90002032203C3D20444843505F4F5054494F01
:104BA0004E535F4C454E0000417373657274696FDC
:104BB0006E2022257322206661696C656420617411
:104BC000206C696E6520256420696E2025730A00BB
:104BD00030B4FF23441C0B540023A0B2442802D25B
:104BE000441C0B54F9E7F03081B2104630BC05F09C
:104BF0001BBC00002DE9F04F85B0824600200A2141
:104C00000490B048FBF7E3FBBAF80A002C2818D34D
:104C1000BAF808004FF0F009AA4F564607E000BF67
:104C2000A9EB01023668411A1FFA82F988B246B12F
:104C300071894A464945F3D971681446CDE90201A4
:104C40001CE16FF0010005B0BDE8F08FA01C4FF033
:104C5000FF3580B20190A042F3D37089621C90426C
:104C600003D903982044407803E0306808B14068D5
:104C70000078342980464DD00BDC032921D003DC99
:104C8000A1B101290DD114E0062924D0332908D17E
:104C900037E0352965D036296CD03A2975D03B29C3
:104CA0007BD04FF0000800297FD042E000208046F2
:104CB000F9E7042803D084A340F22E6226E00625FB
:104CC000F1E704284FF0040803D27FA340F23362D7
:104CD00013E00725E7E7830704D07BA340F239629E
:104CE00087A1C4E0082801D2434600E00823984683
:104CF000404504D274A340F23C6285A1B7E0082588
:104D0000D1E7042804D070A340F2416285A1AEE04F
:104D10000325C8E7012803D06BA340F24F6225E0CA
:104D2000B9F1F00F04D068A340F2516280A19EE077
:104D300000252044801CB0F5803F82D284B2B8F1B7
:104D4000000F7FD0002000900A2D06D35EA34FF401
:104D5000CF627DA181A0FEF7EBFF785D002826D011
:104D600070E0012804D058A340F2556285A17EE08E
:104D7000012598E7042806D053A340F25962C5E7FD
:104D800003E00AE011E002258DE7042803D04EA3DA
:104D900040F25D62BAE7042585E7042803D04AA300
:104DA00040F26162B2E705257DE794B24AE0B8F1CE
:104DB000040F404600D30420019B83460246694607
:104DC000304605F0ADF958457FF43BAFB8F1040F1C
:104DD0001FD95FEA887004D03BA340F281626CA1C6
:104DE00045E001207855009803F0FEF9354B024666
:104DF0000199A8F10400283B091D00F0FF0843F8C1
:104E00002520019889B28142FFF41BAF6D1C0191EE
:104E10009AE7B8F1040F07D0B8F1010F08D02AA320
:104E20004FF4D26260A122E0009803F0DDF901E0C6
:104E30009DF80000009001207855224800992838FC
:104E400040F825107089A04217D80299221A94B20E
:104E5000081A80B202908442BFF4F3AE366816B1ED
:104E6000706803900AE018A340F29D6253A13BA032
:104E7000FEF75EFF6FF00500E5E63EB10298844262
:104E800004D20398015DFF297FF4E0AE387850B179
:104E90000C48002128380068397001280ED00228FB
:104EA00004D0032808D004980028E5D000204FF053
:104EB0002C0904906C20B0E601200490EC204FF007
:104EC0006C09AAE65CBC00202E2E2F4D6964646C30
:104ED0006577617265732F54686972645F5061729F
:104EE00074792F4C7749502F7372632F636F7265FB
:104EF0002F697076342F646863702E6300000000A1
:104F00006C656E2025252034203D3D2030000000BA
:104F10006C656E203E3D206465636F64655F6C6503
:104F20006E0000006C656E203D3D203400000000E6
:104F30006F7665726C6F616420696E2066696C655E
:104F40002F736E616D650000636865636B20646537
:104F5000636F64655F696478000000004173736586
:104F60007274696F6E2022257322206661696C65F8
:104F700064206174206C696E6520256420696E2050
:104F800025730A006C656E203D3D20310000000055
:104F90006465636F64655F6C656E20252520342031
:104FA0003D3D203000000000696E76616C69642030
:104FB0006465636F64655F6C656E00006E65787430
:104FC000207062756620776173206E756C6C0000CE
:104FD0002DE9FC47446A04210746204600F03EFBC9
:104FE0000322214601AB3846FFF72EF906003BD0DD
:104FF00071680223BDF804003922F03189464D461C
:10500000FFF76CFCADF8040029463A8DFFF77CFDF4
:10501000042329463722ADF80400FFF75FFCDFF8D0
:1050200080800025ADF804004946BDF8040018F85A
:105030000520FFF79FFC6D1CADF80400EDB2042DB8
:10504000F2D380B232464946FFF7C2FD14484323EB
:1050500000973146401E134AC0680BF0AFFF05466B
:10506000304605F0EBF801E04FF0FF35A079FF285E
:1050700001D2401CA071C0B20A2804D24FF47A7148
:1050800010FB01F001E042F2107080B24FF4FA71AF
:1050900000F2F310B0FBF1F020812846BDE8FC8758
:1050A000B9010020482B01082DE9FC47446A03217F
:1050B0000746204600F0D2FA0322214601AB3846CB
:1050C000FFF7C2F806004FD071680223BDF8040054
:1050D0003922F03189464D46FFF700FC4FF410723B
:1050E0002946ADF80400FFF70FFD042329463222BC
:1050F000ADF80400FFF7F2FBADF80400E06903F03F
:1051000073F80246BDF804002946FFF791FC04231A
:1051100029463722ADF80400FFF7E0FBDFF8808076
:105120000025ADF8040000BF18F805204946BDF879
:105130000400FFF71FFC6D1CADF80400EDB2042D58
:10514000F2D380B232464946FFF742FD144843236A
:1051500000973146401E134AC0680BF02FFF0546EA
:10516000304605F06BF801E04FF0FF35A079FF28DD
:1051700001D2401CA071C0B20A2804D24FF47A7147
:1051800010FB01F001E042F2107080B24FF4FA71AE
:1051900000F2F310B0FBF1F020812846BDE8FC8757
:1051A000B9010020482B010844482DE9F04144682A
:1051B00016465168656A002D7AD02879002877D084
:1051C00070892C2874D30878022871D194F8302083
:1051D000002008E023180F1893F82A303F7FBB42C5
:1051E00066D1401CC0B2824201D90628F2D3486879
:1051F00002F0FAFF296888425AD129463046FFF763
:10520000F9FC10BB2E4A5078F8B1A2F1280177685A
:105210000879052804D0062821D0022836D047E096
:105220006879012806D0032814D0042812D0052854
:1052300010D03DE039462046FFF730FA94F83100AF
:10524000000703D52046FEF78FFF31E02046FEF72A
:10525000C9FE2DE039462046FFF720FAF6E76879C7
:10526000032805D0012803D0042801D005281FD128
:10527000606A0C2100F0F2F9124B20461A461146E2
:1052800003F074FE2046FFF77BF911E068790628E9
:105290000ED190782546646A50B10020208188683C
:1052A00002F0A2FFA0613869E061284600F0D6F85C
:1052B0003046BDE8F04104F0C1BF0000C4830020C7
:1052C0005CBC0020442B01082DE9FE43446A0746DC
:1052D000002C51D0607900284ED0A06900250290A2
:1052E0003846A561E561256265622563E562A562D0
:1052F000A58265822582E58100F04CFA60B3072221
:10530000214601AB3846FEF79FFF060024D07168A6
:105310000423BDF804003622F0318846FFF7DEFA98
:10532000ADF80400029802F05FFF0246BDF80400E9
:105330004146FFF77DFB32464146ADF80400FFF7DA
:1053400047FC0E484323009702AA3146C0680BF081
:1053500035FE304604F072FF094B38461A461146B6
:1053600003F004FE0021204600F078F9207900289F
:1053700002D0FFF75BF82571BDE8FE83B80100207D
:10538000442B01082DE9FC47446A052107462046C5
:1053900000F064F90322214601AB3846FEF754FFC2
:1053A00006003CD071680223BDF804003922F031B8
:1053B00089464D46FFF792FAADF8040029463A8D2A
:1053C000FFF7A2FB042329463722ADF80400FFF7BC
:1053D00085FADFF884800025ADF804004946BDF861
:1053E000040018F80520FFF7C5FA6D1CADF804009D
:1053F000EDB2042DF2D380B232464946FFF7E8FB06
:1054000015484323009704F11802401E3146C06836
:105410000BF0D4FD0546304604F010FF01E04FF0DC
:10542000FF35A079FF2801D2401CA071C0B20A2824
:1054300004D24FF4FA6110FB01F001E044F6206061
:1054400080B24FF4FA7100F2F310B0FBF1F020815A
:105450002846BDE8FC870000B90100202DE9FE4385
:10546000070073D07C6A002C7CD00121204600F01C
:10547000F5F80322214602AB3846FEF7E5FE0600AA
:105480007AD071680223BDF808003922F0318946CC
:105490004D46FFF723FAADF8080029463A8DFFF78D
:1054A00033FB042329463222ADF80800FFF716FA31
:1054B000ADF80800E06902F097FE0246BDF808006A
:1054C0002946FFF7B5FA042329463622ADF808002D
:1054D000FFF704FAADF80800A06902F085FE024665
:1054E000BDF808002946FFF7A3FA0423294637220E
:1054F000ADF80800FFF7F2F9DFF8BC800025ADF841
:10550000080000BF18F805204946BDF80800FFF75D
:1055100031FA6D1CADF80800EDB2042DF2D380B263
:1055200032464946FFF754FB24484323244A314678
:10553000CDE900702048401EC0680BF0DFFD054635
:10554000304604F07BFE19E000E00BE01DA340F2C2
:1055500077122AA130A0FEF7EBFB6FF00F00BDE839
:10556000FE8309E017A340F2791235A12AA0FEF7C5
:10557000DFFB6FF00500F2E74FF0FF35A079FF2861
:1055800001D2401CA071C0B2062802D20121814084
:1055900000E03C214FF6FF7001EB4102C2EBC1126B
:1055A0004FF4FA7100EAC20000F2F310B0FBF1F020
:1055B00020812846D3E70000B9010020442B0108D0
:1055C000482B01082E2E2F4D6964646C657761723B
:1055D00065732F54686972645F50617274792F4CDF
:1055E0007749502F7372632F636F72652F697076DE
:1055F000342F646863702E63000000006468637079
:105600005F73656C6563743A206E6574696620210A
:105610003D204E554C4C0000417373657274696FA8
:105620006E2022257322206661696C656420617496
:10563000206C696E6520256420696E2025730A0040
:10564000646863705F73656C6563743A2064686353
:105650007020213D204E554C4C00000042798A427A
:1056600003D04171002282710281704770B505003C
:105670006FF00F041AD095F83100C0071BD0288DA9
:105680004FF0FF366C6AB0F5107F0DD3002C1BD0A5
:10569000207908B1FEF7CAFE34212046FAF797FEBA
:1056A000FFF742F8002816D0304670BD14A340F230
:1056B000E72221A103E012A34FF43A7222A12BA00A
:1056C000FEF736FB204670BD342002F07DFF04005B
:1056D000EAD06C62E0E70120207195F831004007C4
:1056E00005D402212046FFF7B9FF002070BD2846EF
:1056F000FEF746FF0028F9D02846FFF7E5FDD3E77F
:105700002E2E2F4D6964646C6577617265732F541A
:10571000686972645F50617274792F4C7749502FB9
:105720007372632F636F72652F697076342F6468AC
:1057300063702E63000000006E6574696620213D71
:10574000204E554C4C0000006E65746966206973EC
:10575000206E6F742075702C206F6C6420737479C8
:105760006C6520706F72743F0000000041737365B8
:105770007274696F6E2022257322206661696C65E0
:1057800064206174206C696E6520256420696E2038
:1057900025730A0040B1406A30B140790A2805D02B
:1057A000052803D0042801D000207047012070474D
:1057B00010B5426A044651790C290BD0062909D04C
:1057C00001290BD0082918D0032926D19079022865
:1057D00020461ED3BDE81040FEF7D2BE90790528C2
:1057E000204603D8BDE81040FFF738BEFFF76CFD38
:1057F0002046BDE81040FFF739BF907901282046C8
:1058000003D8BDE81040FEF7AFBCBDE81040FEF77E
:10581000E9BBBDE81040FFF747BC10BD01004FF0E9
:1058200000000AD0C97A4A1C022A06D2034A02EBB7
:1058300081014968002900D0012070470001002043
:105840002DE9F35F0646DFF88C904FF0000A00EB7D
:105850000611554609F5886809EB011404F1100B8F
:10586000414605EB450758F8273053B101EB870255
:10587000107AB04205D1526858460199984748F8C5
:1058800027A06D1CEDB2042DEAD300214846042563
:10589000B1420DD001EB011200EB0212937A022B00
:1058A00006D1D27BE37B9A4202D1E573BDE8FC9F2F
:1058B000491CC9B20429EBD3E07B0428F6D2054E7B
:1058C000103E56F820000BF097FAE17B46F821A035
:1058D000EBE70000547F00202DE9F0410746334EEE
:1058E000042F00EB071006EB001406D330A340F2A0
:1058F0001C423BA141A0FEF71BFAA07A002853D01E
:1059000000254FF0010801280CD0022824D00328DC
:1059100044D0BDE8F04126A340F25B4241A137A04C
:10592000FEF706BAFAF71AFD81B2002000EB00126A
:1059300006EB0212937A022B02D112898A42F1D02D
:10594000401CC0B20428F1D321810222A272E57268
:1059500084F80C8065730CE0207B401E10F0FF0083
:10596000207321D1607B401CC0B26073042805D035
:1059700020733846BDE8F04100F066B82046FFF7D6
:105980004DFF30B1E07A84F80C806573401CE07202
:10599000EFE700213846FFF753FF04E0206810B11D
:1059A000401E206000D1A572BDE8F081547F002028
:1059B0002E2E2F4D6964646C6577617265732F5468
:1059C000686972645F50617274792F4C7749502F07
:1059D0007372632F636F72652F646E732E630000A2
:1059E000617272617920696E646578206F757420C8
:1059F0006F6620626F756E6473000000417373659B
:105A00007274696F6E2022257322206661696C654D
:105A100064206174206C696E6520256420696E20A5
:105A200025730A00756E6B6E6F776E20646E735F00
:105A30007461626C6520656E747279207374617430
:105A4000653A0000704700002DE9FF5F04464A49AF
:105A500000EB041001EB0015E87A022806D347A3F7
:105A600040F2FA2251A157A0FEF762F9E97A002626
:105A70005E4850F8210040B305F110000446FAF7E3
:105A8000B1FC123081B236204FF4207203F0BEFF19
:105A90005FEA000A65D0009601960296288902F016
:105AA000A5FBADF8000001224FF4807B694650460B
:105AB0008DF802200C22ADF804B004F013FE0C2681
:105AC000641E0022641C27460BE000212046FFF7DD
:105AD000B7FE0020AE7204B0BDE8F09F521C641CFB
