:020000040800F2
:10000000005D0020910300083B4100081B370008F9
:100010003941000805110008594C00080000000093
:10002000000000000000000000000000CD020008F9
:10003000C51100080000000029030008E141000884
:10004000AB030008AB030008AB030008AB030008D8
:10005000AB030008AB030008AB030008AB030008C8
:10006000AB030008AB030008AB030008AB030008B8
:10007000AB0300080D110008AB03000819110008BC
:100080002511000831110008C10F0008AB0300085A
:10009000AB030008AB030008AB030008AB03000888
:1000A000AB030008AB030008AB030008AB03000878
:1000B000AB030008AB030008AB030008AB03000868
:1000C000AB030008AB030008AB030008AB03000858
:1000D000AB030008AB0300084D4C0008AB0300085D
:1000E000AB030008AB030008AB030008AB03000838
:1000F000AB030008AB030008AB030008AB03000828
:10010000AB030008AB030008AB030008AB03000817
:10011000AB030008AB030008AB030008AB03000807
:100120003D110008AB030008AB030008AB03000857
:10013000AB030008AB030008AB030008AB030008E7
:10014000AB030008AB030008AB030008AB030008D7
:10015000AB030008AB030008AB030008AB030008C7
:10016000AB030008AB030008AB030008AB030008B7
:10017000AB030008AB030008AB030008000000005D
:10018000AB030008AB030008AB030008AB03000897
:10019000AB030008AB030008AB030008AB03000887
:1001A000AB030008AB030008AB030008AB03000877
:1001B000AB030008AB030008AB030008AB03000867
:1001C000AB030008AB03000800000000AB0300080D
:1001D000AB030008AB030008AB030008AB03000847
:1001E000AB030008AB030008AB030008AB03000837
:1001F000AB030008AB03000800F002F800F056F86B
:100200000AA090E8000C82448344AAF10107DA4571
:1002100001D100F04BF8AFF2090EBAE80F0013F06D
:10022000010F18BFFB1A43F001031847307100009B
:10023000507100000A4410F8014B14F00F0508BF7C
:1002400010F8015B240908BF10F8014B6D1E05D0A2
:1002500010F8013B6D1E01F8013BF9D1641E03D07B
:10026000641E01F8015BFBD19142E4D370470000AA
:100270000023002400250026103A28BF78C1FBD8AF
:10028000520728BF30C148BF0B607047002070473D
:100290001FB506F01DFF9DE8030000F087FC00F08D
:1002A00077FA1FBD10B500F0DCFA10BD00F044FB7A
:1002B0001146FFF7EDFF04F087FF00F049FC03B49F
:1002C000FFF7F0FF03BC00F0E3FD00002D4B1968C1
:1002D0000868B0E8F04F80F30988BFF36F8F4FF0E4
:1002E000000080F311887047000000000848006893
:1002F000006880F308884FF0000080F3148862B62D
:1003000061B6BFF34F8FBFF36F8F00DF00BF00BF39
:1003100008ED00E0DFF80C00016841F470010160B5
:10032000704700BF88ED00E0EFF30980BFF36F8FE7
:10033000144B1A681EF0100F08BF20ED108A20E938
:10034000F04F106009B44FF0500072B680F311887E
:10035000BFF34F8FBFF36F8F62B606F077F84FF0A1
:10036000000080F3118809BC19680868B0E8F04FF4
:100370001EF0100F08BFB0EC108A80F30988BFF39D
:100380006F8F7047A8000020EFF3058070470000D2
:100390000948804709480047FEE7FEE7FEE7FEE719
:1003A000FEE7FEE7FEE7FEE7FEE7FEE70448054955
:1003B000054A064B70470000B9420008F9010008E1
:1003C00000510020005D0020005500200055002055
:1003D00053EA020C00F069802DE9F04B4FF0000663
:1003E000002B1FBFB3FA83F503FA05F424FA05F6D0
:1003F0005E4012BF1643B2FA82F502FA05F4C5F167
:1004000020051EBF22FA05FC44EA0C04203556EAFA
:10041000044C4FEA144418BF641C4FF000084FF01E
:100420000009904271EB030C39D3002919BFB1FACE
:1004300081F701FA07F6B0FA80F700FA07F6C7F17C
:1004400020071EBF20FA07FC46EA0C062037B6FB41
:10045000F4FCA7EB0507103F07F01F0BCBF12006BC
:100460000CFA0BFB2CFA06F644BFB3460026202FED
:10047000A4BF5E464FF0000B5BEA060C08BF4FF0CE
:10048000010B19EB0B09ABFB027C48EB0608C01B08
:1004900006FB02CC0BFB03CC71EB0C01C1E70B4656
:1004A000024641464846BDE8F08B13B54FF00000C8
:1004B0004FF00001AFF30080BDE81C407047000022
:1004C0000FB4044910B503AA029800F0F3F810BC69
:1004D0005DF814FBF44F00202DE9F0410E46044670
:1004E000002020622046E168884730B3252805D0E7
:1004F000D4E901219047206A401CF2E7E1682046D8
:1005000000278847050018D0A5F14100192802D816
:1005100020354FF400673246294620462760FFF712
:10052000B5FE40B1012804D0F61D26F007060836B6
:10053000D8E7361DD6E72846DAE7206ABDE8F0811D
:1005400010B5431C02E010F8011B71B18107FAD10C
:100550004FF0013202C88C1A8C4314EAC211F9D050
:10056000C01A0A0603D0C01E10BDC01A10BD0A046E
:1005700001D0801E10BD0902FCD0401E10BD032A10
:1005800040F2308010F0030C00F0158011F8013BB0
:10059000BCF1020F624498BF11F801CB00F8013B97
:1005A00038BF11F8013BA2F1040298BF00F801CB5B
:1005B00038BF00F8013B11F0030300F08D80083ACA
:1005C000C0F0088051F8043B083A51F804CBA0E889
:1005D0000810F5E7121D5CBF51F8043B40F8043BDE
:1005E000AFF30080D20724BF11F8013B11F801CB13
:1005F00048BF11F8012B24BF00F8013B00F801CBE4
:1006000048BF00F8012B704702F0FF0343EA0322C2
:1006100042EA024200F094B84FF0000200B51346DF
:1006200094469646203922BFA0E80C50A0E80C5012
:10063000B1F12001BFF4F7AF090728BFA0E80C50C3
:1006400048BF0CC05DF804EB890028BF40F8042BBC
:1006500008BF704748BF20F8022B11F0804F18BF29
:1006600000F8012B704770477047704710B500F0D5
:1006700087F8006810BD10B5044600F081F80460EA
:1006800010BD000001694A1C02610878704700B57E
:100690008FB0CDE901310021059105497944CDE9BB
:1006A000031011466846FFF717FF0FB000BD0000AA
:1006B000E5FFFFFF074B70B50D467B44FFF7E7FFF3
:1006C0000446284600F060F810B14FF0FF3070BDCE
:1006D000204670BDDF4A000010B5203AC0F00B8004
:1006E000B1E81850203AA0E81850B1E81850A0E836
:1006F0001850BFF4F5AF5FEA027C24BFB1E8185090
:10070000A0E8185044BF18C918C0BDE810405FEAFF
:10071000827C24BF51F8043B40F8043B08BF70477B
:10072000D20728BF31F8023B48BF11F8012B28BF80
:1007300020F8023B48BF00F8012B70474FF0000241
:100740000429C0F0128010F0030C3FF467AFCCF125
:10075000040CBCF1020F18BF00F8012BA8BF20F851
:10076000022BA1EB0C01FFF759BF5FEAC17C24BF4C
:1007700000F8012B00F8012B48BF00F8012B70474F
:10078000004870479C500020007B00F080007047BC
:1007900010B542485421FFF73FFF41485421FFF76D
:1007A0003BFF40485421FFF737FF3F493B483C4A55
:1007B0003F4B08603D490A603A491960531C036584
:1007C000481C1065012008653B48344A39A178442B
:1007D00000F022F920B9384878440A3800F0C1F90D
:1007E00037482F4A35A1784400F016F920B934482B
:1007F00078440A3800F0B5F932482A4A2FA17844E3
:1008000000F00AF920B92F4878440A3800F0A9F915
:1008100040232248DC000021224600F0D9F820B114
:1008200025487844543800F09CF91D48224640235E
:10083000002100F0CDF820B121487844543800F070
:1008400090F9184822461023002100F0C1F8002832
:1008500006D01C487844BDE81040563800F081B9F5
:1008600010BD104870B5006D20F001040B4800F079
:1008700049F90B4800F046F90A4800F043F909E04D
:10088000206D20F00105204600F03CF9204600F0E4
:1008900078F82C46002CF3D170BD0000A04F00204A
:1008A000F44F0020485000202001002024010020A7
:1008B0002801002072000000C66A000077000000D6
:1008C000B26A00009E6A00000EB5CDE90001FFF794
:1008D00037FE029069460120ABBE0EBD08B56946E1
:1008E00000900220ABBE08BD1FB58DE80700694629
:1008F0000520ABBE04B010BD1FB58DE80F006946E2
:100900000620ABBEF6E708B5694600900920ABBEED
:1009100008BD1CB5CDE9000169460A20ABBE1CBD6F
:10092000704708B5694600900C20ABBE08BD0000BA
:10093000004870479C5000207546FFF7F9FFAE460F
:1009400005006946534620F00700854618B020B5DB
:10095000FFF72CFDBDE820404FF000064FF00007E8
:100960004FF000084FF0000B21F00701AC46ACE857
:10097000C009ACE8C009ACE8C009ACE8C0098D46C4
:10098000704770B50446051F00F0F4F80068002CAD
:1009900014BF446870BD002C18BFAC423CBF204659
:1009A0006468F8D301680A18AA4218BF456003D1E9
:1009B0002A6805461144016028684119A1421CBFFC
:1009C0006C6070BD6168696021680844286070BD12
:1009D00070B5C468A50713D0650211D4B2F5807F45
:1009E00009D0B2F5007F06D0B2F5806F08D101239F
:1009F00000F1240106E05D1E6FF07F46B54201D391
:100A0000012070BD0161C361416024F47061114334
:100A1000C160002070BD00002DE9F0410C46074682
:100A20001646104600F06EF82078611C61280AD046
:100A3000722802D077283CD102E00125002405E08D
:100A40000225042402E0082448F2020511F8010BF3
:100A50002B2806D0622809D011F8010C74280AD07E
:100A60000BE045F0030544F00204EFE745F0040510
:100A700044F00104EAE744F0100438462146FFF749
:100A800023FF411C15D00021316171604FF40071CA
:100A9000F560F1617061200704D530460222002123
:100AA00000F0E2F8306D40F0010030653046BDE8FE
:100AB000F0810020FBE72DE9F0410D460646104C81
:100AC000206DC10704D0410804D020F00104F7E7ED
:100AD00022460EE0542000F098F807000ED0206D5A
:100AE00047F001010843542120653846FFF794FD83
:100AF0003A4629463046BDE8F0418DE70020D6E76A
:100B0000A04F00202DE9F04704464FF000094FF0B8
:100B1000FF37C568D4E90486A80707D0204600F04F
:100B200053F93046FFF7DAFE002802DA3846BDE80E
:100B3000F087280502D54046FFF723FF4C212046C9
:100B4000FFF76AFD206D20F0010020654846EEE7C2
:100B500010B50446AFF300802046BDE81040FFF713
:100B6000AEBB10B500F07AF9BDE8104000F070B9E6
:100B70007047000000487047A4500020704770473D
:100B80007047704738B504460A4600206946AFF3FF
:100B90000080002808BF38BD02460099204600F0BA
:100BA00084F9012038BD012000F0D3B9F8B5AFF3C6
:100BB0000080054600200C46102000BF0646A819FC
:100BC000A0420DD9324669460020AFF300800700ED
:100BD00008BF00F0BEF90098A04218BF0546C4192E
:100BE000FFF7C8FF05600746F01D20F00700461913
:100BF000284600F053F9B44208BFF8BDA21B3146A5
:100C00003868BDE8F84000F050B970B50646FFF707
:100C1000B1FF056806F10B0020F00704B4429CBF49
:100C2000002070BD2B466A68BAB11068A04210D38C
:100C300004F1080188423CBF5068586007D35168EE
:100C4000101941601168091B016058601460101D83
:100C500070BD13465268002AE7D121462846FFF7A7
:100C600091FF0028DED170BD2DE9F0410446164603
:100C70000D464769007B80072ED03846FFF743FEBC
:100C800050BB3EB3012E02D0022E25D104E02046F7
:100C900000F025F905441DE03846FFF742FEE16803
:100CA000002841F01001E16005DA204600F058F814
:100CB0000120BDE8F081C9030BD56268E16A914269
:100CC00000D81146A26911442269891A814200DDC7
:100CD00008460544002D01DA0220EAE7E16A60686F
:100CE000E268814206D29103E06203D522F400312A
:100CF00041F01002A6690027AE4213DCE16A81428E
:100D000001D90B4600E0034603EB060C2369ACEB6C
:100D1000030CAC4506DD814201D98C4600E08446D7
:100D20009C4505D1A760276042F02000A5620DE038
:100D3000AD1BE669AE1B8142A66000D90846C01A09
:100D4000281A20605819606022F0200003490840EA
:100D5000E060002084F84870ABE70000BFCFD7FF09
:100D6000C16821F4001141F08001C160002181605F
:100D7000016070472DE9F047814614460E464FF05A
:100D8000FF383248D5685769054209D03846A1690D
:100D9000FFF7BFFD002811DB2C48C0430540E5608C
:100DA0002B46324649463846FFF79EFDA16920F0A2
:100DB0000042B21A11440028A16103D02046FFF777
:100DC000CFFF4046BDE8F08770B504460569C06AAC
:100DD0006168884200D80846E16821F42011E1608A
:100DE000C90312D5A84208D02246411B2846FFF766
:100DF000C1FF10B14FF0FF3070BD0020E562C4E9C3
:100E00000150E06820F48030E060002070BD10B533
:100E10000446C06820F02000E060A16AA069884212
:100E20000DD02046FFF7D0FFE06820F4405040F09E
:100E30001000E060A06AA0612069E062606044F296
:100E40004001E0688843E06010BD0000100002002F
:100E5000002801D000F01CB87047000010B5014612
:100E600002A000F05DF8012010BD00005349475278
:100E7000545245443A2052656469726563743A205D
:100E800063616E2774206F70656E3A200000000069
:100E900001491820ABBEFEE72600020000210160D8
:100EA000C0E90110704710207047034640688C4627
:100EB000002818BF88423CBF03464068F8D3186832
:100EC0001844884207D00CF1030020F00700001DF1
:100ED000411A521A0146081D0A60FFF752BD10B5AB
:100EE0000146C268900703D0900607D5886A0AE0D9
:100EF000FFF746FC01210160881E10BD8B69486820
:100F000018440B69C01A91F848301BB191F8491088
:100F1000401A10BD1103FCD50028FADD401E10BD9B
:100F200070B505460C460A2000E06D1C00F018F86C
:100F300035B128780028F8D102E0641C00F010F8E0
:100F400014B120780028F8D1BDE870400A2000F0E4
:100F500007B810B500F00CF8BDE81040FFF778BFF7
:100F600008B569468DF800000320ABBE08BD00003F
:100F700010B5012805D0002103A0FFF7D1FF012003
:100F800010BD09A1F8E7000053494752544D454DA3
:100F90003A204F7574206F662068656170206D651A
:100FA0006D6F7279000000003A2048656170206D15
:100FB000656D6F727920636F72727570746564000D
:100FC000014800F0C7BA0000940100204A496FF0C0
:100FD000706210B5D1F8043323F44033C1F8043300
:100FE000D1F8043344682343C1F8043301684B68E3
:100FF00023F480734B60016803694C6844EA03235F
:101000004B6001684B6823F040734B600168846853
:101010004B6823434B6001688B6823F400638B604B
:101020000168C4688B6823438B60816AD142016880
:101030008A6822F070628A6001680DD0836A8A68CB
:101040001A438A6001688A6822F040528A60016807
:10105000C36A8A681A4302E08A6822F040528A60B2
:1010600001688A6822F002028A60016882698B68DE
:1010700043EA42028A6090F820100029016811D0EA
:101080001E4A4B6843F400634B6001684B6823F4CD
:1010900060434B600168446A4B6802EB443213437F
:1010A0004B6003E04A6822F400624A600168144B16
:1010B000CA6A22F47002CA620168848BCA6A03EBAE
:1010C00004531A43CA6201688A6822F400728A6073
:1010D000016890F830208B6843EA42228A600168F8
:1010E0008A6822F480628A60016840698A6842EAFC
:1010F0008020886010BD00000020014000E0FFFF5C
:101100000000F0FFFEE7704770470000014800F064
:1011100093BB0000AC040020014800F08DBB000030
:101120000C050020014800F087BB00006C05002082
:10113000014800F081BB0000CC050020014800F010
:101140007BBB00004C04002001681823CAB2103A8F
:10115000B2FBF3F2054B6FF30901032A9B5CC365F5
:1011600000D9091D8165084670470000D471000848
:1011700010B583694FF0C074826A0146002053B1F4
:10118000B3F5005F15D072B1012A0CD0022A0AD043
:10119000032A09D104E01AB1012A06D0022A03D198
:1011A000C96AC90100D5012010BDC96AA142FAD09F
:1011B00010BD002AF7D0012AF2D0022AF3D0032A68
:1011C000F3D010BD704772B6FEE7000070B506227E
:1011D0003B212DED068B84B068206B4602F094FC19
:1011E00006224321682002AB02F08EFCBDF800000D
:1011F0004FF08E465E4D5F4C9FED5F8A40BA00B265
:10120000288000EE100ABDF80200F8EEC00A40BACD
:101210006880BDF8040040BA00B2A88000EE100A51
:10122000BDF80800B8EEC01A40BAA886BDF80A009A
:1012300040BA00B2E88600EE100ABDF80C00B8EE25
:10124000C00A41BA09B2298701EE901A10EE100ABD
:1012500084ED0D0AF8EEE11AB042C4ED0F1AC4EDA8
:101260000B0A84ED0C1A03DD30EE480A84ED0D0AFA
:1012700011EE900AB04203DD31EEC80A84ED0F0A88
:1012800010EE900AB04203DD30EEC80A84ED0B0A7E
:1012900011EE100AB04202DCB0EE410A03E031EE7A
:1012A000480A84ED0C0AB7EEC01A94ED0B0AB7EEAB
:1012B000C00A03F05DFF94ED0D0A9FED309B9FED9A
:1012C00031ABB7EEC00A80EE091BB7EEC10B84ED5F
:1012D0000D0AB5F9340000EE100AB8EEC00A84ED2C
:1012E0000E0AB5F9021010EE100A00EE901AB04284
:1012F000F8EEE00AC4ED0A0A03DD30EE480A84ED98
:101300000E0A10EE900AB04203DD30EEC80A84EDFA
:101310000A0A94ED0E0AB1EE400A84ED010A94ED3A
:101320000A0AB7EEC01A94ED0C0AB7EEC00A03F031
:101330001FFFB421484300EE100AB8EEC00B80EE48
:101340000A1BB7EEC10B84ED0B0AD4ED0E0AB7EE03
:10135000E01A81EE092BB7EEC21B84ED0E1AF1EEF6
:10136000410A03F07BFC04B0BDEC068B70BD0000AD
:101370002C01002018000020000080476666666689
:1013800066663040F1D4C853FB2109407047000025
:10139000F8B50025009590F83C20012A1DD00122C7
:1013A00080F83C20664C0723D6070A68092A22D910
:1013B000B24220D007680A3A02EB420CFA6803FAFC
:1013C0000CF39A43FA600A68A24208D102680B7AC9
:1013D000D76847EA0363D36022E00220F8BD0768BC
:1013E0000A3A8B6802EB4202D7F80CC0934043EAFA
:1013F0000C03FB6014E0076802EB4202D7F810C050
:1014000093402CEA030CC7F810C003680F788A6871
:10141000D3F810C007EB4707BA4042EA0C021A6142
:101420004A681F23072A16D20768521E02EB820C55
:101430007A6B03FA0CF39A437A6303680F790A888C
:101440007F1ED3F834C092B207EB8707BA4042EA56
:101450000C025A632DE007680D2A15D2D21F02EB49
:10146000820C3A6B03FA0CF39A433A6302680F79E1
:101470000B88FF1FD2F830C09BB207EB8707BB4039
:1014800043EA0C03136314E00D3A02EB820CFA6A90
:1014900003FA0CF39A43FA6203680F790A880D3F46
:1014A000D3F82CC092B207EB8707BA4042EA0C028D
:1014B000DA62244A0368934208D10B68B34205D12B
:1014C000D2F8043323F44003C2F804330368934290
:1014D0000ED10B68122B0BD1D2F8043323F4000386
:1014E000C2F80433D2F8043343F48003C2F804335F
:1014F0000368934220D10B68A34201D0112B1BD16A
:10150000D2F8043323F48003C2F80433D2F804334E
:1015100043F40003C2F804330968A1420CD10A491C
:101520000A4A0968B1FBF2F101EB8101490000E0D0
:10153000491E00910029FBD180F83C500020F8BDE5
:101540001200001000200140A400002040420F00C3
:101550007047704770B5044600680668456816F025
:10156000020F05F020012AD049B3216CC90603D42B
:10157000216C41F400712164816811F0405F17D142
:10158000A169A9B9C16A11F4700F02D08168490537
:101590000ED4416821F020014160206C20F480705D
:1015A0002064206CC00403D4206C40F0010020644F
:1015B0002046FFF7CDFF21686FF01200086016F09B
:1015C000040F05F0800132D089B3206CC00603D42B
:1015D000206C40F4005020642068816811F4401FA2
:1015E0001ED1816B11F4401F02D08168490517D4C8
:1015F0004168490514D4816811F0405F10D1A16998
:1016000071B9416821F080014160206C20F4805064
:101610002064206CC00503D4206C40F001002064DD
:101620002046FFF7B3FE21686FF00C00086016F04B
:10163000010F05F040010FD071B120680068C007AC
:101640000AD0206C40F480302064204600F043F83B
:1016500021686FF00100086016F0200F05F080612E
:101660000ED000290CD0606C6FF0200540F0020015
:101670006064206805602046FFF76BFF2068056006
:1016800070BD70B504004FF0000503D0206C00263B
:1016900010B107E0012070BD204600F01DF866641F
:1016A00084F83C60206CC00610D4206C20F4885074
:1016B00040F0020020642046FFF788FC6664206C3E
:1016C00020F0020040F00100206400E0012584F8D1
:1016D0003C60284670BD704770B586B00646142140
:1016E0006846FEF799FF2149306888423BD120487F
:1016F000016841F480710160006800F48070059019
:101700001B481438016841F00101016000680025A0
:10171000032100F00100059080208DE8230015488A
:10172000694600F0CBF9144C14480115C214C4E901
:10173000000504F11400A560CB00C4E9035180E862
:101740002C0025622046656200F046F908B1FFF7DB
:101750003AFDB46300220521A663122000F040FB8D
:10176000122000F02FFB06B070BD000000200140E9
:1017700044380240000002404C0400201064024043
:101780002DE9F041876D044600F0C6FA064694F84C
:1017900035000025022806D080206065012084F8ED
:1017A0003450BDE8F0812068016821F01601016025
:1017B0002068416921F080014161206C08B9A06C6A
:1017C00020B12068016821F00801016020680168EB
:1017D00021F0010101600CE000F09EFA801B052859
:1017E00007D920216165032084F8350084F834503E
:1017F000D7E720680068C007EED194F85C203F204E
:1018000001219040B86084F83510002084F83450ED
:10181000C7E790F83510022903D0802141650120E7
:101820007047052180F835100068016821F001013A
:1018300001600020704700002DE9F84304464FF096
:101840000009644B0820CDF800904FF41652A56DA6
:1018500094F85C101B682E68B3FBF2F700FA01F1F4
:1018600031420FD021680A6852070BD50A6822F06E
:1018700004020A6094F85C108840A860606D40F033
:101880000100606594F85C104FF0010808FA01F05F
:10189000304208D021684969090604D5A860606D06
:1018A00040F00200606594F85C10042088403042EB
:1018B00008D021680968890704D5A860606D40F0E8
:1018C0000400606594F85C1010208840304218D005
:1018D00021680968090714D5A860206801684903D0
:1018E00004D50068000308D5A16C07E00168C905AC
:1018F00003D4016821F008010160216C09B1204680
:10190000884794F85C1020208840304231D021680C
:101910000968C9062DD5A86094F835000528206807
:10192000016806D0490347D5006800031DD4616CE7
:101930001CE021F0160101602068416921F080015E
:101940004161206C08B9A06C20B12068016821F0C9
:101950000801016094F85C303F229A40AA6084F844
:10196000358084F83490216D1FE0E16B09B1204689
:101970008847606D00282BD0606DC00714D005200B
:1019800084F835002068016821F0010101600098A9
:10199000401C0090B84203D820680068C007F6D108
:1019A00084F8358084F83490E16C002910D001B0BF
:1019B0002046BDE8F04308470168C905D5D403684F
:1019C00023F01003036084F8358084F83490CCE76A
:1019D000BDE8F883A40000202DE9F047044600F09C
:1019E0009BF9054664B102214FF0000984F83510D7
:1019F00084F834902068016821F0010101600EE054
:101A00000120BDE8F08700BF00F086F9401B0528E3
:101A100005D920216165032084F83500F1E72068AD
:101A20000068C007F0D1D4E90020D4E90251D4E91C
:101A3000043C284304F1180519430843116895E84C
:101A4000E00140EA0C001C4B2843194040EA060024
:101A500040EA0700B8F1040F40EA010003D1D4E9DD
:101A60000B1319430843106020680126656A40691A
:101A7000042D20F0070045EA00050CD1D4E90A0145
:101A8000054341B12046FFF773FB20B1402060655C
:101A900084F83560B4E7206845612046FFF754FBC1
:101AA00094F85C303F229A408260C4F8549084F8E5
:101AB00035600020A5E700003F8010E02DE9F84FD9
:101AC000DFF80CB2012403254FF00F0A00220BF1BE
:101AD000040E00BF0B6804FA02F63340B34278D11B
:101AE0000F7907F00307012F01D0022F1AD1876861
:101AF0004FEA4209D1F80CC005FA09F827EA0807AD
:101B00000CFA09FC4CEA070CC0F808C0476891F8C9
:101B100004C0B743CCF3001C0CFA02FC4CEA070CDF
:101B2000C0F804C00E79F643B6070BD0C6684FEA7A
:101B3000420C8F6805FA0CF826EA080607FA0CF73B
:101B40003743C7600E7906F00306022E12D1D6087D
:101B50004FEA427800EB860600960F69D6F820908F
:101B60004FEAD8660AFA06FCB74029EA0C06374362
:101B7000009E37620F7906684FEA420C07F00307B0
:101B800005FA0CF807FA0CF726EA0806374307604F
:101B90004E6816F4403F1CD04E4E376847F48047DD
:101BA0003760366822F00308970706F480460096EF
:101BB000494E3F0F4644B146D6F80868DFF81C810D
:101BC0000AFA07FC404526EA0C0603D14FF0000C48
:101BD00041E076E0DFF808C1604502D14FF0010C2A
:101BE00039E0DFF800C1604502D14FF0020C32E06D
:101BF000DFF8F4C0604502D14FF0030C2BE0DFF8B2
:101C0000ECC0604502D14FF0040C24E0DFF8E0C0E6
:101C1000604502D14FF0050C1DE0DFF8D8C06045EB
:101C200002D14FF0060C16E0DFF8CCC0604502D1BF
:101C30004FF0070C0FE0DFF8C4C0604502D14FF051
:101C4000080C08E0DFF8B8C0604502D14FF0090C7D
:101C500001E04FF00A0C0CFA07FC4CEA060CC9F83C
:101C600008C84F68DBF80060FF0226EA030600D5CB
:101C70001E437746CBF80060D1F804C0DEF8006060
:101C80005FEA8C2C26EA030600D51E43DFF840C02D
:101C90003E60ACF1040C4F68DCF80060BF0326EA3C
:101CA000030600D51E430A4FCCF80060083FD1F868
:101CB00004C03E685FEACC3C26EA030600D51E431A
:101CC0003E60521C102AFFF405AFBDE8F88F0000FB
:101CD000083C01404438024000300140000002400E
:101CE0000004024000080240000C024000100240C4
:101CF0000014024000180240001C02400020024074
:101D0000002402400069084000D0012070470AB159
:101D1000816170470904FBE7014880687047000053
:101D20009800002002488168027811448160704761
:101D300098000020032010B500F072F80F2000F08A
:101D400005F800F023F8002010BD000070B50D4D1F
:101D500004464FF47A700C4A29781268B0FBF1F00F
:101D6000B2FBF0F000F0F8FD48B9102C07D20022C9
:101D70002146501E00F034F800206C6070BD012038
:101D800070BD000098000020A40000200C4882B024
:101D9000016841F080510160006800F080500090BF
:101DA0000748001D016841F480410160006800227D
:101DB0000F2100F480400090901E02B000F010B897
:101DC00040380240002809DB410900F01F02890069
:101DD000012001F1E0219040C1F8000170470000AE
:101DE0000E4BF0B41B680D46C3F30223C3F1070684
:101DF000042E00D90426191D072901D2002300E072
:101E0000DB1E012404FA06F19C40491E2940641E91
:101E1000994014402143F0BC02F060BF0CED00E09B
:101E2000064900F0070210B54FF6FF040868044B9E
:101E3000204040EA02201843086010BD0CED00E08D
:101E40000000FA051848F8B5016841F080510160BA
:101E50000068164C00F080500090206840F48030FC
:101E60002060FFF759FF4FF47A76054605E000BF82
:101E7000FFF752FF401BB0420FD86068C003F7D590
:101E8000206840F400302060FFF746FF054606E07A
:101E9000FFF742FF401BB04201D90320F8BD606844
:101EA0008003F5D50020F8BD4038024000700040A6
:101EB0002DE9F84F04460078DFF824944FF000062F
:101EC0003746C0070ED0D9F8001021F40001C9F838
:101ED0000010D9F80010626B1143C9F80010606B54
:101EE00000B90126FE4D2068843500030ED5E16B54
:101EF000286820F4401008432860E06BB0F5801F8C
:101F000001D010B102E0012600E0012720684FF463
:101F1000800BC0020CD5216C286820F440000843D7
:101F20002860206C584501D1012601E000B9012745
:101F30002068C10100D50126800666D5E848383002
:101F4000016841F0805101600068DFF898A300F05B
:101F500080500090DAF8001041F48071CAF8001047
:101F6000FFF7DAFE804605E0FFF7D6FEA0EB08009B
:101F700064287DD8DAF80000C005F5D5DFF8608365
:101F800008F16808D8F8000010F440702AD0218EBB
:101F900001F44071814225D0D8F80010D8F8002013
:101FA00021F4407142F48032C8F80020D8F80020B3
:101FB00022F48032C8F80020C8F80010D8F80000D9
:101FC000C0070FD0FFF7A8FE824607E0FFF7A4FE88
:101FD000A0EB0A0141F288308142CAD8D8F800004B
:101FE0008007F3D5206BC0F3012103297ED0D9F8F7
:101FF000001021F4F811C9F80010228ED8F8001052
:10200000C2F30B021143C8F800102078C00607D5B0
:10201000286820F0807028602868A16B0843286039
:102020002188AF488830490405D5626E016821F4E3
:102030004031114301602188090405D5A26E016871
:1020400021F44021114301602168C90305D5E26EE6
:10205000016821F44011114301602168890305D50D
:10206000226F016821F4400111430160217800E0F2
:1020700034E1490605D5626C016821F00301114382
:1020800001602178090605D5A26C016821F00C01D8
:10209000114301602188C90505D5E26C016821F072
:1020A0003001114301602188890505D5226D016841
:1020B00021F0C001114301602188490505D5626DF9
:1020C000016821F44071114301602188090505D59B
:1020D000A26D016821F44061114301602188C904A7
:1020E00007D5E26D016821F4405100E068E011433A
:1020F00001602188890405D5226E016821F44041E0
:10210000114301602168490205D5A26F016821F0E1
:1021100080611143016021684FF0006A890209D58E
:10212000E26F016821F0006111430160E16F5145E8
:1021300000D1012721680A0700D50127490305D5E9
:10214000626F016821F0407111430160216809024A
:1021500006D5D4F88020016821F080511143016038
:102160002168490106D5D4F88420016821F0005186
:10217000114301602068000106D5D4F88810286852
:1021800020F00070084328602068C00006D5D4F80D
:102190008C10286820F0806008432860DFF84891A0
:1021A000012E02D0206880017ED5D9F800004E466D
:1021B00020F08060C9F80000FFF7AEFD80460FE018
:1021C0004A4AD9F80030104023F4F8120243C9F803
:1021D000002012E7FFF7A0FDA0EB080064287DD8DF
:1021E00030680001F6D421783D487C30C90712D010
:1021F000616B81B9237A62680168D0F800C09201EE
:10220000C1F3014142EA0142CCF3036142EA0161B8
:1022100041EA0371016021680A0303D5E26BB2F55C
:10222000801F04D0C9021AD5216C594517D16368A3
:10223000016894F80CC002689B01C1F3014143EAB4
:102240000141C2F3027241EA0C6141EA027101608C
:102250002968626A21F01F01521E1143296021681A
:10226000C90110D5238A62680168D0F800C09201C4
:10227000C1F3036142EA034242EA0162CCF3027114
:1022800042EA01710160216889010CD56168228AE6
:10229000237B94F808C0890141EA024141EA0361C5
:1022A00041EA0C71016000E011E03168B04641F094
:1022B00080613160FFF730FD064604E0FFF72CFD3A
:1022C000801B64280AD8D8F800000001F6D5E7B3CF
:1022D000D9F800004E4620F0805009E07BE0000075
:1022E000083802400070004000380240FFFCFF0F39
:1022F000C9F80000FFF710FD074604E0FFF70CFDEA
:10230000C01B642867D83068C0438000F6D52168B8
:1023100035480A0301D5E26B1AB1C9021DD5216CFB
:10232000D9B963690168277E02689B01C1F3014145
:1023300043EA0143C2F3027143EA076242EA0171D0
:10234000016029686FF0FF0300E04BE0A26A21F40E
:10235000F85103EB0222114329602168890212D54A
:10236000E16F51450FD1238C6269016807689201C2
:10237000C1F3036142EA034242EA0162C7F3027118
:1023800042EA017101602178090716D56169026886
:10239000D0F800C08B01277FC2F30362CCF3014168
:1023A00043EA014141EA026141EA0771016028689C
:1023B000E16A20F4403008432860306840F08050E3
:1023C0003060FFF7A9FC044608E000BFFFF7A4FC5B
:1023D000001B642802D90320BDE8F88F3068C04391
:1023E0008000F3D40020F7E7883802402DE9F04759
:1023F00005000F4663D0444E306800F00F00B8422D
:1024000009D2306820F00F0038433060306800F0A7
:102410000F00B84253D128683C4C810712D54007C1
:1024200003D5206840F4E05020602878000703D5E9
:10243000206840F460402060A968206820F0F00027
:10244000084320602878C0072AD0304968680839D6
:10245000012810D00968022810D0890700292EDA37
:10246000216821F0030101432160FFF755FC8046FC
:1024700041F288390DE009688903EFE78901EDE74A
:10248000FFF74AFCA0EB0801494502D90320BDE84B
:10249000F0876868216801F00C01B1EB800FEFD183
:1024A000306800F00F00B8420BD9306820F00F0000
:1024B00038433060306800F00F00B84201D001208E
:1024C000E5E72878400705D5E968206820F4E05062
:1024D000084320602878000706D52869216821F480
:1024E000604141EAC000206000F038F82168084AE5
:1024F000C1F30311515CC8400649086006480068F2
:10250000FFF724FC0020C2E7003C024008380240EC
:10251000DC710008A40000209C000020044905484C
:1025200009680068044AC1F38221515CC8407047C1
:1025300008380240A4000020EC7100080449054856
:1025400009680068044AC1F34231515CC8407047D1
:1025500008380240A4000020EC710008154910B5AD
:102560001548096811F00C0213D01449042A0FD041
:10257000082A0ED10F4C241F2268236802F03F0264
:102580005B0207D52068C0F38810A0FB010106E0BC
:10259000084610BD2168C1F38811A1FB000100238A
:1025A000FDF716FF2168C1F30141491C4900B0FB4A
:1025B000F1F010BD083802400024F40040787D019D
:1025C0002DE9F84F04004FF000076ED02078DFF8B7
:1025D0007CA3AAF10408C007A8F104054CD0DAF8DE
:1025E00000105046C1F38101012908D00068C0F3F2
:1025F000810002280AD1D8F80000400206D52868D8
:10260000800339D560680028DFD035E06068B0F518
:10261000803F0BD010B1B0F5A02F11D0286820F466
:1026200080302860286820F4802002E0286840F488
:1026300080302860606890B1FFF76EFB06460AE0C4
:10264000286840F480202860F0E700BFFFF764FBB3
:10265000801B642872D828688003F7D50CE0FFF748
:102660005BFB064605E000BFFFF756FB801B6428B6
:10267000F0D828688003F7D42078800742D5DAF8AC
:102680000010504611F00C0F08D00068C0F3810014
:1026900002280BD1D8F80000400207D42868800730
:1026A00018D5E068012800D114E04AE1E06800286C
:1026B000286817D040F001002860FFF72DFB064680
:1026C00005E000BFFFF728FB801B0228C2D828685E
:1026D0008007F7D52069296821F0F80141EAC00098
:1026E00028600FE020F001002860FFF715FB064688
:1026F00005E000BFFFF710FB801B02281ED82868EA
:102700008007F7D42078000729D5904861696C309C
:1027100000298146016812D041F001010160FFF7F4
:10272000FBFA064605E000BFFFF7F6FA801B022819
:1027300004D8D9F800008007F6D510E089E021F030
:1027400001010160FFF7E8FA064604E0FFF7E4FA4A
:10275000801B02287DD8D9F800008007F6D42078A5
:1027600040076BD5DFF8E49109F13809D9F800008A
:10277000C0000BD4D9F8001041F08051C9F8001006
:10278000D9F80000012700F08050009070480168DF
:10279000C90512D40168834641F480710160FFF7D6
:1027A000BBFA064605E000BFFFF7B6FA801B6428B7
:1027B0004FD8DBF80000C005F6D5644EA068683637
:1027C00001280AD008B1052811D0306820F0010096
:1027D0003060306820F0040002E0306840F0010012
:1027E0003060A068A0B1FFF797FA83460CE030682C
:1027F00040F004003060F0E7FFF78EFAA0EB0B0129
:1028000041F28830814268D830688007F4D50EE004
:10281000FFF782FA834607E0FFF77EFAA0EB0B0191
:1028200041F28830814258D830688007F4D42FB103
:10283000D9F8001021F08051C9F80010A069E0B368
:10284000DAF80010C1F3810102294DD0022828686E
:1028500000E042E020F08070286003D0FFF75CFACF
:1028600004463DE0FFF758FA064604E0FFF754FA45
:10287000801B022831D828688001F7D4D4E90921C7
:10288000DFF8D0C0D4E9070694F830304F0894F848
:102890002C1030430CEB074444EA8212104340EA08
:1028A000016040EA0370C8F80000286840F08070BA
:1028B0002860FFF731FA044605E044E0FFF72CFA00
:1028C000001B022809D828688001F7D53BE000BF2B
:1028D000FFF722FA001B022802D90320BDE8F88F77
:1028E00028688001F4D42EE00128D8F8000028D010
:1028F000E16900F480028A4223D1216A00F03F029C
:102900008A421ED1626A47F6C0710140B1EB821F54
:1029100017D1A16A4FF0FF3200F4403302EB5101AE
:10292000B3EB014F0DD194F82C1000F07062B2EBB4
:10293000016F06D194F8301000F0E040B0EB017F59
:1029400001D00120CAE70020C8E700000838024093
:10295000007000400000FFFF401EB0F1807F10B506
:1029600001D3012010BD4FF0E02460610F216017FA
:1029700002F0B4F90020A0610721216110BD000020
:102980002DE9F04390F83C20012A42D0012280F842
:102990003C2051F80C4BDFF880804FF0000991E8A3
:1029A000680051E9022723F44073B1F80CC03B439F
:1029B000CF6923F480631343026823F40063234345
:1029C00023F4805343EA050323F4005343EA060348
:1029D00023F4804343EA07030C3923F47023424570
:1029E00043EA0C4302D00D4CA2420CD18D8C23F44F
:1029F0007006D1E9073446EA055121F08071194388
:102A000021F000732343536480F83C900020BDE81C
:102A1000F0830220FBE700000000014000040140B9
:102A2000F0B590F83C20012A3BD01F4E012480F8DD
:102A30003C40022280F83D2002681C4D5368B2429F
:102A4000D2F808C001D0AA4203D14F6823F4700322
:102A50003B430F6823F070031F4357600268B24284
:102A600013D0B2F1804F10D0114B9A420DD0114BC0
:102A70009A420AD0104B9A4207D0AA4205D00F4B77
:102A80009A4202D00E4B9A4204D189682CF08003FE
:102A900019439160002180F83D4080F83C100846C1
:102AA000F0BD0220F0BD0000000001400004014024
:102AB0000004004000080040000C004000400140BD
:102AC0000018004010B5040003D094F83D0010B188
:102AD00007E0012010BD002084F83C00204600F0F3
:102AE00023F8022084F83D002068211D01F0ECFB52
:102AF000012084F8480084F83E0084F83F0084F800
:102B0000400084F8410084F8420084F8430084F8CF
:102B1000440084F8450084F8460084F8470084F8AF
:102B20003D00002010BD000010B586B00446142101
:102B30006846FDF771FD1F4A21681F48914207D181
:102B4000016841F001010160006800F001000CE043
:102B5000B1F1804F0CD0194A914207D1016841F080
:102B600002010160006800F00200059006B010BD8F
:102B70001148001F016841F001010160006800F088
:102B8000010005900C481438016841F00101016012
:102B900000680123202100F0010005900020009131
:102BA00002226946CDE90120CDE903030448FEF77E
:102BB00085FFDBE70000014044380240000401408B
:102BC0000000024070B5044690F83C000025012842
:102BD00017D0334B012684F83C60022084F83D0076
:102BE00022689068184020F47F4090600868502860
:102BF00038D00DDC20284FD005DC90B3102811D13F
:102C00004AE0022070BD302846D040280AD13BE07F
:102C100060282FD070280DD0B0F5805F03D0B0F5BC
:102C2000005F12D0012584F83D60002084F83C004C
:102C3000284670BD4A682068D1E9021301F0AAFB5A
:102C40002068816841F0770109E04A682068D1E98D
:102C5000021301F09FFB2068816841F4804181608C
:102C6000E1E719E0CA684968206801F025FD20689D
:102C7000502106E0CA684968206801F06FFD2068AD
:102C8000602101F090FBCEE7CA684968206801F036
:102C900013FD20684021F4E7226801461046F0E762
:102CA00088FFFEFF2DE9F041054690F83C00002624
:102CB0000C46012810D0012085F83C0072B1042A8E
:102CC0001CD0082A2CD00C2A51D00126002085F8CF
:102CD0003C003046BDE8F0810220FBE7E36828684D
:102CE000D4E9001201F0FAFC2868816921F00C0196
:102CF000816128688169A26811430FE0E368286850
:102D0000D4E9001201F03CFD2868816921F440619A
:102D1000816128688169A26841EA02218161D5E761
:102D2000D4E900232868217B076A4FF4206C090747
:102D300027F4807707620CEA0222C769D0F820C026
:102D400027F003071F432CF4206C27F0F00342EA1E
:102D50000C0243EA1161C16102622868C16921F075
:102D60000C01C1612868A268C169114329E0286883
:102D7000D4E90032E168076A4FF6FF7C4FF4204E39
:102D800027F4805707620CEA0131C769D0F820C0E8
:102D90000EEA033327F4407747EA02222CF4204C52
:102DA00022F470421143C16143EA0C0303622868B4
:102DB000C16921F44061C1612868A168C26942EA21
:102DC0000121C16182E710B5040003D094F83D00F1
:102DD00010B107E0012010BD002084F83C0020461F
:102DE00000F022F8022084F83D002068211D01F047
:102DF0006BFA012084F8480084F83E0084F83F0014
:102E000084F8400084F8410084F8420084F84300CC
:102E100084F8440084F8450084F8460084F84700AC
:102E200084F83D00002010BD7047000010B586B04A
:102E3000044614216846FDF7EFFB194A0020236879
:102E4000184993424FF0020212D10B6843F010036D
:102E50000B600968012301F0100105914FF4206116
:102E60000091CDE90120CDE903030F48694613E045
:102E70000E4CA34212D10B6843F004030B600968A7
:102E8000032301F004010591C0210091CDE9012047
:102E9000CDE9030306486946FEF710FE06B010BDF3
:102EA00000000140303802400010024000040140A0
:102EB0000008024070B5044690F83C000025012847
:102EC0000BD0012084F83C000C2A1ED007DC82B114
:102ED000042A12D0082A06D113E0022070BD102A5D
:102EE00017D0142A19D00125002084F83C00284668
:102EF00070BD206801F060FAF6E7206801F096FAEC
:102F0000F2E7206801F0CEFAEEE7206801F006FB58
:102F1000EAE7206801F02EFBE6E7206801F056FBA7
:102F2000E2E710B5040003D094F83D0010B107E0CB
:102F3000012010BD002084F83C00204600F022F85B
:102F4000022084F83D002068211D01F0BDF9012018
:102F500084F8480084F83E0084F83F0084F840007C
:102F600084F8410084F8420084F8430084F8440067
:102F700084F8450084F8460084F8470084F83D0052
:102F8000002010BD704770B5044690F83C00002644
:102F90000D4601280BD0012084F83C000C2A4AD0B1
:102FA00007DC82B1042A20D0082A06D131E00220B1
:102FB00070BD102A53D0142A63D00126002084F853
:102FC0003C00304670BD206801F0F6F92068816948
:102FD00041F0080181612068816921F0040181616B
:102FE00020682A698169114311E0206801F01EFA06
:102FF0002068816941F4006181612068816921F460
:103000008061816120682969826942EA01218161C8
:10301000D4E7206801F046FA2068C16941F0080150
:10302000C1612068C16921F00401C16120682A6979
:10303000C169114311E0206801F070FA2068C1698C
:1030400041F40061C1612068C16921F48061C161FE
:1030500020682969C26942EA0121C161AEE720689E
:1030600001F088FA2068416D41F00801416520684F
:10307000416D21F00401416520682A69416D1143C9
:1030800011E0206801F0A2FA2068416D41F400616E
:1030900041652068416D21F480614165206829699E
:1030A000426D42EA0121416588E710B5040003D072
:1030B00094F83D0010B107E0012010BD002084F815
:1030C0003C00204600F022F8022084F83D002068F1
:1030D000211D01F0F9F8012084F8480084F83E0031
:1030E00084F83F0084F8400084F8410084F84200EE
:1030F00084F8430084F8440084F8450084F84600CE
:1031000084F8470084F83D00002010BD704770B57A
:10311000044690F83C00012812D0012584F83C5068
:10312000022084F83D00204601F07CFA00284FF090
:10313000000007D084F83D5084F83C00012070BDA9
:10314000022070BD2168CA6822F04002CA6021686E
:10315000CA6822F48042CA6084F83D5084F83C007A
:10316000002070BD70477047704700002DE9F041A6
:1031700002680446002540F60F06D069116893687E
:10318000304205D186067DD58E067BD5616E1CE169
:10319000994F03F001060F40374373D0C70709D09A
:1031A000CF0507D501271762D4F8802042F001022D
:1031B000C4F8802082070AD5DA0708D027680222DF
:1031C0003A62D4F8802042F00402C4F8802042071A
:1031D0000AD5DA0708D0236804221A62D4F88020BE
:1031E00042F00202C4F8802002070CD501F0200250
:1031F000324308D0236808221A62D4F8802042F0B3
:103200000802C4F8802002050BD54A0109D52368BD
:103210004FF400621A62D4F8802042F02002C4F811
:103220008020D4F88020002A36D0800605D5880674
:1032300003D5616E09B1204688472168D4F8800023
:103240008968490602D410F0280F27D0204601F0E3
:103250005AFB2068806840061BD52068083050E87B
:10326000001F21F0400140E80012002AF5D1206F34
:1032700078B162490165206FFEF7CBFA00280BD0C8
:10328000206F00E010E0016D00E02046BDE8F04155
:1032900008472046FFF768FFBDE8F0812046FFF7AA
:1032A00063FFC4F88050F7E7276E2026012F7CD1FA
:1032B000C7067AD5CF0678D51020106220688068BE
:1032C000400641D5216F086840680004000CE3D037
:1032D000B4F858208242DFD9A4F85A00C869B0F582
:1032E000807F2AD0216851E8000F20F4807041E8E7
:1032F0000002002AF6D12068083050E8001F21F0B3
:10330000010140E80012002AF5D12068083050E899
:10331000001F21F0400140E80012002AF5D1E667C5
:103320002566216851E8000F20F0100041E80002F6
:10333000002AF6D1206FFEF723FAB4F85800B4F84B
:103340005A10401A81B22BE0B4F85800B4F85A1061
:10335000B4F85A20401A81B2002A9DD000299BD08F
:10336000206850E8002F22F4907240E80023002BE0
:10337000F6D1206800F1080050E8002F22F0010289
:1033800040E80023002BF4D1E667256665662068D7
:1033900050E8002F22F0100240E80023002BF6D165
:1033A0002046FFF7DFFE77E7FFE7C70208D55B029D
:1033B00006D54FF4801010622046FFF7D4FE6BE76D
:1033C000020606D50A0604D5A16E00297FF45DAF7A
:1033D00062E74006E7D54806E5D52046026852E890
:1033E000001F21F0400142E80013002BF6D1866750
:1033F000856600F091F94FE720010004F3480008CA
:1034000010B5040002D0A06F10B107E0012010BD7C
:10341000002084F87400204600F026F82420A067DD
:103420002068016821F001010160204601F090FA56
:103430000128ECD0606A10B1204601F0C8F920687C
:10344000416821F4904141602068816821F02A019F
:1034500081602068016841F0010101602046BDE8FB
:10346000104001F018BA00002DE9F04F87B0064671
:1034700014216846FDF7D0F86D480222DFF8B4C188
:103480000321356810386A4B002497064FF0400B33
:1034900065454FF4806A4DD11D6845F400251D60D7
:1034A0001B6803F400230593036843F008030360DB
:1034B000006800F00800059008208DE81600CDE9AE
:1034C00003105D486946FEF7F9FADFF87091D046BF
:1034D0005B4A4846C9F80020C0E90174C0E9034AC4
:1034E000C9F81440C9F81840C9F81C40C9F8204070
:1034F000C9F82440FEF770FA08B1FDF764FE514D9B
:10350000C6F87090C9F8386028464D4AC5E90348A6
:103510006C613032AC61EC612C626C6285E88408CD
:10352000FEF75AFA08B1FDF74EFEF566AE6307B036
:10353000BDE8F08FDFF810C165451DD13C4B1B1D68
:103540001D6845F010051D601B6803F0100305930E
:10355000036843F0020303600068042300F00200E4
:103560000590CDE903134FF4404069468DE81500FE
:103570003648FEF7A3FADAE7DFF8D4C06545D6D1BE
:103580001D6845F400351D601B6803F40033059386
:10359000036843F0010303600068072300F00100A3
:1035A00005900C20CDE903138DE8150029486946E4
:1035B000FEF784FADFF8A080B946214A5746404614
:1035C0004832C8F80020C8E90194C8E9034AC8F89D
:1035D0001440C8F81840C8F81C40C8F82040C8F883
:1035E0002440FEF7F9F908B1FDF7EDFD1B4DC6F8D3
:1035F0007080C8F838602846114BC5E903476C61F4
:103600006033AC61EC612C626C6285E8080AFEF7FD
:10361000E3F908B1FDF7D7FDF56600220521AE6399
:103620002620FEF7DDFB2620FEF7CCFB7FE700001F
:1036300040380240004C0040000C0240AC04002026
:10364000406002400C0500200010014000040240D0
:1036500000440040000002406C050020CC05002022
:103660002DE9F8430446806F1F4616460D46202874
:1036700050D1CDB1C6B194F8740001284AD00120D0
:1036800084F8740021224FF00008C4F88080A267FB
:10369000FEF742FB8146A068A4F85060A4F852608F
:1036A000B0F5805F03D004E00120BDE8F883206915
:1036B00028B12E465FF0000584F8748010E00026E3
:1036C000FAE78021204601F05BFAB8B9C6B116F8D6
:1036D000010B21688862B4F85200401EA4F8520021
:1036E000B4F852004B464FF0000200970028E8D192
:1036F0004FF04001204601F043FA38B10320D4E7EF
:1037000035F8020B2168C0F30800E3E72020A0672A
:103710000020CAE70220C8E77047FEE780216B203F
:1037200010B500F096FA4FF4FA7001F0C7FD0021D1
:103730006B2000F08EFA0121192000F08AFA042192
:103740001A2000F086FA10211B2000F082FA0921CD
:103750001C2000F07EFA752000F0B8F9682801D02E
:10376000012010BD01216B2000F073FA00216C20B4
:1037700000F06FFA322000F055FA002010BD7CB541
:1037800014460D46062206463B216B46682000F093
:10379000BBF900280BD1BDF8001049BA3180BDF843
:1037A000021049BA2980BDF8041049BA21807CBDB5
:1037B0007CB514460D460622064643216B4668201A
:1037C00000F0A2F900280BD1BDF8001049BA3180F1
:1037D000BDF8021049BA2980BDF8041049BA218009
:1037E0007CBD000008B502226B464121682000F034
:1037F0008BF9BDF800009FED0D1B9FED0E2B40BA1D
:1038000000B200EE100ADFED0D0AB8EEC03B83EE09
:10381000014B34EE021BB7EEC10B20EE200ABDEEC9
:10382000C00A10EE100A00B208BD0000000000003F
:1038300000407540A4703D0AD74342400000C84292
:103840007FB506226B463B21682000F05DF9062219
:103850004321682002AB00F057F9BDF8001025485D
:1038600049BA0CB20480BDF8021049BA0BB24380C9
:10387000BDF8041049BA8180BDF8081049BA0AB2EF
:103880008286BDF80A1049BA09B2C186BDF80C504B
:103890006DBA2DB20587B0F92060A41B00EE104A66
:1038A000B8EEC00A80ED0A0AB0F922401B1B00EEF8
:1038B000103AB8EEC00A80ED0B0AB0F95430D21AB3
:1038C00000EE102AB8EEC00A80ED170AB0F95620B3
:1038D000891A00EE101AB8EEC00A80ED180AB0F985
:1038E0005810691A00EE101AB8EEC00A80ED190AD5
:1038F0007FBD00002C010020002000BF401C642878
:10390000FBDB70472DE9F0410024074600F032F957
:10391000214E0025002202213046FEF7F8F9FFF77C
:10392000EBFF012230460221FEF7F1F9600601218A
:10393000040E3046FEF7E6F908B1641CE4B2FFF766
:10394000DBFF6D1CEDB2082DE4D34FF000024FF009
:1039500002013046CFB1FEF7DAF900F02BF9002270
:1039600030460121FEF7D3F9FFF7C6FF01223046AA
:103970000221FEF7CCF9FFF7BFFF002230460221FB
:10398000FEF7C5F92046BDE8F081FEF7C0F900F06A
:1039900011F90122E4E700000014024070B5054669
:1039A00000F008F9124E002202213046FEF7AFF96E
:1039B0000024280601D5012200E000223046012122
:1039C000FEF7A5F968060122050E30460221FEF732
:1039D0009EF9FFF791FF002230460221FEF797F98A
:1039E000FFF78AFF641CE4B2082CE2D370BD00002C
:1039F0000014024010B500F0DDF80D4C0122114614
:103A00002046FEF784F9012220460221FEF77FF9C5
:103A1000FFF772FF002220460121FEF778F9FFF739
:103A20006BFF00222046BDE810400221FEF76FB96F
:103A30000014024010B500F0BDF80D4C0022022128
:103A40002046FEF764F9002220460121FEF75FF9C7
:103A5000FFF752FF012220460221FEF758F901220A
:103A600020461146FEF753F9BDE81040FFF744BF6A
:103A70000014024070B5002400F07CF8124D0122C1
:103A800011462846FEF743F9FFF736FF0122284684
:103A90000221FEF73CF9FFF72FFF07E0641CE4B2B8
:103AA000FA2C03D9FFF7C6FF012070BD012128467B
:103AB000FEF728F90028F1D1002228460221FEF75E
:103AC00026F9002070BD00000014024010B5044625
:103AD000FFF790FFD020FFF761FFFFF7CBFF2046F5
:103AE000FFF75CFFFFF7C6FFFFF784FFD120FFF76A
:103AF00055FFFFF7BFFF0020FFF704FF0446FFF765
:103B000099FF204610BD00002DE9F0411D461446E6
:103B10000F460646FFF76EFF7006000EFFF73EFFEA
:103B2000FFF7A8FF20B1FFF785FF0120BDE8F08176
:103B30003846FFF733FFFFF79DFFFFF75BFF0120DC
:103B400000EB4600C0B2FFF729FFFFF793FF09E043
:103B5000012C0DD05FF00100FFF7D4FE641E05F8C4
:103B6000010BE4B2002CF3D1FFF764FF0020DDE786
:103B70000020F1E700B587B014216846FCF74CFD42
:103B80000A48016841F0200101600068002102221A
:103B9000039200F0200005900120CDE900010448C7
:103BA0006946FDF78BFF07B000BD000030380240CA
:103BB0000014024000B587B014216846FCF72CFDC4
:103BC0000A48016841F0200101600068022100F00C
:103BD0002000059001200090CDE902010190694686
:103BE0000348FDF76BFF07B000BD0000303802400E
:103BF00000140240BC2801D3012110E0622801D347
:103C000002210CE02A2801D3032108E0142801D363
:103C1000042104E00A2801D3052100E006211A202E
:103C200000F017B810B504464FF47A70844201D9F9
:103C3000044602E0042C00D20424B0FBF4F0401E41
:103C4000C1B2192000F005F86008BDE81040FFF788
:103C5000D1BF70B50C460546FFF7CCFED020FFF76C
:103C60009DFEFFF707FF50B92846FFF797FEFFF7C5
:103C700001FF2046FFF792FEFFF7FCFE18B1FFF7A9
:103C8000D9FE012070BDFFF7D5FE002070BD0000F9
:103C90007FB515480025134901240095019522049C
:103CA00002950395016004618461C0E901250F4913
:103CB00080F82050C0E90A15C560C46180F8304022
:103CC0004461FDF7DEFC08B172B6FEE707206946E5
:103CD0008DE831000448FDF75BFB002801D072B687
:103CE000FEE77FBD00200140940100200100000F8D
:103CF0001D4808B5016841F400110160016801F434
:103D000000110091016841F4800101600068002207
:103D1000052100F4800000900D20FEF761F80D20D1
:103D2000FEF750F8002205210F20FEF759F80F206A
:103D3000FEF748F8002205211020FEF751F8102068
:103D4000FEF740F8002205211120FEF749F8112066
:103D5000FEF738F8002205213820FEF741F8BDE8CB
:103D600008403820FEF72EB83038024010B586B033
:103D700014216846FCF750FC2548016841F02001F9
:103D80000160016801F020010591016841F08001A6
:103D90000160016801F080010591016841F00101B5
:103DA0000160016801F001010591016841F0100115
:103DB0000160016801F010010591016841F0020104
:103DC0000160016801F002010591016841F0040100
:103DD0000160016801F004010591016841F00801EA
:103DE0000160006800220B4C032100F008000590E0
:103DF0002046FDF78CFF032220460121CDE9021267
:103E0000CDE900216946FDF759FE06B010BD00005E
:103E1000303802400014024010B59AB000241C2132
:103E2000009412A8019402940394049405940694B7
:103E3000FCF7F2FB2C2107A8FCF7EEFB32484FF60B
:103E4000FF723049C0E90014C0E9024204614461D4
:103E50008461FEF737FE08B172B6FEE74FF480507A
:103E6000009029486946FEF7ADFE08B172B6FEE73C
:103E70002548FFF71AF908B172B6FEE72248FFF7A6
:103E800050F808B172B6FEE71F4804A904940594DF
:103E90000694FEF7C5FD08B172B6FEE760201494E3
:103EA000CDE912041848002212A91594169417940B
:103EB0001894FFF768F808B172B6FEE712480422BA
:103EC00012A91294FEF7F6FF08B172B6FEE74FF49E
:103ED000005007940894099401030A94CDE90B401B
:103EE000CDE90E41084807A90D9410941194FEF7EE
:103EF00047FD08B172B6FEE70348FEF797FF1AB018
:103F000010BD000000000140DC01002010B58CB0A5
:103F100026480024621E00944FF0804101940294D0
:103F200003940494059406940794089409940A94BD
:103F3000C0E90014C0E9024204618461FEF7C2FDD9
:103F400008B172B6FEE74FF48050009017486946FA
:103F5000FEF738FE08B172B6FEE71448FEF733FFED
:103F600008B172B6FEE7114804A904940694FEF75E
:103F700057FD08B172B6FEE70120002207A9CDE97E
:103F800007400A4809940A94FEF78CFE08B172B6FD
:103F9000FEE7022008900548042207A9FEF782FEEA
:103FA000002801D072B6FEE70CB010BD2802002038
:103FB00010B59AB0142112A8FCF72EFB0024179418
:103FC0001C2118940BA81994FCF726FB2C21684699
:103FD000FCF722FB2D484FF6FF722B49C0E9001475
:103FE000C0E90242046144618461FEF76BFD08B1DF
:103FF00072B6FEE72548FEF794FF08B172B6FEE7F9
:10400000224812A912941394FFF781F808B172B6EE
:10401000FEE71E4817A9179418941994FEF700FD9F
:1040200008B172B6FEE70B9400220C940BA9174856
:104030000D940E940F9410941194FEF73BFF08B169
:1040400072B6FEE7114804220BA9FEF733FF08B150
:1040500072B6FEE74FF400500094019401030294FD
:10406000CDE9044003940694CDE907410748694629
:1040700009940A94FEF784FC08B172B6FEE703487F
:10408000FEF7D4FE1AB010BD0004014074020020F7
:104090000C48002110B50A4C0C224FF4E1330460A7
:1040A000C0E90131C160C0E904128161C1610162EE
:1040B0004162FFF7A5F9002801D072B6FEE710BDF6
:1040C000004C0040C00200200C48002110B50A4CF2
:1040D0000C224FF4E1330460C0E90131C160C0E952
:1040E00004128161C16101624162FFF789F9002810
:1040F00001D072B6FEE710BD00100140440300205D
:104100000C48002110B50A4C0C224FF4E133046036
:10411000C0E90131C160C0E904128161C16101627D
:104120004162FFF76DF9002801D072B6FEE710BDBD
:1041300000440040C8030020FEE7FEE7FFF7EEFA68
:104140000E4EB51DA5F13A040DA0FCF7B9F90B48C8
:10415000321DB11CFFF713FB08482A1DA91C801D46
:10416000FFF726FBFFF73EFB2080FFF769FB64208B
:1041700001F0A4F8FDF72AF8E6E700008C00002023
:1041800053746172745461736B30312D2D2D2D2D4C
:104190002D2D2D2D2D2D2D2D2D2D2D2D2D2D2D2D4F
:1041A0002D2D2D3E0000000003A0FCF789F9C8204A
:1041B00001F084F8F8E7000053746172745461737D
:1041C0006B30322D2D2D2D2D2D2D2D2D2D2D2D2DD9
:1041D0002D2D2D2D2D2D2D2D2D2D2D3E00000000B2
:1041E00010B5FDF79FFD02F075FD012803D0BDE875
:1041F000104002F0E5B910BD30B5B7B0342124A8A5
:10420000FCF70AFA142131A8FCF706FA9021684657
:10421000FCF702FA2648016841F08051016000680D
:1042200000F0805036902348016841F4404101601D
:10423000006800240DF1B00C022524950822C42347
:10424000CDE92A5400F4404036908CE82C0010212F
:104250002F9501203095CDE9270124A8FEF7B0F96C
:1042600008B172B6FEE7FDF7EDFD08B172B6FEE7E4
:104270004FF4805233944FF4A0510F20CDE9341203
:10428000CDE93105062131A8FEF7B0F808B172B6C4
:10429000FEE74FF430701494119412940090684625
:1042A000FDF706FE002801D072B6FEE737B030BD3C
:1042B00040380240007000400248016841F470013B
:1042C0000160704788ED00E0F0B5274B4FF0804E5D
:1042D000264D02689842264E264F274C09D070453D
:1042E00007D0A84205D0B04203D0B84201D0A042C6
:1042F00005D1D1F804C022F070024CEA02029842C3
:104300001BD0704519D0A84217D0B04215D0B84282
:1043100013D0A04211D0194DA8420ED0184DA8427A
:104320000BD0184DA84208D0174DA84205D0174D04
:10433000A84202D0164DA84203D1CD6822F44072A3
:104340002A434D6922F080022A43026098428A681B
:10435000C2620A68826201D0A04201D10969016388
:1043600001214161F0BD0000000001400004004057
:1043700000080040000C00400004014000400140E3
:10438000004401400048014000180040001C00406B
:104390000020004042EA032283680A4323F47F415D
:1043A0000A4382607047826822F070020A4342F03A
:1043B0000701816070470000F0B5026ADFF860C055
:1043C000184F22F00102DFF860E00262066A4268DC
:1043D000836926F002060D68B8428C6803EA0C0374
:1043E00023F0030344EA060445EA030501D07045BF
:1043F00005D1CB6824F00804234323F00404B84219
:1044000001D0704505D122F44076D1E9053233431D
:104410001A4342608561496841630462F0BD00004F
:104420008FFFFEFF0000014000040140F0B5026A6A
:10443000194E1A4C22F01002DFF864E00262056A9D
:104440004368826925F02005D1F808C0A0420F68B2
:1044500002EA060222F4407245EA0C1542EA0722FB
:1044600001D0704506D1CE6825F0800545EA0615D5
:1044700025F04005A04201D0704507D1D1E905469D
:1044800023F4406343EA840343EA86034360826182
:10449000496881630562F0BDFF8FFFFE00000140A7
:1044A00000040140F0B5026A194F1A4E22F48072DE
:1044B000DFF864E00262056A4368C26925F40075AA
:1044C000D1F808C0B0420C6802EA070222F00302E9
:1044D00045EA0C2544EA020401D0704506D1CF68B4
:1044E00025F4006242EA072222F48065B04201D03E
:1044F000704507D123F44052D1E9053642EA031250
:1045000042EA06134360C4614968C1630562F0BDB5
:104510008FFFFEFF0000014000040140F0B5026A79
:10452000124B114F22F4805298420262046A426890
:10453000C36924F400548E680D6803EA070323F46A
:10454000407344EA063443EA052302D0084DA842EA
:1045500004D14D6922F4804242EA85124260C3616F
:10456000496801640462F0BDFF8FFFFE0000014056
:1045700000040140F0B5026ADFF844C022F4803242
:104580000262056A4268446D25F400350E89604573
:104590000C4F0B6804EA070445EA064543EA0403A6
:1045A00002D0094CA04204D14C6922F4803242EA84
:1045B000042242604365496881650562F0BD0000E0
:1045C000000001408FFFFEFF00040140F0B5026AC9
:1045D000DFF844C022F480120262046A4268436D2C
:1045E00024F400140E8960450C4F0D6803EA07039C
:1045F00044EA065443EA052302D0094DA84204D1F7
:104600004D6922F4802242EA85224260436549686E
:10461000C1650462F0BD000000000140FF8FFFFE95
:10462000000401402DE9F041D1E900230568002490
:10463000204FAE6826F0700633433B401A43AA6011
:104640004A6812F00F0F32D11211082A2FD2DFE878
:1046500002F02F2F2F2F0B2228048A680068D1E93F
:104660000313FFF797FE23E00A68052A10D00268BB
:10467000136A156A25F00105156202680D699169D2
:1046800021F0F00141EA05119161006803620FE039
:104690000120BDE8F0810A690068896800F00CF823
:1046A00006E00A690068896800F058F800E0012413
:1046B0002046EEE7F8FFFEFF10B5036A046A23F018
:1046C0000A0324F00104046284690B4324F0F0011E
:1046D00041EA02118161036210BD000070B5046AF5
:1046E000174D24F001040462A8428469056A14D0BD
:1046F000B0F1804F11D0134EB0420ED0124EB042E6
:104700000BD0124EB04208D0114EB04205D0114E1F
:10471000B04202D0104EB04203D124F0030414433F
:1047200001E044F001041A0724F0F00325F00A0424
:1047300001F00A01214343EA12628261016270BD05
:10474000000001400004004000080040000C004050
:1047500000040140004001400018004010B5036A09
:1047600023F0100303628369046A23F4704324F086
:10477000A00443EA0232826144EA0111016210BDE1
:1047800070B5056AA0244FF6FF7606EA033325F0DC
:104790001005056204EA01118469056A24F4407475
:1047A00025F0A00544EA0222294322F47042134373
:1047B0008361016270BD10B501F0EEFB002805D0E9
:1047C000D0E90021BDE810400846104710BD90F820
:1047D0002410C90706D00168836A4A6822F40032AF
:1047E0001A434A6090F82410890706D50168C36A05
:1047F0004A6822F480321A434A6090F8241049072C
:1048000006D50168036B4A6822F480221A434A6085
:1048100090F82410090706D50168436B4A6822F412
:1048200000421A434A6090F82410C90606D5016870
:10483000836B8A6822F480521A438A6090F82410AD
:10484000890606D50168C36B8A6822F400521A43B0
:104850008A6090F82410490611D50168036C4A68F3
:1048600022F480121A434A60016CB1F5801F06D110
:104870000168436C4A6822F4C0021A434A6090F807
:104880002410090606D50168826C486820F40020CF
:10489000104348607047F8B500260446C0F88060B1
:1048A000FDF73AFA054620686FF07E47006800077A
:1048B00008D500222B464FF400112046009700F047
:1048C0005FF960B92068006840070AD500222B46CE
:1048D0004FF480012046009700F052F908B1032000
:1048E000F8BD2020A067E0672666002084F8746089
:1048F000F8BD10B5806B0021A0F85A10A0F8521036
:10490000FEF732FC10BD016851E8002F22F49072CE
:1049100041E80023002BF6D10168083151E8002F4F
:1049200022F0010241E80023002BF5D1016E01299C
:1049300008D1026852E8001F21F0100142E800137C
:10494000002BF6D100212022C26701664166704724
:104950002DE9F04104460368C2698168D4E9045036
:10496000DFF8F0C17C4E29431F68002510437B4AC5
:10497000014307EA0C070F431F604FF40040216812
:10498000E7684B6823F440533B434B602768A369B7
:10499000216AD7F808C019432CF430630B43BB607D
:1049A0002168B1420AD1116811F0030152D00129E6
:1049B0007CD0022971D003296ED184E0684B9942E2
:1049C0000AD1116811F00C0167D0042965D00829BB
:1049D00075D00C2960D176E0624B99420AD11168FA
:1049E00011F0300159D010296BD0202967D030291F
:1049F00052D168E05C4B99420AD1116811F0C001B4
:104A00004BD040295DD0802959D0C02944D15AE0EB
:104A1000564B99420DD1116811F440713DD0B1F55A
:104A2000807F4ED0B1F5007F49D0B1F5407F33D1C2
:104A300049E04F4B99420FD1116811F4406109D000
:104A4000B1F5806F3DD0B1F5006F38D0B1F5406F52
:104A500022D138E0012120E0464B99420DD1116866
:104A600011F4405119D0B1F5805F2AD0B1F5005F43
:104A700025D0B1F5405F0FD125E03F4B99420BD1D6
:104A8000116811F4404108D0B1F5804F19D081422E
:104A900015D0B1F5404F16D01021E369374A4FF6D3
:104AA000EF7683422ED1092949D201E009E006E0E0
:104AB000DFE801F00B0E11451345454516000221B4
:104AC000EBE70421E9E70821E7E7FDF727FD06E02A
:104AD000FDF734FD03E0104602E0FDF73FFD78B33B
:104AE0006168400000EB5100B0FBF1F0A0F1100153
:104AF000B14224D84FF6F0732168C0F34202184047
:104B0000104320E009291AD2DFE801F005080B194B
:104B10000D1919191000FDF701FD06E0FDF70EFD56
:104B200003E0104602E0FDF719FD48B1616800EBB3
:104B30005100B0FBF1F0A0F11001B14201D9012503
:104B400002E0216880B2C86000206066A066284646
:104B5000BDE8F081F369FFEF00100140903802409A
:104B60000044004000480040004C0040005000401D
:104B70000014014000780040007C00400024F40054
:104B80002DE9F0479A4617460E460446089D4FF019
:104B900000094FF020084CE0681C4AD0FDF7BCF833
:104BA000A0EB0A00A8422AD84DB320680168490743
:104BB0003FD5C069C04300053BD421684FF4006075
:104BC0000862216851E8000F20F4D07041E800022B
:104BD000002AF6D12068083050E8001F21F00101BA
:104BE00040E80012002AF5D1C4F8788084F8749067
:104BF000C4F87C80C4F880800320BDE8F08720687A
:104C000050E8001F21F4D07140E80012002AF6D1CC
:104C10002068083050E8001F21F0010140E8001230
:104C2000002AF5D1C4F8788084F87490C4F87C80A8
:104C3000E2E72068C06936EA000004D00020B842EC
:104C4000AAD00020D9E70120F9E700000148FEF7CB
:104C50008DBA0000C8030020FEE70000B7EEE02A8E
:104C60000B489FED0C3B9FED0D5B90ED081AB7EEE6
:104C7000C00A9FED0C4BB7EEC11A20EE050B02EEF9
:104C8000031B01EE040BB7EEC00B80ED080A704762
:104C9000180000207B14AE47E17A743F9A999999E5
:104CA0009999B93FCDCCCCCCCCCCEC3F03B4019896
:104CB0004100009850EAC12018BF04204A0D18BFD7
:104CC00040F0010040F2FF72B2EB515F08BF40F0CC
:104CD0000200012808BF052002B07047090700281C
:104CE0004FEA116104DB00F1E02080F80014704706
:104CF00000F00F0000F1E02080F8141D7047000064
:104D000070B565482DED020B2DED048B059D25F04A
:104D10000044A04218DC6148844202DC0AD10498B5
:104D200040B19DED040BBDEC048B02B0BDE87040BA
:104D300000F002BA002DCCBF9FED590B9FED5A0B2E
:104D4000BDEC048B02B070BD5948A04215DD594836
:104D5000A042D8BF4FF0FF3455DD9DED040B51EC60
:104D6000100BFFF7A3FF042808BF00F0EDF99DED3D
:104D7000040BBDEC048B02B070BD9DED040B51EC37
:104D8000100B00F0FFF9CDE904014B489FED4C0BEF
:104D9000A0421CDD4C48A0420BDD9DED042B0024FD
:104DA0009FED4B1B12EE010B32EE011B80EE012B2F
:104DB00027E09DED041B9DED042B012431EE401BEB
:104DC00032EE000B81EE002B8DED042B1BE04248F0
:104DD000A0420FDD9DED042B02249FED411B9DEDB4
:104DE000043B32EE412B03EE010B82EE001B8DEDF6
:104DF000041B08E09DED040B9FED3B1B032481EE9B
:104E0000002B8DED042B9DED040B3948062120EE7F
:104E1000009B29EE098BB0EE480B784400F054F962
:104E200020EE099B3348B0EE480B0521784400F092
:104E30004BF920EE080B002C0BDA9DED042B39EE1C
:104E4000001B9DED040BBDEC048B02B002EE410B88
:104E500070BD2948784439EE000B00EBC4009DED8D
:104E6000042B90ED001B254812EE001B9DED040B5A
:104E700031EE400B784400EBC400002D90ED001B98
:104E800031EE400BB8BFB1EE400BBDEC048B02B06D
:104E900070BD000000000000000010440000F07F22
:104EA000182D4454FB21F93F182D4454FB21F9BF20
:104EB0000000DC3F0000203E0000F33F0000000047
:104EC000000000000000F03F0000E63F000000008E
:104ED00000000000000000400080034000000000CF
:104EE000000000000000F83F000000000000F0BFDC
:104EF0004224000008240000C0230000802300009A
:104F000070B5614E2DED040B2DED048B82B0DDF8F4
:104F100024C0DDE907235C422CF000411C4341EA38
:104F2000D474069D22F00040B44205D86C422C4354
:104F300040EAD474B4420BD99DED081B9DED060BDD
:104F400002B0BDEC048B04B0BDE8704000F0F7B8CF
:104F5000ACF14054A4F17F641C430BD0022404EA5A
:104F6000AC7444EAD27405439FED498B9FED4A2B04
:104F70000DD016E09DED060B51EC100B00F0F0F893
:104F800041EC100B02B0BDEC048B04B070BD002CE2
:104F900014BF012C9DED060BF4D0022C2ED0032C57
:104FA0002FD00B439FED3E1B9FED3F0B0AD0B1422C
:104FB0001DD1B04209D121F0804120F080400991FB
:104FC000079014E0002ADDDA15E0394B7B44002C11
:104FD00008BF93ED000BD5D0012C04BF93ED000B5F
:104FE000B1EE400BCED0022C08D0032C09D0B04239
:104FF0000AD1002AC6DAB0EE410BC3E7B0EE480B87
:10500000C0E7B0EE420BBDE7401A00159FED2A9BAA
:105010003C28C8BF8DED000B15DCBCF1000FBCBFF8
:1050200010F13C0F8DED009B0DDB9DED061B9DED02
:10503000082B81EE020B51EC100B00F0A3F800F0EE
:105040008FF8CDE9000194B1012C0CD09DED001B2F
:105050009FED1B0B022C31EE400B0CBF38EE400BCA
:1050600030EE480B8EE7019880F0004001909DEDF6
:10507000000BB4EE490BF1EE10FA04BF0220FBF76F
:10508000FAFA9DED000B7DE70000F07F00000000C4
:10509000182D4454FB210940182D4454FB2109C00C
:1050A000182D4454FB21F9BF182D4454FB21F93F1E
:1050B000C02200000000000000000000000000000E
:1050C000075C143326A6A13C491E00EBC102B0EEDA
:1050D000401B92ED000B31F006020DD0491E00EB93
:1050E000C102B0EE403B92ED002B31F00602B0EE73
:1050F000420B03EE010BF1D1022914D004290AD08E
:10510000062918BF704790ED0A2B00EE012B90ED99
:10511000080B02EE010B90ED062B00EE012B90ED3B
:10512000040B02EE010B90ED022B00EE012B90ED33
:10513000000B02EE010B704730EE000B704730EEB3
:10514000010B7047000000009FED030B20EE000BE9
:105150007047000000000000000000000000001088
:1051600010B541EC100BFFF7CBFD51EC100B10BD4F
:1051700010B541EC100B43EC112BFFF7C1FE51ECC5
:10518000100B10BD82B0CDE9000121F0004001906C
:105190009DED000B02B051EC100B704713B50448A5
:1051A00001224FF6FF736946FEF75AFA00981CBDBC
:1051B000C002002001207047024810B540688047B7
:1051C000012010BD00000020FCF7B4FDFFF714F82B
:1051D000FEF7CCFDFEF78CFDFEF71EFEFEF774FF1A
:1051E000FEF78EFFFEF792FEFEF7E2FEFEF750FF9F
:1051F000FEF74EFDFFF7E0FF00F09CF8294800F0B5
:105200000FF9294CE0612748103000F009F9254AD0
:10521000012120620846203200F042F9214A012192
:1052200060620846303200F03BF91E4A0221A0625B
:105230000846403200F034F91A4B0022E0620121A6
:105240001A48203B00F0D8F9164B0022606101217A
:105250001748103B00F0D0F9124A0221A061503AE1
:10526000C80100F0A3F80F4A0221E0601020383A8C
:1052700000F09CF80B4A002120610E48983A00F09B
:1052800067F9084A002160600B48743A00F060F941
:10529000A0600448503000F02BF8206300F066F85E
:1052A000FEE7000074710008580000200711000894
:1052B000091100083D410008A941000810B5EFF3AD
:1052C000058181B9EFF3108111B9EFF3118119B1A3
:1052D00006490968022906D04FF0000408B100F021
:1052E000F7FF204610BD6FF00504FAE7F800002034
:1052F0004FF0000110B5EFF30582BAB9EFF3108259
:1053000012B9EFF311821AB1094A1268022A0DD0BC
:1053100048B1D0E902202AB1202807D3104601F075
:10532000D7F802E010B901F0C5F80146084610BDF3
:10533000F8000020EFF3058070B9EFF310800A4900
:105340000028086802D1EFF311820AB1022803D0C5
:1053500028B14FF0FF3070476FF005007047012211
:105360000A60002070470000F800002010B5EFF33D
:10537000058078B9EFF310800B490028086802D146
:10538000EFF311820AB1022804D0012805D04FF0B2
:10539000FF3010BD6FF0050010BD0220086001F065
:1053A00005F8002010BD0000F8000020F8B51446F4
:1053B0004FF00005EFF305826ABBEFF3108212B9DC
:1053C000EFF311821AB1154A1268022A23D010B3E2
:1053D00009B3ACB1D4E902326BB1502A1BD32269B4
:1053E000CAB100FB01F66769B74214D300250095E6
:1053F00001F081F907E072B9226962B9626952B9B4
:10540000002201F052F9050005D00CB1216800E03E
:10541000002100F0F9FE2846F8BD0000F800002049
:1054200070B505464FF00004EFF30580A0BBEFF325
:10543000108010B9EFF3118018B1184800680228E5
:105440002AD00DB1686800E00020C10701D0012614
:1054500000E0002600071FD46DB1D5E9021021B18C
:10546000502819D31EB1042002E020B114E001201D
:1054700001F00EF905E00EB1042000E0012001F07A
:10548000FCF8040008D00DB1296800E0002100F00C
:10549000BBFE0EB144F00104204670BDF8000020B0
:1054A000F8B5144603460E464FF00005EFF30580AD
:1054B000E8BBEFF3108010B9EFF3118018B1234867
:1054C0000068022840D093B39E423DD84CB1A068FA
:1054D0000028E06803D0502836D3012002E008B14C
:1054E00032E00020012B05D010B3A268184601F06D
:1054F000A0F820E040B1032000900022A368012022
:10550000114601F0F8F804E003220021012001F027
:10551000CCF8050018D086B100231A46194601F0D0
:1055200071F9012809D0284600F082FE00250BE021
:10553000184601F05DF8050006D00CB1216800E0C6
:105540000021284600F060FE2846F8BDF800002043
:105550002DE9FF414FEA01034FF00005EFF305810C
:105560000395B1BBEFF3108111B9EFF3118119B1BC
:105570002049096802293BD058B34FF080074FF00B
:1055800018014FF000044AB3166806B13446966914
:105590001EB13146761E382E02D21679F60703D098
:1055A000002004B0BDE8F081566906B1B708D2F812
:1055B00008C0BCF1000F0DD0D568AC2D18D312690E
:1055C0003AB136B18DE806103A46214601F053FB58
:1055D00003900DE0D6685EB912694AB903AACDE915
:1055E0000012BAB2214601F019FB012800D0039540
:1055F0000398D6E7F80000202DE9FC411C46174629
:10560000884606464FF00005EFF3058088BBEFF3B0
:10561000108010B9EFF3118018B117480068022804
:1056200027D036B3082000F045FC030021D0B8F1A4
:10563000000FC3E9006713D05FF001020F4E4FF077
:1056400000008CB1216801B10846A16851B1E4683D
:105650002C2C0ED3CDE90061012101F0B7FC07E04D
:105660000022EBE7E16821B90121009601F094FCEA
:1056700005462846BDE8FC81F8000020B747000831
:105680002DE9F041154C0F4605460020666921685A
:1056900081F8AA002068001D00F0AAFC681C07D150
:1056A00037B12168BDE8F0410D48091D00F0F4BC98
:1056B00020683544B5424560216805D2A068091DBF
:1056C000BDE8F04100F0D0BC6068091D00F0CCFCE2
:1056D000206B854200D22563BDE8F081A800002040
:1056E0001C0B00202DE9F041054600F0E1FC2D4C9B
:1056F0002D4F2069401C2061206810B1E06930B353
:105700002BE025602069012827D1002606EB8600C2
:1057100007EB800000F09AFC761C382EF6D3234865
:1057200000F094FC2148143000F090FC1F48283011
:1057300000F08CFC1D483C3000F088FC1B485030C9
:1057400000F084FC194860601430A06005E0E86A4D
:105750002168C96A814200D82560E06A401CE06285
:10576000C5F89400E86AA169884200D9A06100EBFD
:105770008000291D07EB800000F08EFC00F0BCFCCF
:10578000E06900280CD02068E96AC06A884207D224
:1057900007494FF080500860BFF34F8FBFF36F8F02
:1057A000BDE8F081A80000206C060020CC0A002093
:1057B00004ED00E038B500F07BFC104CA068C8B9DF
:1057C0000F4800F043FC0E48143000F03FFC0C4939
:1057D000002021601431616001F11403009001F197
:1057E000640210210A2000F086FFA06010B105A11C
:1057F00000F00AFDBDE8384000F07EBCE400002067
:10580000300B0020546D72510000000030B4026C67
:105810000B46002A0BD0D0E902411144C160A142DD
:1058200001D30168C160184630BCFAF7A8BE30BC8D
:1058300070472DE9F041856B1746026C044600263F
:1058400082B1C7B1E068FAF79AFEE168206C22687D
:10585000091AE160914202D2A168081AE060022FA1
:1058600016D017E02068A8B9A06801F0B1FA064682
:105870000020A0600EE06068FAF781FED4E9010123
:10588000226C10446060884204D32068606001E0AC
:1058900005B16D1E6D1CA5633046BDE8F08110B5E5
:1058A000044690F8A90068B101280ED0022811D052
:1058B000502072B680F31188BFF34F8FBFF36F8F04
:1058C00062B6FEE7206B00F02DFC2046BDE81040DC
:1058D00000F028BC10BD000011484FF4705110B505
:1058E000420706D00E49C01D20F00700411AC1F53D
:1058F00070510C4C002301440839A4F1100221F02E
:105900000701C4E900030C1A11604B600B60C0E989
:10591000001494604FF000415460D16010BD00004D
:10592000A01300200C010020154E4FF08058154C9C
:10593000DFF85490A6F29C4712E000BF00F0B8FBDD
:10594000F068C568281D00F053FB2069401E2061E7
:10595000E068401EE06000F0CFFB2846FFF79FFFA5
:10596000E0680028EAD13868012805D9C9F8008024
:10597000BFF34F8FBFF36F8F00F066FBF0E70000BF
:10598000080B0020A800002004ED00E0002807D04C
:105990000021816001600B460A46C16000F032BF01
:1059A0007047000070B51D46049C51B1C4F800203A
:1059B000C4E90F010121204600F0D8FE84F84C50C4
:1059C00070BD2460F4E72DE9F05F88469A469100A7
:1059D0001546DDE90B940A9EA5228346206BFAF753
:1059E00013FE206B6FF0030101EB8501084420F0EA
:1059F0000707780709D0502072B680F31188BFF3EB
:105A00004F8FBFF36F8F62B6FEE7B8F1000F4FF014
:105A100000050ED00020221818F8001082F834106B
:105A200018F8001011B1401C6028F4D384F893508A
:105A300001E084F83450382E00D33726E662201D6A
:105A4000C4E9276500F00DFB04F1180000F009FB24
:105A5000C4F8A450C6F13800A06184F8A85052469A
:105A600084F8AA50594624613846646200F0A8FAC6
:105A7000B9F1000F206001D0C9F80040BDE8F09FE7
:105A80002DE9F0470D001E4617468046DDE90894D3
:105A900016D0002C12D0FFF78DFE04F11801C4F8C7
:105AA0000080201D81E8600200F0DBFA002F05D0A5
:105AB00094F8280040F0040084F82800BDE8F0873E
:105AC000502072B680F31188BFF34F8FBFF36F8FF2
:105AD00062B6FEE730B5114900E011460A6882421D
