:020000040800F2
:10000000505C002071030008773E00081B35000893
:10001000753E0008C91000087D4900080000000076
:10002000000000000000000000000000AD02000819
:10003000891100080000000009030008053F0008BE
:100040008B0300088B0300088B0300088B03000858
:100050008B0300088B0300088B0300088B03000848
:100060008B0300088B0300088B0300088B03000838
:100070008B030008D11000088B030008DD10000876
:10008000E9100008F5100008850F00088B03000830
:100090008B0300088B0300088B0300088B03000808
:1000A0008B0300088B0300088B0300088B030008F8
:1000B0008B0300088B0300088B0300088B030008E8
:1000C0008B0300088B0300088B0300088B030008D8
:1000D0008B0300088B030008714900088B0300089C
:1000E0008B0300088B0300088B0300088B030008B8
:1000F0008B0300088B0300088B0300088B030008A8
:100100008B0300088B0300088B0300088B03000897
:100110008B0300088B0300088B0300088B03000887
:10012000011100088B0300088B0300088B030008F3
:100130008B0300088B0300088B0300088B03000867
:100140008B0300088B0300088B0300088B03000857
:100150008B0300088B0300088B0300088B03000847
:100160008B0300088B0300088B0300088B03000837
:100170008B0300088B0300088B03000800000000BD
:100180008B0300088B0300088B0300088B03000817
:100190008B0300088B0300088B0300088B03000807
:1001A0008B0300088B0300088B0300088B030008F7
:1001B0008B0300088B0300088B0300088B030008E7
:1001C0008B0300088B030008000000008B0300086D
:1001D0008B0300088B0300088B0300088B030008C7
:1001E0008B0300088B0300088B0300088B030008B7
:1001F0008B0300088B03000800F002F800F046F8BB
:100200000AA090E8000C82448344AAF10107DA4571
:1002100001D100F03BF8AFF2090EBAE80F0013F07D
:10022000010F18BFFB1A43F0010318479068000044
:10023000B0680000103A24BF78C878C1FAD85207D5
:1002400024BF30C830C144BF04680C607047000050
:100250000023002400250026103A28BF78C1FBD8CF
:10026000520728BF30C148BF0B607047002070475D
:100270001FB506F02FFB9DE8030000F075FC00F0B1
:1002800067FA1FBD10B500F0CCFA10BD00F02FFBCF
:100290001146FFF7EDFF04F099FB00F033FC03B4C7
:1002A000FFF7F0FF03BC00F0D1FD00002D4B1968F3
:1002B0000868B0E8F04F80F30988BFF36F8F4FF004
:1002C000000080F3118870470000000008480068B3
:1002D000006880F308884FF0000080F3148862B64D
:1002E00061B6BFF34F8FBFF36F8F00DF00BF00BF5A
:1002F00008ED00E0DFF80C00016841F470010160D6
:10030000704700BF88ED00E0EFF30980BFF36F8F07
:10031000144B1A681EF0100F08BF20ED108A20E958
:10032000F04F106009B44FF0500072B680F311889E
:10033000BFF34F8FBFF36F8F62B605F089FC4FF0AC
:10034000000080F3118809BC19680868B0E8F04F14
:100350001EF0100F08BFB0EC108A80F30988BFF3BD
:100360006F8F704764000020EFF305807047000036
:100370000948804709480047FEE7FEE7FEE7FEE739
:10038000FEE7FEE7FEE7FEE7FEE7FEE70448054975
:10039000054A064B70470000DD3F0008F9010008E0
:1003A00050500020505C0020505400205054002039
:1003B00053EA020C00F069802DE9F04B4FF0000683
:1003C000002B1FBFB3FA83F503FA05F424FA05F6F0
:1003D0005E4012BF1643B2FA82F502FA05F4C5F187
:1003E00020051EBF22FA05FC44EA0C04203556EA1B
:1003F000044C4FEA144418BF641C4FF000084FF03F
:100400000009904271EB030C39D3002919BFB1FAEE
:1004100081F701FA07F6B0FA80F700FA07F6C7F19C
:1004200020071EBF20FA07FC46EA0C062037B6FB61
:10043000F4FCA7EB0507103F07F01F0BCBF12006DC
:100440000CFA0BFB2CFA06F644BFB3460026202F0D
:10045000A4BF5E464FF0000B5BEA060C08BF4FF0EE
:10046000010B19EB0B09ABFB027C48EB0608C01B28
:1004700006FB02CC0BFB03CC71EB0C01C1E70B4676
:10048000024641464846BDE8F08B13B54FF00000E8
:100490004FF00001AFF30080BDE81C407047000042
:1004A0000FB4044910B503AA029800F0E7F810BC95
:1004B0005DF814FB484F00202DE9F0410E4604463C
:1004C000002020622046E168884730B3252805D007
:1004D000D4E901219047206A401CF2E7E1682046F8
:1004E00000278847050018D0A5F14100192802D837
:1004F00020354FF400673246294620462760FFF733
:10050000B5FE40B1012804D0F61D26F007060836D6
:10051000D8E7361DD6E72846DAE7206ABDE8F0813D
:1005200010B5431C02E010F8011B71B18107FAD12C
:100530004FF0013202C88C1A8C4314EAC211F9D070
:10054000C01A0A0603D0C01E10BDC01A10BD0A048E
:1005500001D0801E10BD0902FCD0401E10BD032A30
:1005600040F2308010F0030C00F0158011F8013BD0
:10057000BCF1020F624498BF11F801CB00F8013BB7
:1005800038BF11F8013BA2F1040298BF00F801CB7B
:1005900038BF00F8013B11F0030300F08180083AF6
:1005A000C0F0088051F8043B083A51F804CBA0E8A9
:1005B0000810F5E7121D5CBF51F8043B40F8043BFE
:1005C000AFF30080D20724BF11F8013B11F801CB33
:1005D00048BF11F8012B24BF00F8013B00F801CB04
:1005E00048BF00F8012B704702F0FF0343EA0322E3
:1005F00042EA024200F088B84FF0000200B513460C
:1006000094469646203922BFA0E80C50A0E80C5032
:10061000B1F12001BFF4F7AF090728BFA0E80C50E3
:1006200048BF0CC05DF804EB890028BF40F8042BDC
:1006300008BF704748BF20F8022B11F0804F18BF49
:1006400000F8012B704770477047704701694A1CDA
:1006500002610878704700B58FB0CDE90131002103
:10066000059105497944CDE9031011466846FFF725
:1006700023FF0FB000BD0000E5FFFFFF074B70B583
:100680000D467B44FFF7E7FF0446284600F05CF880
:1006900010B14FF0FF3070BD204670BD1B4300000D
:1006A00010B5203AC0F00B80B1E81850203AA0E80D
:1006B0001850B1E81850A0E81850BFF4F5AF5FEA41
:1006C000027C24BFB1E81850A0E8185044BF18C9F4
:1006D00018C0BDE810405FEA827C24BF51F8043B9B
:1006E00040F8043B08BF7047D20728BF31F8023BEF
:1006F00048BF11F8012B28BF20F8023B48BF00F883
:10070000012B70474FF000020429C0F0128010F056
:10071000030C3FF473AFCCF1040CBCF1020F18BF13
:1007200000F8012BA8BF20F8022BA1EB0C01FFF76A
:1007300065BF5FEAC17C24BF00F8012B00F8012BE4
:1007400048BF00F8012B7047007B00F08000704725
:1007500010B542485421FFF74FFF41485421FFF79D
:100760004BFF40485421FFF747FF3F493B483C4A75
:100770003F4B08603D490A603A491960531C0365C4
:10078000481C1065012008653B48344A39A178446B
:1007900000F01CF920B9384878440A3800F0BBF959
:1007A00037482F4A35A1784400F010F920B9344871
:1007B00078440A3800F0AFF932482A4A2FA1784429
:1007C00000F004F920B92F4878440A3800F0A3F962
:1007D00040232248DC000021224600F0D4F820B15A
:1007E00025487844543800F096F91D4822464023A5
:1007F000002100F0C8F820B121487844543800F0B6
:100800008AF9184822461023002100F0BCF800287D
:1008100006D01C487844BDE81040563800F07BB93B
:1008200010BD104870B5006D20F001040B4800F0B9
:1008300043F90B4800F040F90A4800F03DF909E09F
:10084000206D20F00105204600F036F9204600F02A
:1008500073F82C46002CF3D170BD0000F44E00203C
:10086000484F00209C4F0020DC000020E0000020CA
:10087000E4000020720000006662000077000000C3
:10088000526200003E6200000EB5CDE90001FFF7A4
:1008900047FE029069460120ABBE0EBD08B5694611
:1008A00000900220ABBE08BD1FB58DE80700694669
:1008B0000520ABBE04B010BD1FB58DE80F00694622
:1008C0000620ABBEF6E708B5694600900920ABBE2E
:1008D00008BD1CB5CDE9000169460A20ABBE1CBDB0
:1008E000704708B5694600900C20ABBE08BD754640
:1008F00000F018F9AE4605006946534620F007009F
:10090000854618B020B5FFF741FDBDE820404FF007
:1009100000064FF000074FF000084FF0000B21F0E9
:100920000701AC46ACE8C009ACE8C009ACE8C009B6
:10093000ACE8C0098D46704770B50446051F00F04D
:10094000F7F80068002C14BF446870BD002C18BF75
:10095000AC423CBF20466468F8D301680A18AA423A
:1009600018BF456003D12A68054611440160286814
:100970004119A1421CBF6C6070BD6168696021684B
:100980000844286070BD70B5C468A50713D065021F
:1009900011D4B2F5807F09D0B2F5007F06D0B2F550
:1009A000806F08D1012300F1240106E05D1E6FF085
:1009B0007F46B54201D3012070BD0161C361416032
:1009C00024F470611143C160002070BD2DE9F04135
:1009D0000C4607461646104600F06EF82078611C5B
:1009E00061280AD0722802D077283CD102E0012584
:1009F000002405E00225042402E0082448F2020550
:100A000011F8010B2B2806D0622809D011F8010C2F
:100A100074280AD00BE045F0030544F00204EFE728
:100A200045F0040544F00104EAE744F010043846B8
:100A30002146FFF729FF411C15D00021316171606B
:100A40004FF40071F560F1617061200704D5304604
:100A50000222002100F0E6F8306D40F00100306520
:100A60003046BDE8F0810020FBE72DE9F0410D465E
:100A70000646104C206DC10704D0410804D020F078
:100A80000104F7E722460EE0542000F09CF807002E
:100A90000ED0206D47F001010843542120653846EF
:100AA000FFF7AAFD3A4629463046BDE8F0418DE7FA
:100AB0000020D6E7F44E00202DE9F04704464FF021
:100AC00000094FF0FF37C568D4E90486A80707D0AE
:100AD000204600F057F93046FFF7E0FE002802DA22
:100AE0003846BDE8F087280502D54046FFF724FFC9
:100AF0004C212046FFF780FD206D20F0010020658D
:100B00004846EEE710B50446AFF300802046BDE846
:100B10001040FFF7C4BB10B500F07EF9BDE81040EF
:100B200000F074B900487047F04F00207047000093
:100B300000487047F84F0020704770477047704773
:100B400038B504460A4600206946AFF30080002805
:100B500008BF38BD02460099204600F084F9012004
:100B600038BD012000F0D3B9F8B5AFF300800546D9
:100B700000200C46102000BF0646A819A0420DD93F
:100B8000324669460020AFF30080070008BF00F03E
:100B9000BEF90098A04218BF0546C419FFF7C8FF68
:100BA00005600746F01D20F007004619284600F0B2
:100BB00053F9B44208BFF8BDA21B31463868BDE8FE
:100BC000F84000F050B970B50646FFF7B1FF056870
:100BD00006F10B0020F00704B4429CBF002070BD5A
:100BE0002B466A68BAB11068A04210D304F108011C
:100BF00088423CBF5068586007D351681019416063
:100C00001168091B016058601460101D70BD134607
:100C10005268002AE7D121462846FFF791FF0028B5
:100C2000DED170BD2DE9F041044616460D464769F8
:100C3000007B80072ED03846FFF745FE50BB3EB301
:100C4000012E02D0022E25D104E0204600F025F925
:100C500005441DE03846FFF744FEE168002841F0F6
:100C60001001E16005DA204600F058F80120BDE8E7
:100C7000F081C9030BD56268E16A914200D8114640
:100C8000A26911442269891A814200DD084605449F
:100C9000002D01DA0220EAE7E16A6068E268814239
:100CA00006D29103E06203D522F4003141F0100234
:100CB000A6690027AE4213DCE16A814201D90B46E6
:100CC00000E0034603EB060C2369ACEB030CAC45D8
:100CD00006DD814201D98C4600E084469C4505D161
:100CE000A760276042F02000A5620DE0AD1BE66919
:100CF000AE1B8142A66000D90846C01A281A20609F
:100D00005819606022F0200003490840E06000208C
:100D100084F84870ABE70000BFCFD7FFC16821F46B
:100D2000001141F08001C1600021816001607047C5
:100D30002DE9F047814614460E464FF0FF38324801
:100D4000D5685769054209D03846A169FFF7C1FD4A
:100D5000002811DB2C48C0430540E5602B46324695
:100D600049463846FFF7A0FDA16920F00042B21ABB
:100D700011440028A16103D02046FFF7CFFF404671
:100D8000BDE8F08770B504460569C06A61688842AD
:100D900000D80846E16821F42011E160C90312D5AA
:100DA000A84208D02246411B2846FFF7C1FF10B1D8
:100DB0004FF0FF3070BD0020E562C4E90150E068EB
:100DC00020F48030E060002070BD10B50446C0689B
:100DD00020F02000E060A16AA06988420DD0204682
:100DE000FFF7D0FFE06820F4405040F01000E060D2
:100DF000A06AA0612069E062606044F24001E0689E
:100E00008843E06010BD000010000200002801D0FF
:100E100000F01CB87047000010B5014602A000F0B9
:100E20005DF8012010BD000053494752545245441B
:100E30003A2052656469726563743A2063616E2773
:100E400074206F70656E3A20000000000149182080
:100E5000ABBEFEE72600020000210160C0E90110E0
:100E6000704710207047034640688C46002818BF22
:100E700088423CBF03464068F8D31868184488424B
:100E800007D00CF1030020F00700001D411A521A90
:100E90000146081D0A60FFF74FBD10B50146C26844
:100EA000900703D0900607D5886A0AE000F03EF864
:100EB00001210160881E10BD8B69486818440B69C8
:100EC000C01A91F848301BB191F84910401A10BD72
:100ED0001103FCD50028FADD401E10BD70B5054693
:100EE0000C460A2000E06D1C00F018F835B1287897
:100EF0000028F8D102E0641C00F010F814B120784A
:100F00000028F8D1BDE870400A2000F007B810B5FD
:100F100000F010F8BDE81040FFF778BF08B569464B
:100F20008DF800000320ABBE08BD000000487047EC
:100F3000F04F002010B5012805D0002103A0FFF7D5
:100F4000CDFF012010BD09A1F8E700005349475229
:100F5000544D454D3A204F7574206F662068656189
:100F600070206D656D6F7279000000003A20486551
:100F70006170206D656D6F727920636F727275702C
:100F800074656400014800F0E5B90000E800002045
:100F90004A496FF0706210B5D1F8043323F440333E
:100FA000C1F80433D1F8043344682343C1F804334F
:100FB00001684B6823F480734B60016803694C68D7
:100FC00044EA03234B6001684B6823F040734B6095
:100FD000016884684B6823434B6001688B6823F485
:100FE00000638B600168C4688B6823438B60816AEF
:100FF000D14201688A6822F070628A6001680DD06F
:10100000836A8A681A438A6001688A6822F04052BB
:101010008A600168C36A8A681A4302E08A6822F01B
:1010200040528A6001688A6822F002028A60016880
:1010300082698B6843EA42028A6090F82010002996
:10104000016811D01E4A4B6843F400634B6001688D
:101050004B6823F460434B600168446A4B6802EBC1
:10106000443213434B6003E04A6822F400624A6052
:101070000168144BCA6A22F47002CA620168848B48
:10108000CA6A03EB04531A43CA6201688A6822F4ED
:1010900000728A60016890F830208B6843EA42222F
:1010A0008A6001688A6822F480628A600168406907
:1010B0008A6842EA8020886010BD0000002001405C
:1010C00000E0FFFF0000F0FFFEE770477047000000
:1010D000014800F0B1BA000000040020014800F00F
:1010E000ABBA000060040020014800F0A5BA00007F
:1010F000C0040020014800F09FBA00002005002035
:10110000014800F099BA0000A003002001681823EC
:10111000CAB2103AB2FBF3F2054B6FF30901032A8E
:101120009B5CC36500D9091D8165084670470000B6
:10113000D869000810B583694FF0C074826A01460F
:10114000002053B1B3F5005F15D072B1012A0CD065
:10115000022A0AD0032A09D104E01AB1012A06D0D2
:10116000022A03D1C96AC90100D5012010BDC96A8C
:10117000A142FAD010BD002AF7D0012AF2D0022AEB
:10118000F3D0032AF3D010BD704772B6FEE7704764
:10119000F8B50025009590F83C20012A1DD00122C9
:1011A00080F83C20664C0723D6070A68092A22D912
:1011B000B24220D007680A3A02EB420CFA6803FAFE
:1011C0000CF39A43FA600A68A24208D102680B7ACB
:1011D000D76847EA0363D36022E00220F8BD0768BE
:1011E0000A3A8B6802EB4202D7F80CC0934043EAFC
:1011F0000C03FB6014E0076802EB4202D7F810C052
:1012000093402CEA030CC7F810C003680F788A6873
:10121000D3F810C007EB4707BA4042EA0C021A6144
:101220004A681F23072A16D20768521E02EB820C57
:101230007A6B03FA0CF39A437A6303680F790A888E
:101240007F1ED3F834C092B207EB8707BA4042EA58
:101250000C025A632DE007680D2A15D2D21F02EB4B
:10126000820C3A6B03FA0CF39A433A6302680F79E3
:101270000B88FF1FD2F830C09BB207EB8707BB403B
:1012800043EA0C03136314E00D3A02EB820CFA6A92
:1012900003FA0CF39A43FA6203680F790A880D3F48
:1012A000D3F82CC092B207EB8707BA4042EA0C028F
:1012B000DA62244A0368934208D10B68B34205D12D
:1012C000D2F8043323F44003C2F804330368934292
:1012D0000ED10B68122B0BD1D2F8043323F4000388
:1012E000C2F80433D2F8043343F48003C2F8043361
:1012F0000368934220D10B68A34201D0112B1BD16C
:10130000D2F8043323F48003C2F80433D2F8043350
:1013100043F40003C2F804330968A1420CD10A491E
:101320000A4A0968B1FBF2F101EB8101490000E0D2
:10133000491E00910029FBD180F83C500020F8BDE7
:1013400012000010002001406000002040420F0009
:101350007047704770B5044600680668456816F027
:10136000020F05F020012AD049B3216CC90603D42D
:10137000216C41F400712164816811F0405F17D144
:10138000A169A9B9C16A11F4700F02D08168490539
:101390000ED4416821F020014160206C20F480705F
:1013A0002064206CC00403D4206C40F00100206451
:1013B0002046FFF7CDFF21686FF01200086016F09D
:1013C000040F05F0800132D089B3206CC00603D42D
:1013D000206C40F4005020642068816811F4401FA4
:1013E0001ED1816B11F4401F02D08168490517D4CA
:1013F0004168490514D4816811F0405F10D1A1699A
:1014000071B9416821F080014160206C20F4805066
:101410002064206CC00503D4206C40F001002064DF
:101420002046FFF7B4FE21686FF00C00086016F04C
:10143000010F05F040010FD071B120680068C007AE
:101440000AD0206C40F480302064204600F043F83D
:1014500021686FF00100086016F0200F05F0806130
:101460000ED000290CD0606C6FF0200540F0020017
:101470006064206805602046FFF76BFF2068056008
:1014800070BD70B504004FF0000503D0206C00263D
:1014900010B107E0012070BD204600F01DF8666421
:1014A00084F83C60206CC00610D4206C20F4885076
:1014B00040F0020020642046FFF76AFD6664206C5D
:1014C00020F0020040F00100206400E0012584F8D3
:1014D0003C60284670BD704770B586B00646142142
:1014E0006846FFF789F82149306888423BD1204897
:1014F000016841F480710160006800F4807005901B
:101500001B481438016841F00101016000680025A2
:10151000032100F00100059080208DE8230015488C
:10152000694600F0CBF9144C14480115C214C4E903
:10153000000504F11400A560CB00C4E9035180E864
:101540002C0025622046656200F046F908B1FFF7DD
:101550001CFEB46300220521A663122000F040FBAC
:10156000122000F02FFB06B070BD000000200140EB
:101570004438024000000240A003002010640240F2
:101580002DE9F041876D044600F0C6FA064694F84E
:1015900035000025022806D080206065012084F8EF
:1015A0003450BDE8F0812068016821F01601016027
:1015B0002068416921F080014161206C08B9A06C6C
:1015C00020B12068016821F00801016020680168ED
:1015D00021F0010101600CE000F09EFA801B05285B
:1015E00007D920216165032084F8350084F8345040
:1015F000D7E720680068C007EED194F85C203F2050
:1016000001219040B86084F83510002084F83450EF
:10161000C7E790F83510022903D0802141650120E9
:101620007047052180F835100068016821F001013C
:1016300001600020704700002DE9F84304464FF098
:101640000009644B0820CDF800904FF41652A56DA8
:1016500094F85C101B682E68B3FBF2F700FA01F1F6
:1016600031420FD021680A6852070BD50A6822F070
:1016700004020A6094F85C108840A860606D40F035
:101680000100606594F85C104FF0010808FA01F061
:10169000304208D021684969090604D5A860606D08
:1016A00040F00200606594F85C10042088403042ED
:1016B00008D021680968890704D5A860606D40F0EA
:1016C0000400606594F85C1010208840304218D007
:1016D00021680968090714D5A860206801684903D2
:1016E00004D50068000308D5A16C07E00168C905AE
:1016F00003D4016821F008010160216C09B1204682
:10170000884794F85C1020208840304231D021680E
:101710000968C9062DD5A86094F835000528206809
:10172000016806D0490347D5006800031DD4616CE9
:101730001CE021F0160101602068416921F0800160
:101740004161206C08B9A06C20B12068016821F0CB
:101750000801016094F85C303F229A40AA6084F846
:10176000358084F83490216D1FE0E16B09B120468B
:101770008847606D00282BD0606DC00714D005200D
:1017800084F835002068016821F0010101600098AB
:10179000401C0090B84203D820680068C007F6D10A
:1017A00084F8358084F83490E16C002910D001B0C1
:1017B0002046BDE8F04308470168C905D5D4036851
:1017C00023F01003036084F8358084F83490CCE76C
:1017D000BDE8F883600000202DE9F047044600F0E2
:1017E0009BF9054664B102214FF0000984F83510D9
:1017F00084F834902068016821F0010101600EE056
:101800000120BDE8F08700BF00F086F9401B0528E5
:1018100005D920216165032084F83500F1E72068AF
:101820000068C007F0D1D4E90020D4E90251D4E91E
:10183000043C284304F1180519430843116895E84E
:10184000E00140EA0C001C4B2843194040EA060026
:1018500040EA0700B8F1040F40EA010003D1D4E9DF
:101860000B1319430843106020680126656A40691C
:10187000042D20F0070045EA00050CD1D4E90A0147
:10188000054341B12046FFF755FC20B1402060657B
:1018900084F83560B4E7206845612046FFF736FCE0
:1018A00094F85C303F229A408260C4F8549084F8E7
:1018B00035600020A5E700003F8010E02DE9F84FDB
:1018C000DFF80CB2012403254FF00F0A00220BF1C0
:1018D000040E00BF0B6804FA02F63340B34278D11D
:1018E0000F7907F00307012F01D0022F1AD1876863
:1018F0004FEA4209D1F80CC005FA09F827EA0807AF
:101900000CFA09FC4CEA070CC0F808C0476891F8CB
:1019100004C0B743CCF3001C0CFA02FC4CEA070CE1
:10192000C0F804C00E79F643B6070BD0C6684FEA7C
:10193000420C8F6805FA0CF826EA080607FA0CF73D
:101940003743C7600E7906F00306022E12D1D6087F
:101950004FEA427800EB860600960F69D6F8209091
:101960004FEAD8660AFA06FCB74029EA0C06374364
:10197000009E37620F7906684FEA420C07F00307B2
:1019800005FA0CF807FA0CF726EA08063743076051
:101990004E6816F4403F1CD04E4E376847F48047DF
:1019A0003760366822F00308970706F480460096F1
:1019B000494E3F0F4644B146D6F80868DFF81C810F
:1019C0000AFA07FC404526EA0C0603D14FF0000C4A
:1019D00041E076E0DFF808C1604502D14FF0010C2C
:1019E00039E0DFF800C1604502D14FF0020C32E06F
:1019F000DFF8F4C0604502D14FF0030C2BE0DFF8B4
:101A0000ECC0604502D14FF0040C24E0DFF8E0C0E8
:101A1000604502D14FF0050C1DE0DFF8D8C06045ED
:101A200002D14FF0060C16E0DFF8CCC0604502D1C1
:101A30004FF0070C0FE0DFF8C4C0604502D14FF053
:101A4000080C08E0DFF8B8C0604502D14FF0090C7F
:101A500001E04FF00A0C0CFA07FC4CEA060CC9F83E
:101A600008C84F68DBF80060FF0226EA030600D5CD
:101A70001E437746CBF80060D1F804C0DEF8006062
:101A80005FEA8C2C26EA030600D51E43DFF840C02F
:101A90003E60ACF1040C4F68DCF80060BF0326EA3E
:101AA000030600D51E430A4FCCF80060083FD1F86A
:101AB00004C03E685FEACC3C26EA030600D51E431C
:101AC0003E60521C102AFFF405AFBDE8F88F0000FD
:101AD000083C014044380240003001400000024010
:101AE0000004024000080240000C024000100240C6
:101AF0000014024000180240001C02400020024076
:101B0000002402400069084000D0012070470AB15B
:101B1000816170470904FBE7014880687047000055
:101B200054000020024881680278114481607047A7
:101B300054000020032010B500F072F80F2000F0D0
:101B400005F800F023F8002010BD000070B50D4D21
:101B500004464FF47A700C4A29781268B0FBF1F011
:101B6000B2FBF0F000F0F8FD48B9102C07D20022CB
:101B70002146501E00F034F800206C6070BD01203A
:101B800070BD000054000020600000200C4882B0AE
:101B9000016841F080510160006800F080500090C1
:101BA0000748001D016841F480410160006800227F
:101BB0000F2100F480400090901E02B000F010B899
:101BC00040380240002809DB410900F01F0289006B
:101BD000012001F1E0219040C1F8000170470000B0
:101BE0000E4BF0B41B680D46C3F30223C3F1070686
:101BF000042E00D90426191D072901D2002300E074
:101C0000DB1E012404FA06F19C40491E2940641E93
:101C1000994014402143F0BC02F0B1BE0CED00E04D
:101C2000064900F0070210B54FF6FF040868044BA0
:101C3000204040EA02201843086010BD0CED00E08F
:101C40000000FA051848F8B5016841F080510160BC
:101C50000068164C00F080500090206840F48030FE
:101C60002060FFF759FF4FF47A76054605E000BF84
:101C7000FFF752FF401BB0420FD86068C003F7D592
:101C8000206840F400302060FFF746FF054606E07C
:101C9000FFF742FF401BB04201D90320F8BD606846
:101CA0008003F5D50020F8BD4038024000700040A8
:101CB0002DE9F84F04460078DFF824944FF0000631
:101CC0003746C0070ED0D9F8001021F40001C9F83A
:101CD0000010D9F80010626B1143C9F80010606B56
:101CE00000B90126FE4D2068843500030ED5E16B56
:101CF000286820F4401008432860E06BB0F5801F8E
:101D000001D010B102E0012600E0012720684FF465
:101D1000800BC0020CD5216C286820F440000843D9
:101D20002860206C584501D1012601E000B9012747
:101D30002068C10100D50126800666D5E848383004
:101D4000016841F0805101600068DFF898A300F05D
:101D500080500090DAF8001041F48071CAF8001049
:101D6000FFF7DAFE804605E0FFF7D6FEA0EB08009D
:101D700064287DD8DAF80000C005F5D5DFF8608367
:101D800008F16808D8F8000010F440702AD0218EBD
:101D900001F44071814225D0D8F80010D8F8002015
:101DA00021F4407142F48032C8F80020D8F80020B5
:101DB00022F48032C8F80020C8F80010D8F80000DB
:101DC000C0070FD0FFF7A8FE824607E0FFF7A4FE8A
:101DD000A0EB0A0141F288308142CAD8D8F800004D
:101DE0008007F3D5206BC0F3012103297ED0D9F8F9
:101DF000001021F4F811C9F80010228ED8F8001054
:101E0000C2F30B021143C8F800102078C00607D5B2
:101E1000286820F0807028602868A16B084328603B
:101E20002188AF488830490405D5626E016821F4E5
:101E30004031114301602188090405D5A26E016873
:101E400021F44021114301602168C90305D5E26EE8
:101E5000016821F44011114301602168890305D50F
:101E6000226F016821F4400111430160217800E0F4
:101E700034E1490605D5626C016821F00301114384
:101E800001602178090605D5A26C016821F00C01DA
:101E9000114301602188C90505D5E26C016821F074
:101EA0003001114301602188890505D5226D016843
:101EB00021F0C001114301602188490505D5626DFB
:101EC000016821F44071114301602188090505D59D
:101ED000A26D016821F44061114301602188C904A9
:101EE00007D5E26D016821F4405100E068E011433C
:101EF00001602188890405D5226E016821F44041E2
:101F0000114301602168490205D5A26F016821F0E3
:101F100080611143016021684FF0006A890209D590
:101F2000E26F016821F0006111430160E16F5145EA
:101F300000D1012721680A0700D50127490305D5EB
:101F4000626F016821F0407111430160216809024C
:101F500006D5D4F88020016821F08051114301603A
:101F60002168490106D5D4F88420016821F0005188
:101F7000114301602068000106D5D4F88810286854
:101F800020F00070084328602068C00006D5D4F80F
:101F90008C10286820F0806008432860DFF84891A2
:101FA000012E02D0206880017ED5D9F800004E466F
:101FB00020F08060C9F80000FFF7AEFD80460FE01A
:101FC0004A4AD9F80030104023F4F8120243C9F805
:101FD000002012E7FFF7A0FDA0EB080064287DD8E1
:101FE00030680001F6D421783D487C30C90712D012
:101FF000616B81B9237A62680168D0F800C09201F0
:10200000C1F3014142EA0142CCF3036142EA0161BA
:1020100041EA0371016021680A0303D5E26BB2F55E
:10202000801F04D0C9021AD5216C594517D16368A5
:10203000016894F80CC002689B01C1F3014143EAB6
:102040000141C2F3027241EA0C6141EA027101608E
:102050002968626A21F01F01521E1143296021681C
:10206000C90110D5238A62680168D0F800C09201C6
:10207000C1F3036142EA034242EA0162CCF3027116
:1020800042EA01710160216889010CD56168228AE8
:10209000237B94F808C0890141EA024141EA0361C7
:1020A00041EA0C71016000E011E03168B04641F096
:1020B00080613160FFF730FD064604E0FFF72CFD3C
:1020C000801B64280AD8D8F800000001F6D5E7B3D1
:1020D000D9F800004E4620F0805009E07BE0000077
:1020E000083802400070004000380240FFFCFF0F3B
:1020F000C9F80000FFF710FD074604E0FFF70CFDEC
:10210000C01B642867D83068C0438000F6D52168BA
:1021100035480A0301D5E26B1AB1C9021DD5216CFD
:10212000D9B963690168277E02689B01C1F3014147
:1021300043EA0143C2F3027143EA076242EA0171D2
:10214000016029686FF0FF0300E04BE0A26A21F410
:10215000F85103EB0222114329602168890212D54C
:10216000E16F51450FD1238C6269016807689201C4
:10217000C1F3036142EA034242EA0162C7F302711A
:1021800042EA017101602178090716D56169026888
:10219000D0F800C08B01277FC2F30362CCF301416A
:1021A00043EA014141EA026141EA0771016028689E
:1021B000E16A20F4403008432860306840F08050E5
:1021C0003060FFF7A9FC044608E000BFFFF7A4FC5D
:1021D000001B642802D90320BDE8F88F3068C04393
:1021E0008000F3D40020F7E7883802402DE9F0475B
:1021F00005000F4663D0444E306800F00F00B8422F
:1022000009D2306820F00F0038433060306800F0A9
:102210000F00B84253D128683C4C810712D54007C3
:1022200003D5206840F4E05020602878000703D5EB
:10223000206840F460402060A968206820F0F00029
:10224000084320602878C0072AD0304968680839D8
:10225000012810D00968022810D0890700292EDA39
:10226000216821F0030101432160FFF755FC8046FE
:1022700041F288390DE009688903EFE78901EDE74C
:10228000FFF74AFCA0EB0801494502D90320BDE84D
:10229000F0876868216801F00C01B1EB800FEFD185
:1022A000306800F00F00B8420BD9306820F00F0002
:1022B00038433060306800F00F00B84201D0012090
:1022C000E5E72878400705D5E968206820F4E05064
:1022D000084320602878000706D52869216821F482
:1022E000604141EAC000206000F038F82168084AE7
:1022F000C1F30311515CC8400649086006480068F4
:10230000FFF724FC0020C2E7003C024008380240EE
:10231000E0690008600000205800002004490548DA
:1023200009680068044AC1F38221515CC8407047C3
:102330000838024060000020F069000804490548A0
:1023400009680068044AC1F34231515CC8407047D3
:102350000838024060000020F0690008154910B5F7
:102360001548096811F00C0213D01449042A0FD043
:10237000082A0ED10F4C241F2268236802F03F0266
:102380005B0207D52068C0F38810A0FB010106E0BE
:10239000084610BD2168C1F38811A1FB000100238C
:1023A000FEF706F82168C1F30141491C4900B0FB62
:1023B000F1F010BD083802400024F40040787D019F
:1023C0002DE9F84F04004FF000076ED02078DFF8B9
:1023D0007CA3AAF10408C007A8F104054CD0DAF8E0
:1023E00000105046C1F38101012908D00068C0F3F4
:1023F000810002280AD1D8F80000400206D52868DA
:10240000800339D560680028DFD035E06068B0F51A
:10241000803F0BD010B1B0F5A02F11D0286820F468
:1024200080302860286820F4802002E0286840F48A
:1024300080302860606890B1FFF76EFB06460AE0C6
:10244000286840F480202860F0E700BFFFF764FBB5
:10245000801B642872D828688003F7D50CE0FFF74A
:102460005BFB064605E000BFFFF756FB801B6428B8
:10247000F0D828688003F7D42078800742D5DAF8AE
:102480000010504611F00C0F08D00068C0F3810016
:1024900002280BD1D8F80000400207D42868800732
:1024A00018D5E068012800D114E04AE1E06800286E
:1024B000286817D040F001002860FFF72DFB064682
:1024C00005E000BFFFF728FB801B0228C2D8286860
:1024D0008007F7D52069296821F0F80141EAC0009A
:1024E00028600FE020F001002860FFF715FB06468A
:1024F00005E000BFFFF710FB801B02281ED82868EC
:102500008007F7D42078000729D5904861696C309E
:1025100000298146016812D041F001010160FFF7F6
:10252000FBFA064605E000BFFFF7F6FA801B02281B
:1025300004D8D9F800008007F6D510E089E021F032
:1025400001010160FFF7E8FA064604E0FFF7E4FA4C
:10255000801B02287DD8D9F800008007F6D42078A7
:1025600040076BD5DFF8E49109F13809D9F800008C
:10257000C0000BD4D9F8001041F08051C9F8001008
:10258000D9F80000012700F08050009070480168E1
:10259000C90512D40168834641F480710160FFF7D8
:1025A000BBFA064605E000BFFFF7B6FA801B6428B9
:1025B0004FD8DBF80000C005F6D5644EA068683639
:1025C00001280AD008B1052811D0306820F0010098
:1025D0003060306820F0040002E0306840F0010014
:1025E0003060A068A0B1FFF797FA83460CE030682E
:1025F00040F004003060F0E7FFF78EFAA0EB0B012B
:1026000041F28830814268D830688007F4D50EE006
:10261000FFF782FA834607E0FFF77EFAA0EB0B0193
:1026200041F28830814258D830688007F4D42FB105
:10263000D9F8001021F08051C9F80010A069E0B36A
:10264000DAF80010C1F3810102294DD00228286870
:1026500000E042E020F08070286003D0FFF75CFAD1
:1026600004463DE0FFF758FA064604E0FFF754FA47
:10267000801B022831D828688001F7D4D4E90921C9
:10268000DFF8D0C0D4E9070694F830304F0894F84A
:102690002C1030430CEB074444EA8212104340EA0A
:1026A000016040EA0370C8F80000286840F08070BC
:1026B0002860FFF731FA044605E044E0FFF72CFA02
:1026C000001B022809D828688001F7D53BE000BF2D
:1026D000FFF722FA001B022802D90320BDE8F88F79
:1026E00028688001F4D42EE00128D8F8000028D012
:1026F000E16900F480028A4223D1216A00F03F029E
:102700008A421ED1626A47F6C0710140B1EB821F56
:1027100017D1A16A4FF0FF3200F4403302EB5101B0
:10272000B3EB014F0DD194F82C1000F07062B2EBB6
:10273000016F06D194F8301000F0E040B0EB017F5B
:1027400001D00120CAE70020C8E700000838024095
:10275000007000400000FFFF401EB0F1807F10B508
:1027600001D3012010BD4FF0E02460610F216017FC
:1027700002F005F90020A0610721216110BD0000D1
:102780002DE9F04390F83C20012A42D0012280F844
:102790003C2051F80C4BDFF880804FF0000991E8A5
:1027A000680051E9022723F44073B1F80CC03B43A1
:1027B000CF6923F480631343026823F40063234347
:1027C00023F4805343EA050323F4005343EA06034A
:1027D00023F4804343EA07030C3923F47023424572
:1027E00043EA0C4302D00D4CA2420CD18D8C23F451
:1027F0007006D1E9073446EA055121F0807119438A
:1028000021F000732343536480F83C900020BDE81E
:10281000F0830220FBE700000000014000040140BB
:10282000F0B590F83C20012A3BD01F4E012480F8DF
:102830003C40022280F83D2002681C4D5368B242A1
:10284000D2F808C001D0AA4203D14F6823F4700324
:102850003B430F6823F070031F4357600268B24286
:1028600013D0B2F1804F10D0114B9A420DD0114BC2
:102870009A420AD0104B9A4207D0AA4205D00F4B79
:102880009A4202D00E4B9A4204D189682CF0800300
:1028900019439160002180F83D4080F83C100846C3
:1028A000F0BD0220F0BD0000000001400004014026
:1028B0000004004000080040000C004000400140BF
:1028C0000018004010B5040003D094F83D0010B18A
:1028D00007E0012010BD002084F83C00204600F0F5
:1028E00023F8022084F83D002068211D01F07EFBC2
:1028F000012084F8480084F83E0084F83F0084F802
:10290000400084F8410084F8420084F8430084F8D1
:10291000440084F8450084F8460084F8470084F8B1
:102920003D00002010BD000010B586B00446142103
:102930006846FDF761FE1F4A21681F48914207D192
:10294000016841F001010160006800F001000CE045
:10295000B1F1804F0CD0194A914207D1016841F082
:1029600002010160006800F00200059006B010BD91
:102970001148001F016841F001010160006800F08A
:10298000010005900C481438016841F00101016014
:1029900000680123202100F0010005900020009133
:1029A00002226946CDE90120CDE903030448FEF780
:1029B00085FFDBE70000014044380240000401408D
:1029C0000000024070B5044690F83C000025012844
:1029D00017D0334B012684F83C60022084F83D0078
:1029E00022689068184020F47F4090600868502862
:1029F00038D00DDC20284FD005DC90B3102811D141
:102A00004AE0022070BD302846D040280AD13BE081
:102A100060282FD070280DD0B0F5805F03D0B0F5BE
:102A2000005F12D0012584F83D60002084F83C004E
:102A3000284670BD4A682068D1E9021301F03CFBCA
:102A40002068816841F0770109E04A682068D1E98F
:102A5000021301F031FB2068816841F480418160FC
:102A6000E1E719E0CA684968206801F0B7FC20680E
:102A7000502106E0CA684968206801F001FD20681D
:102A8000602101F022FBCEE7CA684968206801F0A6
:102A9000A5FC20684021F4E7226801461046F0E7D3
:102AA00088FFFEFF2DE9F041054690F83C00002626
:102AB0000C46012810D0012085F83C0072B1042A90
:102AC0001CD0082A2CD00C2A51D00126002085F8D1
:102AD0003C003046BDE8F0810220FBE7E36828684F
:102AE000D4E9001201F08CFC2868816921F00C0106
:102AF000816128688169A26811430FE0E368286852
:102B0000D4E9001201F0CEFC2868816921F440610B
:102B1000816128688169A26841EA02218161D5E763
:102B2000D4E900232868217B076A4FF4206C090749
:102B300027F4807707620CEA0222C769D0F820C028
:102B400027F003071F432CF4206C27F0F00342EA20
:102B50000C0243EA1161C16102622868C16921F077
:102B60000C01C1612868A268C169114329E0286885
:102B7000D4E90032E168076A4FF6FF7C4FF4204E3B
:102B800027F4805707620CEA0131C769D0F820C0EA
:102B90000EEA033327F4407747EA02222CF4204C54
:102BA00022F470421143C16143EA0C0303622868B6
:102BB000C16921F44061C1612868A168C26942EA23
:102BC0000121C16182E710B5040003D094F83D00F3
:102BD00010B107E0012010BD002084F83C00204621
:102BE00000F022F8022084F83D002068211D01F049
:102BF000FDF9012084F8480084F83E0084F83F0085
:102C000084F8400084F8410084F8420084F84300CE
:102C100084F8440084F8450084F8460084F84700AE
:102C200084F83D00002010BD7047000010B586B04C
:102C3000044614216846FDF7DFFC194A002023688A
:102C4000184993424FF0020212D10B6843F010036F
:102C50000B600968012301F0100105914FF4206118
:102C60000091CDE90120CDE903030F48694613E047
:102C70000E4CA34212D10B6843F004030B600968A9
:102C8000032301F004010591C0210091CDE9012049
:102C9000CDE9030306486946FEF710FE06B010BDF5
:102CA00000000140303802400010024000040140A2
:102CB0000008024070B5044690F83C000025012849
:102CC0000BD0012084F83C000C2A1ED007DC82B116
:102CD000042A12D0082A06D113E0022070BD102A5F
:102CE00017D0142A19D00125002084F83C0028466A
:102CF00070BD206801F0F2F9F6E7206801F028FACB
:102D0000F2E7206801F060FAEEE7206801F098FA37
:102D1000EAE7206801F0C0FAE6E7206801F0E8FA87
:102D2000E2E710B5040003D094F83D0010B107E0CD
:102D3000012010BD002084F83C00204600F022F85D
:102D4000022084F83D002068211D01F04FF9012088
:102D500084F8480084F83E0084F83F0084F840007E
:102D600084F8410084F8420084F8430084F8440069
:102D700084F8450084F8460084F8470084F83D0054
:102D8000002010BD704770B5044690F83C00002646
:102D90000D4601280BD0012084F83C000C2A4AD0B3
:102DA00007DC82B1042A20D0082A06D131E00220B3
:102DB00070BD102A53D0142A63D00126002084F855
:102DC0003C00304670BD206801F088F920688169B8
:102DD00041F0080181612068816921F0040181616D
:102DE00020682A698169114311E0206801F0B0F977
:102DF0002068816941F4006181612068816921F462
:102E00008061816120682969826942EA01218161CA
:102E1000D4E7206801F0D8F92068C16941F00801C1
:102E2000C1612068C16921F00401C16120682A697B
:102E3000C169114311E0206801F002FA2068C169FC
:102E400041F40061C1612068C16921F48061C16100
:102E500020682969C26942EA0121C161AEE72068A0
:102E600001F01AFA2068416D41F0080141652068BF
:102E7000416D21F00401416520682A69416D1143CB
:102E800011E0206801F034FA2068416D41F40061DE
:102E900041652068416D21F48061416520682969A0
:102EA000426D42EA0121416588E710B5040003D074
:102EB00094F83D0010B107E0012010BD002084F817
:102EC0003C00204600F022F8022084F83D002068F3
:102ED000211D01F08BF8012084F8480084F83E00A1
:102EE00084F83F0084F8400084F8410084F84200F0
:102EF00084F8430084F8440084F8450084F84600D0
:102F000084F8470084F83D00002010BD704770B57C
:102F1000044690F83C00012812D0012584F83C506A
:102F2000022084F83D00204601F00EFA00284FF000
:102F3000000007D084F83D5084F83C00012070BDAB
:102F4000022070BD2168CA6822F04002CA60216870
:102F5000CA6822F48042CA6084F83D5084F83C007C
:102F6000002070BD70477047704700002DE9F041A8
:102F700002680446002540F60F06D0691168936880
:102F8000304205D186067DD58E067BD5616E1CE16B
:102F9000994F03F001060F40374373D0C70709D09C
:102FA000CF0507D501271762D4F8802042F001022F
:102FB000C4F8802082070AD5DA0708D027680222E1
:102FC0003A62D4F8802042F00402C4F8802042071C
:102FD0000AD5DA0708D0236804221A62D4F88020C0
:102FE00042F00202C4F8802002070CD501F0200252
:102FF000324308D0236808221A62D4F8802042F0B5
:103000000802C4F8802002050BD54A0109D52368BF
:103010004FF400621A62D4F8802042F02002C4F813
:103020008020D4F88020002A36D0800605D5880676
:1030300003D5616E09B1204688472168D4F8800025
:103040008968490602D410F0280F27D0204601F0E5
:10305000ECFA2068806840061BD52068083050E8EC
:10306000001F21F0400140E80012002AF5D1206F36
:1030700078B162490165206FFEF7CBFA00280BD0CA
:10308000206F00E010E0016D00E02046BDE8F04157
:1030900008472046FFF768FFBDE8F0812046FFF7AC
:1030A00063FFC4F88050F7E7276E2026012F7CD1FC
:1030B000C7067AD5CF0678D51020106220688068C0
:1030C000400641D5216F086840680004000CE3D039
:1030D000B4F858208242DFD9A4F85A00C869B0F584
:1030E000807F2AD0216851E8000F20F4807041E8E9
:1030F0000002002AF6D12068083050E8001F21F0B5
:10310000010140E80012002AF5D12068083050E89B
:10311000001F21F0400140E80012002AF5D1E667C7
:103120002566216851E8000F20F0100041E80002F8
:10313000002AF6D1206FFEF723FAB4F85800B4F84D
:103140005A10401A81B22BE0B4F85800B4F85A1063
:10315000B4F85A20401A81B2002A9DD000299BD091
:10316000206850E8002F22F4907240E80023002BE2
:10317000F6D1206800F1080050E8002F22F001028B
:1031800040E80023002BF4D1E667256665662068D9
:1031900050E8002F22F0100240E80023002BF6D167
:1031A0002046FFF7DFFE77E7FFE7C70208D55B029F
:1031B00006D54FF4801010622046FFF7D4FE6BE76F
:1031C000020606D50A0604D5A16E00297FF45DAF7C
:1031D00062E74006E7D54806E5D52046026852E892
:1031E000001F21F0400142E80013002BF6D1866752
:1031F000856600F091F94FE72001000417460008AA
:1032000010B5040002D0A06F10B107E0012010BD7E
:10321000002084F87400204600F026F82420A067DF
:103220002068016821F001010160204601F022FAC6
:103230000128ECD0606A10B1204601F05AF92068EC
:10324000416821F4904141602068816821F02A01A1
:1032500081602068016841F0010101602046BDE8FD
:10326000104001F0AAB900002DE9F04F87B00646E2
:1032700014216846FDF7C0F96D480222DFF8B4C199
:103280000321356810386A4B002497064FF0400B35
:1032900065454FF4806A4DD11D6845F400251D60D9
:1032A0001B6803F400230593036843F008030360DD
:1032B000006800F00800059008208DE81600CDE9B0
:1032C00003105D486946FEF7F9FADFF87091D046C1
:1032D0005B4A4846C9F80020C0E90174C0E9034AC6
:1032E000C9F81440C9F81840C9F81C40C9F8204072
:1032F000C9F82440FEF770FA08B1FDF746FF514DBA
:10330000C6F87090C9F8386028464D4AC5E90348A8
:103310006C613032AC61EC612C626C6285E88408CF
:10332000FEF75AFA08B1FDF730FFF566AE6307B055
:10333000BDE8F08FDFF810C165451DD13C4B1B1D6A
:103340001D6845F010051D601B6803F01003059310
:10335000036843F0020303600068042300F00200E6
:103360000590CDE903134FF4404069468DE8150000
:103370003648FEF7A3FADAE7DFF8D4C06545D6D1C0
:103380001D6845F400351D601B6803F40033059388
:10339000036843F0010303600068072300F00100A5
:1033A00005900C20CDE903138DE8150029486946E6
:1033B000FEF784FADFF8A080B946214A5746404616
:1033C0004832C8F80020C8E90194C8E9034AC8F89F
:1033D0001440C8F81840C8F81C40C8F82040C8F885
:1033E0002440FEF7F9F908B1FDF7CFFE1B4DC6F8F2
:1033F0007080C8F838602846114BC5E903476C61F6
:103400006033AC61EC612C626C6285E8080AFEF7FF
:10341000E3F908B1FDF7B9FEF56600220521AE63B8
:103420002620FEF7DDFB2620FEF7CCFB7FE7000021
:1034300040380240004C0040000C024000040020D4
:10344000406002406004002000100140000402407F
:103450000044004000000240C0040020200500207D
:103460002DE9F8430446806F1F4616460D46202876
:1034700050D1CDB1C6B194F8740001284AD00120D2
:1034800084F8740021224FF00008C4F88080A267FD
:10349000FEF742FB8146A068A4F85060A4F8526091
:1034A000B0F5805F03D004E00120BDE8F883206917
:1034B00028B12E465FF0000584F8748010E00026E5
:1034C000FAE78021204601F0EDF9B8B9C6B116F847
:1034D000010B21688862B4F85200401EA4F8520023
:1034E000B4F852004B464FF0000200970028E8D194
:1034F0004FF04001204601F0D5F938B10320D4E760
:1035000035F8020B2168C0F30800E3E72020A0672C
:103510000020CAE70220C8E77047FEE780216B2041
:1035200010B500F034FA4FF4FA7001F0C9FA002136
:103530006B2000F02CFA032000F0F5F9002000F0D9
:10354000EDF9322000F00CFA0021382000F01FFACB
:1035500000216A2000F01BFA0021232000F017FA56
:103560008021372000F013FA752000F043F9682815
:1035700001D0012010BD01216B2000F008FA0021CC
:103580006C2000F004FA322000F0EAF9002010BDAF
:103590007CB514460D46062206463B216B46682044
:1035A00000F046F900280BD1BDF8001049BA31806F
:1035B000BDF8021049BA2980BDF8041049BA21802B
:1035C0007CBD000008B502226B464121682000F056
:1035D0002FF9BDF800009FED0D1B9FED0E2B40BA9B
:1035E00000B200EE100ADFED0D0AB8EEC03B83EE2C
:1035F000014B34EE021BB7EEC10B20EE200ABDEEEC
:10360000C00A10EE100A00B208BD00000000000061
:1036100000407540A4703D0AD74342400000C842B4
:10362000002000BF401C6428FBDB70472DE9F041FF
:103630000024074600F032F9214E00250022022125
:103640003046FEF764FAFFF7EBFF01223046022115
:10365000FEF75DFA60060121040E3046FEF752FACD
:1036600008B1641CE4B2FFF7DBFF6D1CEDB2082D5E
:10367000E4D34FF000024FF002013046CFB1FEF725
:1036800046FA00F02BF9002230460121FEF73FFAFE
:10369000FFF7C6FF012230460221FEF738FAFFF796
:1036A000BFFF002230460221FEF731FA2046BDE876
:1036B000F081FEF72CFA00F011F90122E4E7000096
:1036C0000014024070B5054600F008F9124E0022C1
:1036D00002213046FEF71BFA0024280601D50122FC
:1036E00000E0002230460121FEF711FA68060122AF
:1036F000050E30460221FEF70AFAFFF791FF00227D
:1037000030460221FEF703FAFFF78AFF641CE4B299
:10371000082CE2D370BD00000014024010B500F088
:10372000DDF80D4C012211462046FEF7F0F901228A
:1037300020460221FEF7EBF9FFF772FF0022204638
:103740000121FEF7E4F9FFF76BFF00222046BDE8F8
:1037500010400221FEF7DBB90014024010B500F062
:10376000BDF80D4C002202212046FEF7D0F90022C0
:1037700020460121FEF7CBF9FFF752FF0122204638
:103780000221FEF7C4F9012220461146FEF7BFF9D7
:10379000BDE81040FFF744BF0014024070B500249C
:1037A00000F07CF8124D012211462846FEF7AFF9D1
:1037B000FFF736FF012228460221FEF7A8F9FFF79E
:1037C0002FFF07E0641CE4B2FA2C03D9FFF7C6FF11
:1037D000012070BD01212846FEF794F90028F1D19F
:1037E000002228460221FEF792F9002070BD000059
:1037F0000014024010B50446FFF790FFD020FFF7F9
:1038000061FFFFF7CBFF2046FFF75CFFFFF7C6FF26
:10381000FFF784FFD120FFF755FFFFF7BFFF002020
:10382000FFF704FF0446FFF799FF204610BD000094
:103830002DE9F0411D4614460F460646FFF76EFF80
:103840007006000EFFF73EFFFFF7A8FF20B1FFF75D
:1038500085FF0120BDE8F0813846FFF733FFFFF711
:103860009DFFFFF75BFF012000EB4600C0B2FFF7B2
:1038700029FFFFF793FF09E0012C0DD05FF0010055
:10388000FFF7D4FE641E05F8010BE4B2002CF3D15F
:10389000FFF764FF0020DDE70020F1E700B587B007
:1038A00014216846FCF7A8FE0A48016841F020018F
:1038B0000160006800210222039200F020000590C0
:1038C0000120CDE9000104486946FDF7F7FF07B084
:1038D00000BD0000303802400014024000B587B03F
:1038E00014216846FCF788FE0A48016841F020016F
:1038F00001600068022100F0200005900120009086
:10390000CDE90201019069460348FDF7D7FF07B0F2
:1039100000BD00003038024000140240C006010E15
:103920001C2000F034B8C006010E1B2000F02FB898
:10393000BC2801D3012110E0622801D302210CE050
:103940002A2801D3032108E0142801D3042104E02C
:103950000A2801D3052100E006211A2000F017B83B
:1039600010B504464FF47A70844201D9044602E04F
:10397000042C00D20424B0FBF4F0401EC1B2192084
:1039800000F005F86008BDE81040FFF7D1BF70B542
:103990000C460546FFF7C2FED020FFF793FEFFF767
:1039A000FDFE50B92846FFF78DFEFFF7F7FE2046D3
:1039B000FFF788FEFFF7F2FE18B1FFF7CFFE0120F8
:1039C00070BDFFF7CBFE002070BD00007FB515482D
:1039D00000251349012400950195220402950395C1
:1039E000016004618461C0E901250F4980F820501D
:1039F000C0E90A15C560C46180F830404461FDF734
:103A000040FD08B172B6FEE7072069468DE8310037
:103A10000448FDF7BDFB002801D072B6FEE77FBD6C
:103A200000200140E80000200100000F1D4808B5FB
:103A3000016841F400110160016801F40011009176
:103A4000016841F48001016000680022052100F452
:103A5000800000900D20FEF7C3F80D20FEF7B2F8AD
:103A6000002205210F20FEF7BBF80F20FEF7AAF871
:103A7000002205211020FEF7B3F81020FEF7A2F86F
:103A8000002205211120FEF7ABF81120FEF79AF86D
:103A9000002205213820FEF7A3F8BDE808403820B1
:103AA000FEF790B83038024010B586B01421684651
:103AB000FCF7A2FD2548016841F020010160016882
:103AC00001F020010591016841F080010160016869
:103AD00001F080010591016841F001010160016878
:103AE00001F001010591016841F0100101600168D8
:103AF00001F010010591016841F0020101600168C7
:103B000001F002010591016841F0040101600168C2
:103B100001F004010591016841F0080101600068AD
:103B200000220B4C032100F0080005902046FDF711
:103B3000EEFF032220460121CDE90212CDE900214A
:103B40006946FDF7BBFE06B010BD000030380240EC
:103B50000014024010B59AB000241C21009412A851
:103B6000019402940394049405940694FCF744FD94
:103B70002C2107A8FCF740FD32484FF6FF72304970
:103B8000C0E90014C0E90242046144618461FEF7A7
:103B900099FE08B172B6FEE74FF4805000902948B4
:103BA0006946FEF70FFF08B172B6FEE72548FFF73A
:103BB0007CF908B172B6FEE72248FFF7B2F808B107
:103BC00072B6FEE71F4804A9049405940694FEF714
:103BD00027FE08B172B6FEE760201494CDE9120406
:103BE0001848002212A91594169417941894FFF7F8
:103BF000CAF808B172B6FEE71248042212A912945C
:103C0000FFF758F808B172B6FEE74FF4005007947A
:103C10000894099401030A94CDE90B40CDE90E41C3
:103C2000084807A90D9410941194FEF7A9FD08B156
:103C300072B6FEE70348FEF7F9FF1AB010BD0000A8
:103C4000000001403001002010B58CB0264800244F
:103C5000621E00944FF080410194029403940494F6
:103C6000059406940794089409940A94C0E90014F2
:103C7000C0E9024204618461FEF724FE08B172B615
:103C8000FEE74FF48050009017486946FEF79AFE11
:103C900008B172B6FEE71448FEF795FF08B172B698
:103CA000FEE7114804A904940694FEF7B9FD08B193
:103CB00072B6FEE70120002207A9CDE907400A48B5
:103CC00009940A94FEF7EEFE08B172B6FEE70220F0
:103CD00008900548042207A9FEF7E4FE002801D059
:103CE00072B6FEE70CB010BD7C01002010B59AB092
:103CF000142112A8FCF780FC002417941C211894AE
:103D00000BA81994FCF778FC2C216846FCF774FC8E
:103D10002D484FF6FF722B49C0E90014C0E902425A
:103D2000046144618461FEF7CDFD08B172B6FEE71F
:103D30002548FEF7F6FF08B172B6FEE7224812A941
:103D400012941394FFF7E3F808B172B6FEE71E4829
:103D500017A9179418941994FEF762FD08B172B66A
:103D6000FEE70B9400220C940BA917480D940E94B7
:103D70000F9410941194FEF79DFF08B172B6FEE700
:103D8000114804220BA9FEF795FF08B172B6FEE7B1
:103D90004FF400500094019401030294CDE90440D3
:103DA00003940694CDE907410748694609940A94AB
:103DB000FEF7E6FC08B172B6FEE70348FEF736FFF1
:103DC0001AB010BD00040140C80100200C480021B9
:103DD00010B50A4C0C224FF4E1330460C0E9013104
:103DE000C160C0E904128161C16101624162FFF7F3
:103DF00007FA002801D072B6FEE710BD004C004063
:103E0000140200200C48002110B50A4C0C224FF47B
:103E1000E1330460C0E90131C160C0E9041281618D
:103E2000C16101624162FFF7EBF9002801D072B66F
:103E3000FEE710BD00100140980200200C48002150
:103E400010B50A4C0C224FF4E1330460C0E9013193
:103E5000C160C0E904128161C16101624162FFF782
:103E6000CFF9002801D072B6FEE710BD0044004033
:103E70001C030020FEE7FEE7FFF750FB084CA4F10F
:103E8000340508A0FCF70CFB0548221DA11CFFF718
:103E90007FFBFFF797FB2880642000F011FEF0E71E
:103EA0004C00002053746172745461736B30312D77
:103EB0002D2D2D2D2D2D2D2D2D2D2D2D2D2D2D2D32
:103EC0002D2D2D2D2D2D2D3E0000000003A0FCF7E3
:103ED000E7FAC82000F0F4FDF8E7000053746172BF
:103EE000745461736B30322D2D2D2D2D2D2D2D2DD4
:103EF0002D2D2D2D2D2D2D2D2D2D2D2D2D2D2D3EE1
:103F00000000000010B5FDF70DFE02F0E5FA0128F3
:103F100003D0BDE8104001F055BF10BD30B5B7B0BB
:103F2000342124A8FCF768FB142131A8FCF764FBBA
:103F300090216846FCF760FB2648016841F08051FB
:103F40000160006800F0805036902348016841F419
:103F500040410160006800240DF1B00C0225249559
:103F60000822C423CDE92A5400F4404036908CE85E
:103F70002C0010212F9501203095CDE9270124A890
:103F8000FEF71EFA08B172B6FEE7FDF75BFE08B158
:103F900072B6FEE74FF4805233944FF4A0510F20D5
:103FA000CDE93412CDE93105062131A8FEF71EF91D
:103FB00008B172B6FEE74FF4307014941194129465
:103FC00000906846FDF774FE002801D072B6FEE747
:103FD00037B030BD403802400070004002480168F0
:103FE00041F470010160704788ED00E0F0B5274BA7
:103FF0004FF0804E264D02689842264E264F274CA1
:1040000009D0704507D0A84205D0B04203D0B842CD
:1040100001D0A04205D1D1F804C022F070024CEAD0
:10402000020298421BD0704519D0A84217D0B04266
:1040300015D0B84213D0A04211D0194DA8420ED0CD
:10404000184DA8420BD0184DA84208D0174DA842D1
:1040500005D0174DA84202D0164DA84203D1CD6815
:1040600022F440722A434D6922F080022A43026002
:1040700098428A68C2620A68826201D0A04201D175
:104080000969016301214161F0BD000000000140A8
:104090000004004000080040000C00400004014003
:1040A0000040014000440140004801400018004029
:1040B000001C00400020004042EA032283680A43BB
:1040C00023F47F410A4382607047826822F07002C5
:1040D0000A4342F00701816070470000F0B5026AB0
:1040E000DFF860C0184F22F00102DFF860E00262E2
:1040F000066A4268836926F002060D68B8428C6839
:1041000003EA0C0323F0030344EA060445EA03052B
:1041100001D0704505D1CB6824F00804234323F077
:104120000404B84201D0704505D122F44076D1E9AB
:10413000053233431A434260856149684163046232
:10414000F0BD00008FFFFEFF0000014000040140B1
:10415000F0B5026A194E1A4C22F01002DFF864E042
:104160000262056A4368826925F02005D1F808C01B
:10417000A0420F6802EA060222F4407245EA0C15DA
:1041800042EA072201D0704506D1CE6825F08005AD
:1041900045EA061525F04005A04201D0704507D13B
:1041A000D1E9054623F4406343EA840343EA8603E6
:1041B00043608261496881630562F0BDFF8FFFFE45
:1041C0000000014000040140F0B5026A194F1A4E88
:1041D00022F48072DFF864E00262056A4368C26913
:1041E00025F40075D1F808C0B0420C6802EA070255
:1041F00022F0030245EA0C2544EA020401D070458E
:1042000006D1CF6825F4006242EA072222F48065D5
:10421000B04201D0704507D123F44052D1E90536B0
:1042200042EA031242EA06134360C4614968C1636B
:104230000562F0BD8FFFFEFF000001400004014059
:10424000F0B5026A124B114F22F48052984202627A
:10425000046A4268C36924F400548E680D6803EA56
:10426000070323F4407344EA063443EA052302D0EB
:10427000084DA84204D14D6922F4804242EA8512D9
:104280004260C361496801640462F0BDFF8FFFFEB4
:104290000000014000040140F0B5026ADFF844C0AC
:1042A00022F480320262056A4268446D25F40035CA
:1042B0000E8960450C4F0B6804EA070445EA064581
:1042C00043EA040302D0094CA04204D14C6922F411
:1042D000803242EA04224260436549688165056292
:1042E000F0BD0000000001408FFFFEFF0004014010
:1042F000F0B5026ADFF844C022F480120262046A58
:104300004268436D24F400140E8960450C4F0D681B
:1043100003EA070344EA065443EA052302D0094DA1
:10432000A84204D14D6922F4802242EA85224260EB
:1043300043654968C1650462F0BD000000000140AA
:10434000FF8FFFFE000401402DE9F041D1E9002379
:1043500005680024204FAE6826F0700633433B40CA
:104360001A43AA604A6812F00F0F32D11211082ABC
:104370002FD2DFE802F02F2F2F2F0B2228048A687C
:104380000068D1E90313FFF797FE23E00A68052AC6
:1043900010D00268136A156A25F0010515620268DB
:1043A0000D69916921F0F00141EA05119161006800
:1043B00003620FE00120BDE8F0810A6900688968A6
:1043C00000F00CF806E00A690068896800F058F807
:1043D00000E001242046EEE7F8FFFEFF10B5036A77
:1043E000046A23F00A0324F00104046284690B4385
:1043F00024F0F00141EA02118161036210BD000066
:1044000070B5046A174D24F001040462A84284695F
:10441000056A14D0B0F1804F11D0134EB0420ED0C7
:10442000124EB0420BD0124EB04208D0114EB042E4
:1044300005D0114EB04202D0104EB04203D124F04C
:104440000304144301E044F001041A0724F0F003CC
:1044500025F00A0401F00A01214343EA1262826155
:10446000016270BD000001400004004000080040EF
:10447000000C0040000401400040014000180040D2
:1044800010B5036A23F0100303628369046A23F4FE
:10449000704324F0A00443EA0232826144EA01112D
:1044A000016210BD70B5056AA0244FF6FF7606EADA
:1044B000033325F01005056204EA01118469056AD9
:1044C00024F4407425F0A00544EA0222294322F492
:1044D000704213438361016270BD10B501F05EF953
:1044E000002805D0D0E90021BDE81040084610475B
:1044F00010BD90F82410C90706D00168836A4A6885
:1045000022F400321A434A6090F82410890706D535
:104510000168C36A4A6822F480321A434A6090F8FC
:104520002410490706D50168036B4A6822F48022EB
:104530001A434A6090F82410090706D50168436BB6
:104540004A6822F400421A434A6090F82410C906CF
:1045500006D50168836B8A6822F480521A438A6008
:1045600090F82410890606D50168C36B8A6822F486
:1045700000521A438A6090F82410490611D5016848
:10458000036C4A6822F480121A434A60016CB1F548
:10459000801F06D10168436C4A6822F4C0021A43A6
:1045A0004A6090F82410090606D50168826C4868B4
:1045B00020F40020104348607047F8B500260446F8
:1045C000C0F88060FDF7A8FA054620686FF07E47C6
:1045D0000068000708D500222B464FF40011204642
:1045E000009700F05FF960B92068006840070AD5BD
:1045F00000222B464FF480012046009700F052F92C
:1046000008B10320F8BD2020A067E06726660020DF
:1046100084F87460F8BD10B5806B0021A0F85A10C2
:10462000A0F85210FEF7A0FC10BD016851E8002F61
:1046300022F4907241E80023002BF6D10168083182
:1046400051E8002F22F0010241E80023002BF5D1B0
:10465000016E012908D1026852E8001F21F0100103
:1046600042E80013002BF6D100212022C267016628
:10467000416670472DE9F04104460368C2698168CC
:10468000D4E90450DFF8F0C17C4E29431F680025AF
:1046900010437B4A014307EA0C070F431F604FF4A6
:1046A00000402168E7684B6823F440533B434B606C
:1046B0002768A369216AD7F808C019432CF430632E
:1046C0000B43BB602168B1420AD1116811F00301AC
:1046D00052D001297CD0022971D003296ED184E007
:1046E000684B99420AD1116811F00C0167D0042976
:1046F00065D0082975D00C2960D176E0624B9942CB
:104700000AD1116811F0300159D010296BD020293D
:1047100067D0302952D168E05C4B99420AD11168C8
:1047200011F0C0014BD040295DD0802959D0C0295B
:1047300044D15AE0564B99420DD1116811F44071A1
:104740003DD0B1F5807F4ED0B1F5007F49D0B1F5B5
:10475000407F33D149E04F4B99420FD1116811F49A
:10476000406109D0B1F5806F3DD0B1F5006F38D010
:10477000B1F5406F22D138E0012120E0464B99424B
:104780000DD1116811F4405119D0B1F5805F2AD0D4
:10479000B1F5005F25D0B1F5405F0FD125E03F4B6B
:1047A00099420BD1116811F4404108D0B1F5804F06
:1047B00019D0814215D0B1F5404F16D01021E369D0
:1047C000374A4FF6EF7683422ED1092949D201E0CC
:1047D00009E006E0DFE801F00B0E11451345454501
:1047E00016000221EBE70421E9E70821E7E7FDF7DE
:1047F00095FD06E0FDF7A2FD03E0104602E0FDF79F
:10480000ADFD78B36168400000EB5100B0FBF1F002
:10481000A0F11001B14224D84FF6F0732168C0F323
:1048200042021840104320E009291AD2DFE801F0C3
:1048300005080B190D1919191000FDF76FFD06E099
:10484000FDF77CFD03E0104602E0FDF787FD48B16F
:10485000616800EB5100B0FBF1F0A0F11001B14232
:1048600001D9012502E0216880B2C860002060669D
:10487000A0662846BDE8F081F369FFEF0010014013
:10488000903802400044004000480040004C004086
:10489000005000400014014000780040007C0040BF
:1048A0000024F4002DE9F0479A4617460E460446C8
:1048B000089D4FF000094FF020084CE0681C4AD0DA
:1048C000FDF72AF9A0EB0A00A8422AD84DB32068C8
:1048D000016849073FD5C069C04300053BD4216842
:1048E0004FF400600862216851E8000F20F4D07096
:1048F00041E80002002AF6D12068083050E8001F85
:1049000021F0010140E80012002AF5D1C4F87880B6
:1049100084F87490C4F87C80C4F880800320BDE8DB
:10492000F087206850E8001F21F4D07140E80012A1
:10493000002AF6D12068083050E8001F21F001015C
:1049400040E80012002AF5D1C4F8788084F8749009
:10495000C4F87C80E2E72068C06936EA000004D031
:104960000020B842AAD00020D9E70120F9E70000D2
:104970000148FEF7FBBA00001C030020FEE7090710
:1049800000284FEA116104DB00F1E02080F80014F8
:10499000704700F00F0000F1E02080F8141D704710
:1049A00013B5044801224FF6FF736946FEF758FD20
:1049B00000981CBD1402002001207047024810B569
:1049C00040688047012010BD00000020FDF7B2F8CC
:1049D000FFF7A4FAFFF768F8FFF728F8FFF7BAF82F
:1049E000FFF710FAFFF72AFAFFF72EF9FFF77EF923
:1049F000FFF7ECF9FEF7EAFFFFF7E0FF00F09CF8A5
:104A0000294800F00FF9294CE0612748103000F0E8
:104A100009F9254A012120620846203200F042F9B6
:104A2000214A012160620846303200F03BF91E4AFB
:104A30000221A0620846403200F034F91A4B0022ED
:104A4000E06201211A48203B00F0D8F9164B002201
:104A5000606101211748103B00F0D0F9124A022191
:104A6000A061503AC80100F0A3F80F4A0221E060AB
:104A70001020383A00F09CF80B4A002120610E48C3
:104A8000983A00F067F9084A002160600B48743AD0
:104A900000F060F9A0600448503000F02BF820636B
:104AA00000F066F8FEE700007869000818000020B2
:104AB000CB100008CD100008793E0008CD3E00085C
:104AC00010B5EFF3058181B9EFF3108111B9EFF360
:104AD000118119B106490968022906D04FF0000476
:104AE00008B100F0F7FF204610BD6FF00504FAE7AB
:104AF000B40000204FF0000110B5EFF30582BAB901
:104B0000EFF3108212B9EFF311821AB1094A126859
:104B1000022A0DD048B1D0E902202AB1202807D3BB
:104B2000104601F0D7F802E010B901F0C5F80146CF
:104B3000084610BDB4000020EFF3058070B9EFF314
:104B400010800A490028086802D1EFF311820AB1E7
:104B5000022803D028B14FF0FF3070476FF00500F6
:104B6000704701220A60002070470000B400002056
:104B700010B5EFF3058078B9EFF310800B490028EA
:104B8000086802D1EFF311820AB1022804D001288B
:104B900005D04FF0FF3010BD6FF0050010BD0220B2
:104BA000086001F005F8002010BD0000B4000020EE
:104BB000F8B514464FF00005EFF305826ABBEFF33A
:104BC000108212B9EFF311821AB1154A1268022A43
:104BD00023D010B309B3ACB1D4E902326BB1502A7F
:104BE0001BD32269CAB100FB01F66769B74214D32F
:104BF0000025009501F081F907E072B9226962B9D8
:104C0000626952B9002201F052F9050005D00CB1D9
:104C1000216800E0002100F0F9FE2846F8BD000000
:104C2000B400002070B505464FF00004EFF3058096
:104C3000A0BBEFF3108010B9EFF3118018B1184842
:104C4000006802282AD00DB1686800E00020C10782
:104C500001D0012600E0002600071FD46DB1D5E980
:104C6000021021B1502819D31EB1042002E020B156
:104C700014E0012001F00EF905E00EB1042000E07F
:104C8000012001F0FCF8040008D00DB1296800E013
:104C9000002100F0BBFE0EB144F00104204670BDBF
:104CA000B4000020F8B5144603460E464FF0000548
:104CB000EFF30580E8BBEFF3108010B9EFF311803C
:104CC00018B123480068022840D093B39E423DD8D3
:104CD0004CB1A0680028E06803D0502836D30120EA
:104CE00002E008B132E00020012B05D010B3A26829
:104CF000184601F0A0F820E040B103200090002207
:104D0000A3680120114601F0F8F804E00322002115
:104D1000012001F0CCF8050018D086B100231A4616
:104D2000194601F071F9012809D0284600F082FEE9
:104D300000250BE0184601F05DF8050006D00CB127
:104D4000216800E00021284600F060FE2846F8BDFA
:104D5000B40000202DE9FF414FEA01034FF00005A8
:104D6000EFF305810395B1BBEFF3108111B9EFF3B8
:104D7000118119B12049096802293BD058B34FF07D
:104D800080074FF018014FF000044AB3166806B1CF
:104D9000344696691EB13146761E382E02D21679F7
:104DA000F60703D0002004B0BDE8F081566906B1D3
:104DB000B708D2F808C0BCF1000F0DD0D568AC2DF3
:104DC00018D312693AB136B18DE806103A46214639
:104DD00001F053FB03900DE0D6685EB912694AB941
:104DE00003AACDE90012BAB2214601F019FB01284D
:104DF00000D003950398D6E7B40000202DE9FC41CC
:104E00001C461746884606464FF00005EFF305801E
:104E100088BBEFF3108010B9EFF3118018B1174879
:104E20000068022827D036B3082000F045FC0300B4
:104E300021D0B8F1000FC3E9006713D05FF0010281
:104E40000F4E4FF000008CB1216801B10846A168F7
:104E500051B1E4682C2C0ED3CDE90061012101F0A1
:104E6000B7FC07E00022EBE7E16821B901210096D9
:104E700001F094FC05462846BDE8FC81B400002002
:104E8000DB4400082DE9F041154C0F460546002093
:104E90006669216881F8AA002068001D00F0AAFC5C
:104EA000681C07D137B12168BDE8F0410D48091DE4
:104EB00000F0F4BC20683544B5424560216805D255
:104EC000A068091DBDE8F04100F0D0BC6068091D74
:104ED00000F0CCFC206B854200D22563BDE8F08158
:104EE00064000020700A00202DE9F041054600F022
:104EF000E1FC2D4C2D4F2069401C2061206810B131
:104F0000E06930B32BE025602069012827D1002615
:104F100006EB860007EB800000F09AFC761C382E2A
:104F2000F6D3234800F094FC2148143000F090FCA4
:104F30001F48283000F08CFC1D483C3000F088FCF5
:104F40001B48503000F084FC194860601430A060A9
:104F500005E0E86A2168C96A814200D82560E06AF4
:104F6000401CE062C5F89400E86AA169884200D953
:104F7000A06100EB8000291D07EB800000F08EFC93
:104F800000F0BCFCE06900280CD02068E96AC06A27
:104F9000884207D207494FF080500860BFF34F8F17
:104FA000BFF36F8FBDE8F08164000020C0050020D2
:104FB000200A002004ED00E038B500F07BFC104C26
:104FC000A068C8B90F4800F043FC0E48143000F048
:104FD0003FFC0C49002021601431616001F1140391
:104FE000009001F1640210210A2000F086FFA06009
:104FF00010B105A100F00AFDBDE8384000F07EBC0C
:10500000A0000020840A0020546D725100000000AE
:1050100030B4026C0B46002A0BD0D0E90241114497
:10502000C160A14201D30168C160184630BCFBF7E2
:1050300096BA30BC70472DE9F041856B1746026C7B
:105040000446002682B1C7B1E068FBF788FAE16840
:10505000206C2268091AE160914202D2A168081A04
:10506000E060022F16D017E02068A8B9A06801F010
:10507000B1FA06460020A0600EE06068FBF76FFA08
:10508000D4E90101226C10446060884204D3206896
:10509000606001E005B16D1E6D1CA5633046BDE882
:1050A000F08110B5044690F8A90068B101280ED02F
:1050B000022811D0502072B680F31188BFF34F8FB1
:1050C000BFF36F8F62B6FEE7206B00F02DFC204629
:1050D000BDE8104000F028BC10BD000011484FF49E
:1050E000705110B5420706D00E49C01D20F00700D0
:1050F000411AC1F570510C4C002301440839A4F148
:10510000100221F00701C4E900030C1A11604B6082
:105110000B60C0E9001494604FF000415460D1600E
:1051200010BD0000F4120020C8000020154E4FF002
:105130008058154CDFF85490A6F29C4712E000BF4F
:1051400000F0B8FBF068C568281D00F053FB20692B
:10515000401E2061E068401EE06000F0CFFB284662
:10516000FFF79FFFE0680028EAD13868012805D9D9
:10517000C9F80080BFF34F8FBFF36F8F00F066FB5D
:10518000F0E700005C0A00206400002004ED00E06D
:10519000002807D00021816001600B460A46C160EB
:1051A00000F032BF7047000070B51D46049C51B13D
:1051B000C4F80020C4E90F010121204600F0D8FE08
:1051C00084F84C5070BD2460F4E72DE9F05F884608
:1051D0009A4691001546DDE90B940A9EA522834666
:1051E000206BFBF701FA206B6FF0030101EB8501E7
:1051F000084420F00707780709D0502072B680F3E2
:105200001188BFF34F8FBFF36F8F62B6FEE7B8F11F
:10521000000F4FF000050ED00020221818F80010E3
:1052200082F8341018F8001011B1401C6028F4D333
:1052300084F8935001E084F83450382E00D3372698
:10524000E662201DC4E9276500F00DFB04F118009B
:1052500000F009FBC4F8A450C6F13800A06184F83E
:10526000A850524684F8AA505946246138466462D0
:1052700000F0A8FAB9F1000F206001D0C9F8004091
:10528000BDE8F09F2DE9F0470D001E461746804609
:10529000DDE9089416D0002C12D0FFF78DFE04F142
:1052A0001801C4F80080201D81E8600200F0DBFADC
:1052B000002F05D094F8280040F0040084F828005E
:1052C000BDE8F087502072B680F31188BFF34F8F8E
:1052D000BFF36F8F62B6FEE730B5114900E01146AB
:1052E0000A688242FBD34B685C18844203D144684D
:1052F000084623444B6043681D18954209D1084C69
:10530000103C2468A24209D052681A4442600A68DC
:1053100012680260814200D0086030BD0460F9E785
:10532000C800002070B50D4D914241604FF000045F
:10533000006106D88169D21A8A4206D2011D6868C6
:1053400007E09A4203D2994201D3012403E0011DF0
:10535000286800F08BFA204670BD0000A0000020F5
:1053600010B5044600F0A6FAA06B28B15FF0000467
:1053700000F0C4FA204610BD0124F9E730B53E4DD7
:1053800089B06FE00498002806DA059ADDE9060185
:1053900090470498002865DB069C606910B1201DC9
:1053A00000F028FA03A800F0DBF8024604980A2867
:1053B00058D2DFE800F00505052F324B05052F32E6
:1053C00094F8280040F0010084F82800A0690599AD
:1053D0000B4601442046FFF7A5FF60B3216A204633
:1053E000884794F8280040073CD500200090059895
:1053F0000023A16942181946204601F035FAD0B9B8
:10540000502072B680F31188BFF34F8FBFF36F8FB8
:1054100062B6FEE794F8280020E094F8280040F0F7
:10542000010084F828000598A06128B1811813466E
:105430002046FFF777FF15E0502072B680F3118801
:10544000BFF34F8FBFF36F8F62B6FEE794F828006B
:10545000810703D4204600F067FA03E020F0010042
:1054600084F82800A868002204A900F0EBFE0028B8
:1054700088D109B030BD0000A00000202DE9FC411A
:105480000F46054600F0DCFB01A800F069F8044671
:10549000019818B101F01EF9BDE8FC81264EAFB1AC
:1054A00070680068E0B30027B068291B3A4600F036
:1054B000EFFA01F00FF90028EED120494FF08050AB
:1054C0000860BFF34F8FBFF36F8FE5E7A542EBD8BE
:1054D00001F000F930682746C068C468201D00F05C
:1054E00089F994F8280041071BD5A0692B463A4654
:1054F00041192046FFF716FFB8B100202A4603469F
:1055000001460090204601F0AFF970B9502072B604
:1055100080F31188BFF34F8FBFF36F8F62B6FEE742
:1055200007E020F0010084F82800216A204688471F
:10553000B2E70127B8E70000A000002004ED00E07A
:1055400006484168096829B14168C968C96849685D
:10555000016370474FF0FF31FAE70000640000205C
:1055600070B5054600F0C6FF064E04463069844219
:1055700003D200F009F8012000E000202860204656
:10558000346170BDA0000020F8B51A4D20E0C0685D
:10559000C4680668201D00F02DF9216A204688475E
:1055A00094F82800400713D5A0693044B04206D9CA
:1055B0002461211D6060286800F058F908E000208F
:1055C0003246034601460090204601F04DF938B1BD
:1055D000286801680029DAD16968C5E90010F8BDBA
:1055E000502072B680F31188BFF34F8FBFF36F8FD7
:1055F00062B6FEE7A00000200A484068401C4FF059
:10560000500072B680F3118805D0BFF34F8FBFF3FF
:105610006F8F62B6FEE7BFF34F8FBFF36F8F62B637
:10562000FEE70000D0000020074C2068016841B16F
:10563000C0680021D0F80000FFF720FFFFF79EFEB2
:10564000F3E701210020F7E7A00000202DE9F04159
:10565000044600F02FF994F9455004F1240609E0BE
:10566000606A48B1304600F0FBFF08B100F062FA12
:105670006D1E6DB2002DF3DC4FF0FF3684F84560EF
:1056800000F03CF900F016F994F9445004F11007C9
:1056900009E0206948B1384600F0E2FF08B100F0A7
:1056A00049FA6D1E6DB2002DF3DC84F84460BDE84C
:1056B000F04100F023B900002DE9F0410027044635
:1056C00000F0BEFA344E306808B9FFF707FDF06805
:1056D00004424FD1E4B30834600710D004F007004F
:1056E000C0F108000444600709D0502072B680F36E
:1056F0001188BFF34F8FBFF36F8F62B6FEE73CB3E5
:105700007068844236D82448103001460D6801E0A4
:1057100028460D466968A14202D229680029F7D1BE
:1057200031688D4226D007682968016008376868AB
:10573000011B102911D9281942070AD0502072B62E
:1057400080F31188BFF34F8FBFF36F8F62B6FEE710
:1057500010E041606C60FFF7BFFD69687068401A37
:105760007060B268904200D2B0600020F2681143CD
:10577000C5E9000100F0AEFF780709D0502072B6ED
:1057800080F31188BFF34F8FBFF36F8F62B6FEE7D0
:105790003846BDE8F0810000B800002010B504468E
:1057A00030B100F087F8E46900F0A8F8204610BD99
:1057B000502072B680F31188BFF34F8FBFF36F8F05
:1057C00062B6FEE770B5041F094E231F4FF08075C7
:1057D00021F0010125601C1F1960A0F120010B1FA1
:1057E000266044380A606FF002051D6070BD00003D
:1057F000F9550008D0E9013201699A60D0E9012326
:105800005A604A68824201D182684A60002202617D
:105810000868401E086008687047000010B5044C16
:105820008023046004F1AC000860136010BD000028
:105830009C0B002010B5044C4FF48073046004F1FD
:10584000AC000860136010BD480E00207047704720
:105850004FF0FF3300F108010022C0E9011302609C
:10586000C1600161704700210161704730B50B686C
:105870005A1C02D000F1080202E0026904E022464C
:10588000546825689D42FAD953684B6099608A60D4
:10589000516008610168491C016030BD42684A607E
:1058A00093688B6093685960916008610168491C36
:1058B00001607047502072B680F31188BFF34F8F9C
:1058C000BFF36F8F0B4962B64868401C48600128DF
:1058D0000ED10948006810F0FF0F09D0502072B6B1
:1058E00080F31188BFF34F8FBFF36F8F62B6FEE76F
:1058F00070470000D000002004ED00E0094948682E
:1059000028B1401E486001D180F3118870475020B3
:1059100072B680F31188BFF34F8FBFF36F8F62B6FB
:10592000FEE70000D000002070B500282BD0164DF7
:10593000A0F108046068E968084209D1502072B6F5
:1059400080F31188BFF34F8FBFF36F8F62B6FEE70E
:1059500022684AB1502072B680F31188BFF34F8F8E
:10596000BFF36F8F62B6FEE78843606000F068F9AE
:1059700060686968084468602046FFF7ADFCBDE8D0
:10598000704000F0A7BE70BDB80000204FF0E020CE
:10599000002101614FF47A7281610723034909688C
:1059A000B1FBF2F1491E41610361704760000020C4
:1059B00010B5FAF7D9FC1349102810D300F1E020F4
:1059C0000A7890F8F003904209D2502072B680F322
:1059D0001188BFF34F8FBFF36F8F62B6FEE70A489F
:1059E0008968006800F4E060884209D9502072B6E6
:1059F00080F31188BFF34F8FBFF36F8F62B6FEE75E
:105A000010BD0000D00000200CED00E0084B5FF05E
:105A1000000210B553F832401CB1521C082AF9D3C9
:105A200010BD03EBC20443F83210606010BD0000EB
:105A30008005002010B504000AD000F015F894F895
:105A4000460000280ED12046BDE81040FFF76CBF8D
:105A5000502072B680F31188BFF34F8FBFF36F8F62
:105A600062B6FEE710BD0000084A002102EBC10348
:105A70005B68834206D102EBC103002042F831008B
:105A800058607047491C0829F0D3704780050020F2
:105A900070B515460E460446FFF70CFF94F9441006
:105AA0000020491C01D184F8440094F94510491C98
:105AB00001D184F84500FFF721FFA06B28B904F15C
:105AC00024002A46314600F055F82046BDE87040D3
:105AD000FFF7BCBD020010B516D01048806B48B16E
