:020000040800F2
:10000000705C00208D030008BB4F00085B450008B2
:10001000B94F0008092100085D5A000800000000DF
:10002000000000000000000000000000C9020008FD
:10003000C92100080000000025030008E54F000862
:10004000A7030008A7030008A7030008A7030008E8
:10005000A7030008A7030008A7030008A7030008D8
:10006000A7030008A7030008A7030008A7030008C8
:10007000A703000811210008A70300081D2100089C
:100080002921000835210008C51F0008A703000822
:10009000A7030008A7030008A7030008A703000898
:1000A000A7030008A7030008A7030008A703000888
:1000B000A7030008A7030008A7030008A703000878
:1000C000A7030008A7030008A7030008A703000868
:1000D000A7030008A7030008515A0008A703000857
:1000E000A7030008A7030008A7030008A703000848
:1000F000A7030008A7030008A7030008A703000838
:10010000A7030008A7030008A7030008A703000827
:10011000A7030008A7030008A7030008A703000817
:1001200041210008A7030008A7030008A70300084F
:10013000A7030008A7030008A7030008A7030008F7
:10014000A7030008A7030008A7030008A7030008E7
:10015000A7030008A7030008A7030008A7030008D7
:10016000A7030008A7030008A7030008A7030008C7
:10017000A7030008A7030008A70300080000000069
:10018000A7030008A7030008A7030008A7030008A7
:10019000A7030008A7030008A7030008A703000897
:1001A000A7030008A7030008A7030008A703000887
:1001B000A7030008A7030008A7030008A703000877
:1001C000A7030008A703000800000000A703000819
:1001D000A7030008A7030008A7030008A703000857
:1001E000A7030008A7030008A7030008A703000847
:1001F000A7030008A703000800F002F800F054F875
:100200000AA090E8000C82448344AAF10107DA4571
:1002100001D100F049F8AFF2090EBAE80F0013F06F
:10022000010F18BFFB1A43F001031847987E000026
:10023000B87E0000103A24BF78C878C1FAD85207B7
:1002400024BF30C830C144BF04680C607047000050
:100250000023002400250026103A28BF78C1FBD8CF
:10026000520728BF30C148BF0B607047662907F0AE
:100270009885642900F02E81002070471FB507F093
:100280008BFD9DE8030001F0CBF800F083FD040036
:100290000020002107F06AFDE06000F07FFE1FBD36
:1002A00010B500F0E4FE10BD00F04CFF1146FFF762
:1002B000E5FF05F0A3FD01F051F803B4FFF7F0FFEF
:1002C00003BC01F01FFA00002D4B19680868B0E864
:1002D000F04F80F30988BFF36F8F4FF0000080F379
:1002E000118870470000000008480068006880F32B
:1002F00008884FF0000080F3148862B661B6BFF33F
:100300004F8FBFF36F8F00DF00BF00BF08ED00E02D
:10031000DFF80C00016841F470010160704700BF14
:1003200088ED00E0EFF30980BFF36F8F144B1A687C
:100330001EF0100F08BF20ED108A20E9F04F10606A
:1003400009B44FF0500072B680F31188BFF34F8F9D
:10035000BFF36F8F62B606F0C7FE4FF0000080F368
:10036000118809BC19680868B0E8F04F1EF0100F3A
:1003700008BFB0EC108A80F30988BFF36F8F704715
:1003800058000020EFF305807047000009488047BF
:1003900009480047FEE7FEE7FEE7FEE7FEE7FEE767
:1003A000FEE7FEE7FEE7FEE704480549054A064B7F
:1003B00070470000BD500008F9010008705000208F
:1003C000705C0020705400207054002053EA020C2E
:1003D00000F069802DE9F04B4FF00006002B1FBFA5
:1003E000B3FA83F503FA05F424FA05F65E4012BF6A
:1003F0001643B2FA82F502FA05F4C5F120051EBFD4
:1004000022FA05FC44EA0C04203556EA044C4FEA73
:10041000144418BF641C4FF000084FF000099042CC
:1004200071EB030C39D3002919BFB1FA81F701FA36
:1004300007F6B0FA80F700FA07F6C7F120071EBFEB
:1004400020FA07FC46EA0C062037B6FBF4FCA7EBC3
:100450000507103F07F01F0BCBF120060CFA0BFB32
:100460002CFA06F644BFB3460026202FA4BF5E46F2
:100470004FF0000B5BEA060C08BF4FF0010B19EBC5
:100480000B09ABFB027C48EB0608C01B06FB02CC49
:100490000BFB03CC71EB0C01C1E70B460246414656
:1004A0004846BDE8F08B13B54FF000004FF0000157
:1004B000AFF30080BDE81C40704700000FB4044952
:1004C00010B503AA029800F0FFFB10BC5DF814FB06
:1004D000644F00202DE9F04106460024106875297C
:1004E000314616A510D0AFF30080002802DA404252
:1004F00013A507E031688A0701D512A502E0490774
:1005000004D511A5012401E0AFF3008000210A22E7
:1005100006F1240709E0B0FBF2FCB0FBF2F302FBAA
:100520001C00303078541846491C0028F3D123466B
:100530002A463046BDE8F04100F045B90000000011
:100540002D0000002B000000200000002DE9F05FCE
:10055000894604464FF0000ADFF824B1FB44C0F896
:1005600020A02046E168884700287DD0252806D0B5
:10057000D4E901219047206A401C2062F1E7002560
:100580005F462046E16888472028064607DB312E73
:1005900005D2B81910F8200C08B10543F1E7A807F7
:1005A00001D525F00405C4F81CA00027C4F818A044
:1005B0002A2E09D0304605F0CFFB38B304EB87086C
:1005C000303EC8F8186019E059F8041B204604EBC7
:1005D00087029161E1688847012F064618D1E069DA
:1005E000002820DA25F020051DE0D8F8180000EBDF
:1005F000800006EB40003038C8F818002046E1685B
:100600008847064605F0A8FB0028EED1012F0AD046
:100610002E2E08D12046E16888477F1C0646022F0F
:1006200045F02005C4DBA069002803DA404245F00C
:100630000105A061E80701D025F01005A6B1A6F1DB
:100640004100192802D8203645F400654A46314653
:10065000204625604D46FFF709FE60B1012807D00E
:10066000ED1D25F0070000E007E000F1080978E73C
:1006700005F1040975E730467AE7206ABDE8F09F86
:100680006079000010B5431C02E010F8011B71B145
:100690008107FAD14FF0013202C88C1A8C4314EA58
:1006A000C211F9D0C01A0A0603D0C01E10BDC01A6C
:1006B00010BD0A0401D0801E10BD0902FCD0401EEE
:1006C00010BD032A40F2308010F0030C00F01580BA
:1006D00011F8013BBCF1020F624498BF11F801CB45
:1006E00000F8013B38BF11F8013BA2F1040298BFAA
:1006F00000F801CB38BF00F8013B11F0030300F014
:10070000F582083AC0F0088051F8043B083A51F8E5
:1007100004CBA0E80810F5E7121D5CBF51F8043BBC
:1007200040F8043BAFF30080D20724BF11F8013B2F
:1007300011F801CB48BF11F8012B24BF00F8013B91
:1007400000F801CB48BF00F8012B704702F0FF030F
:1007500043EA032242EA024200F0FCBA4FF00002F0
:1007600000B5134694469646203922BFA0E80C50A7
:10077000A0E80C50B1F12001BFF4F7AF090728BF82
:10078000A0E80C5048BF0CC05DF804EB890028BFFE
:1007900040F8042B08BF704748BF20F8022B11F027
:1007A000804F18BF00F8012B7047704770477047A3
:1007B00010B500F0F3FA006810BD10B5044600F063
:1007C000EDFA046010BD2DE9F0470D4699469246BA
:1007D000044600F124080168880604D5E06921F088
:1007E0001001216000E00120A84201DD471B00E06C
:1007F0000027A1697A1902EB0900081AA061207884
:10080000C00602D42046AFF30080002608E0D4E9F9
:1008100001211AF806009047206A401C761C2062CD
:100820004E45F4DB2078C0060AD52046AFF30080A1
:1008300006E0D4E9012130209047206A401C206264
:10084000381EA7F10107F4DC07E0D4E9012118F80C
:1008500005009047206A401C2062281EA5F1010572
:10086000F3DC2046AFF300802078000602D502209A
:10087000BDE8F0870120FBE770472DE9FF4F0C46EC
:100880001E464FF0FF378BB0D2E90001DDF86080E3
:100890000A908A46C1F30A5505B93D46002108462B
:1008A0004FF00000BAF1000F00F4400005DA00EB51
:1008B00080004FF4400101EA50004FEA9059B9F12D
:1008C000010F00DDB9460A9850EA4A000ED044F6FE
:1008D0001050A5F2FF3545432F14B8F1000F1ED07C
:1008E0007542291E1EDDC9F100021CE0B8F1010F9E
:1008F0004FF0000001D0302103E0F24305E0215425
:10090000401CB042FBDB30460022002121540B99F1
:10091000C1F80880C1E900200FB0BDE8F08FBD1B11
:100920006D1CDEE74A4600DA694206A800F0C0FA0C
:1009300006AB93E8070003AB83E8070050460A992B
:1009400000F078FF8DE80700A0F500501F380090F8
:100950000398002D0ADD42F21F014A460844002395
:1009600003A90390684601F0E1F909E0A0F5005001
:100970004A461F38002303A90390684601F0EBF9AB
:100980008DE807000004000C03D04FF0FF30410851
:1009900000E01046B8F1000F03D000220092154687
:1009A0001EE0751E05D400F0FDF9303262556D1E53
:1009B000F9D5B3460122084302D000227F1C04E08F
:1009C0002078302801D100227F1E002A099784D088
:1009D0001DE0112D07DA00F0E5F9303262556D1C8B
:1009E00050EA0102F5D1084302D00098C8B10EE0E8
:1009F0000021681E05E0235C625C63542254401EA3
:100A0000491C8142F7DBAB46A81B401E0990002021
:100A100004F80B000B98099AC0F80880C0E9002B75
:100A20007AE711264FF0000857E72DE9F04F884686
:100A30000446D21D22F0070191B0D1E90001CDE9B1
:100A40000A0105F00CF802460B98C00F01D02D20CA
:100A500007E02068810701D52B2002E0202101EA70
:100A6000C000032A099001D0072A05DB034641464E
:100A7000204600F0DDF90BE12078800601D5E06921
:100A800000E00620B8F1650F814606D0B8F1660F88
:100A900018D0B8F1670F70D131E00020B9F1110F13
:100AA000009001DB112301E009F101030AAA01A969
:100AB0000CA8FFF7E2FEDDE90C70002609F1010544
:100AC000834647E001204B4600904FF000470AAABA
:100AD00001A90CA8FFF7D1FEDDE90DB00C995D4628
:100AE000002610B909F101000D18B9EB050003D477
:100AF000C0F1FF3609F10105A5EB09002BE0B9F1C2
:100B0000010F01DA4FF001090020B9F1110F009037
:100B1000484601DD112300E003460AAA01A90CA8FA
:100B2000FFF7ABFEDDE90C704D46002683462078CA
:100B300000070AD4AB4500DA5D4601A8012D04DDAB
:100B4000411911F8011C302907D04F4502DA17F17D
:100B5000040F04DA012082460FE06D1EEEE7002F3D
:100B600002DCED1B3E4403E0781CA84200DD7D1C46
:100B7000B81B00F1010A4FF000472078000703D4AA
:100B8000AA4501DB4FF0FF3A0021B7F1004F0DF10C
:100B900043088DF8431024D002202B23002F01DAC4
:100BA0007F422D230A21021EA0F1010000DC5FB16B
:100BB00097FBF1FC97FBF1F201FB1C7C17460CF153
:100BC000300C08F801CDEEE7A8F101000370218890
:100BD000090501D5452100E06521A0F1010800F8D3
:100BE000011C09980FA9A1EB0807FF1D00B1012006
:100BF000411901EBEA70A1693844081A401EA0614E
:100C00002078C00602D42046AFF30080099828B1AE
:100C1000D4E901219047206A401C20622078C00658
:100C200022D52046AFF300801EE0002E04DBB34542
:100C300002DD01A8805D00E03020D4E90121904769
:100C4000206A401C2062761CAAF101005FEA000ABB
:100C50000AD100F09FF8C0680168405CD4E9012126
:100C60009047206A401C2062281EA5F10105DCDCAB
:100C700007E0D4E9012118F8010B9047206A401CD5
:100C80002062381EA7F10107F3DC2046AFF3008095
:100C9000032011B041E6000001694A1C0261087896
:100CA000704700B58FB0CDE90131002105910549AC
:100CB0007944CDE9031011466846FFF747FC0FB0B1
:100CC00000BD0000E5FFFFFF074B70B50D467B44FC
:100CD000FFF7E7FF0446284600F05CF910B14FF03B
:100CE000FF3070BD204670BD9750000010B5203A0F
:100CF000C0F00B80B1E81850203AA0E81850B1E8D5
:100D00001850A0E81850BFF4F5AF5FEA027C24BF8A
:100D1000B1E81850A0E8185044BF18C918C0BDE881
:100D200010405FEA827C24BF51F8043B40F8043B4A
:100D300008BF7047D20728BF31F8023B48BF11F8FF
:100D4000012B28BF20F8023B48BF00F8012B704759
:100D50004FF000020429C0F0128010F0030C3FF4A1
:100D6000FFACCCF1040CBCF1020F18BF00F8012B52
:100D7000A8BF20F8022BA1EB0C01FFF7F1BC5FEA42
:100D8000C17C24BF00F8012B00F8012B48BF00F8FC
:100D9000012B7047004870472C50002000487047D6
:100DA0000C50002030B5B0F10A024FEA900E71F1FC
:100DB00000034EEA817EB0EB0E0061EB91014FEA39
:100DC000101E4EEA017E10EB0E0041EB11114FEAAE
:100DD000102E4EEA016E10EB0E0041EB11214FEA8E
:100DE000104E4EEA014E10EB0E0041EB114140183F
:100DF00041F100014FEAD00040EA41704FEAD101D1
:100E000010EB80054FEA810444EA907444EB01043E
:100E10006D1944EB0404521BA3414FF0000348BF7B
:100E20000A3200D530BD401C41F1000130BD000048
:100E30002DE9F0411F46044603260168072A01F404
:100E4000006004DB08B116A505E016A503E008B1B3
:100E500015A500E015A521F010002060A069C01EB6
:100E6000A0610FB1401EA0612046AFF300804FB1DA
:100E7000D4E9012138469047206A401C2062C01CFA
:100E8000206206E0206AFAE7D4E9012115F8010B97
:100E90009047761EF8D22046AFF30080BDE8F0817F
:100EA0004E414E006E616E00494E4600696E66000E
:100EB0002DE9F047814616468AB0354878440DC87A
:100EC0008DE80D0032487844801C03AC0DC884E8DE
:100ED0000D0041F69B300844372190FBF1F290FB66
:100EE000F1F5A5F1800501FB12041B3C02D564421B
:100EF000012000E00020DFF898A080460027FA4497
:100F0000AAF1BE0A0EE0E0070AD03246684607EBB7
:100F1000470101230AEB810100F01DFF8DE8070066
:100F200064107F1C002CEED1194F7F44AE3F19E0B6
:100F3000E80715D007EB04100DF1180A90E80E0031
:100F40008AE80E00C068F04201D198190890324634
:100F5000012306A903A800F0FEFE03AB83E8070007
:100F60006D10641C002DE3D14FF001033246694639
:100F7000B8F1000F03A802D000F0D8FE01E000F0A5
:100F8000EAFEC9E90001C9F808200AB0BDE8F08707
:100F9000E4700000007B00F08000704710B542480C
:100FA0005421FFF7DBFB41485421FFF7D7FB4048B2
:100FB0005421FFF7D3FB3F493B483C4A3F4B086075
:100FC0003D490A603A491960531C0365481C106585
:100FD000012008653B48344A39A1784400F022F9E1
:100FE00020B9384878440A3800F0C1F937482F4A08
:100FF00035A1784400F016F920B9344878440A380D
:1010000000F0B5F932482A4A2FA1784400F00AF9D5
:1010100020B92F4878440A3800F0A9F94023224823
:10102000DC000021224600F0D9F820B125487844A0
:10103000543800F09CF91D4822464023002100F05E
:10104000CDF820B121487844543800F090F9184880
:1010500022461023002100F0C1F8002806D01C48C9
:101060007844BDE81040563800F081B910BD1048F2
:1010700070B5006D20F001040B4800F049F90B48F1
:1010800000F046F90A4800F043F909E0206D20F02D
:101090000105204600F03CF9204600F078F82C4687
:1010A000002CF3D170BD0000104F0020644F0020D1
:1010B000B84F0020D0000020D4000020D80000202D
:1010C00072000000DE6F000077000000CA6F0000B1
:1010D000B66F00000EB5CDE90001FFF7D3FA02901C
:1010E00069460120ABBE0EBD08B5694600900220DE
:1010F000ABBE08BD1FB58DE8070069460520ABBE35
:1011000004B010BD1FB58DE80F0069460620ABBEC8
:10111000F6E708B5694600900920ABBE08BD1CB5CE
:10112000CDE9000169460A20ABBE1CBD704708B579
:10113000694600900C20ABBE08BD00000048704717
:101140000C5000207546FFF7F9FFAE4605006946D2
:10115000534620F00700854618B020B5FFF724F964
:10116000BDE820404FF000064FF000074FF00008A8
:101170004FF0000B21F00701AC46ACE8C009ACE829
:10118000C009ACE8C009ACE8C0098D46704770B52D
:101190000446051F00F028F90068002C14BF4468BD
:1011A00070BD002C18BFAC423CBF20466468F8D329
:1011B00001680A18AA4218BF456003D12A6805468B
:1011C0001144016028684119A1421CBF6C6070BDC8
:1011D0006168696021680844286070BD70B5C468A2
:1011E000A50713D0650211D4B2F5807F09D0B2F5FE
:1011F000007F06D0B2F5806F08D1012300F12401F1
:1012000006E05D1E6FF07F46B54201D3012070BD40
:101210000161C361416024F470611143C160002029
:1012200070BD00002DE9F0410C46074616461046F9
:1012300000F06EF82078611C61280AD0722802D074
:1012400077283CD102E00125002405E00225042492
:1012500002E0082448F2020511F8010B2B2806D001
:10126000622809D011F8010C74280AD00BE045F06F
:10127000030544F00204EFE745F0040544F00104DF
:10128000EAE744F0100438462146FFF723FF411CEB
:1012900015D00021316171604FF40071F560F1618A
:1012A0007061200704D530460222002100F016F9B3
:1012B000306D40F0010030653046BDE8F08100201F
:1012C000FBE72DE9F0410D460646104C206DC107A5
:1012D00004D0410804D020F00104F7E722460EE0D4
:1012E000542000F0CCF807000ED0206D47F001012B
:1012F0000843542120653846FFF730FA3A4629461C
:101300003046BDE8F0418DE70020D6E7104F0020C1
:101310002DE9F04704464FF000094FF0FF37C5684C
:10132000D4E90486A80707D0204600F087F93046A4
:10133000FFF7DAFE002802DA3846BDE8F087280514
:1013400002D54046FFF723FF4C212046FFF706FA5F
:10135000206D20F0010020654846EEE710B50446F8
:10136000AFF300802046BDE81040FEF7A6BF10B5E1
:1013700000F0AEF9BDE8104000F0A4B94FF0013C18
:1013800050F8042B51F8043B9A4215D1A2EB0C0300
:10139000934313EACC130BD150F8042B51F8043BC0
:1013A0009A4209D1A2EB0C03934313EACC13E7D082
:1013B0004FF00000704700BFD01A01BAB1FA81F1B6
:1013C00001F0180122FA01F0CB40C1F12001DBB29B
:1013D000C0B2C01A2CFA01F3D11A914311EAC31119
:1013E000E6D1704770470000004870471450002055
:1013F000704770477047704738B504460A4600206A
:101400006946AFF30080002808BF38BD0246009946
:10141000204600F084F9012038BD012000F0D3B946
:10142000F8B5AFF30080054600200C46102000BF41
:101430000646A819A0420DD9324669460020AFF3EE
:101440000080070008BF00F0BEF90098A04218BF56
:101450000546C419FFF7C8FF05600746F01D20F0D8
:1014600007004619284600F053F9B44208BFF8BDFA
:10147000A21B31463868BDE8F84000F050B970B59D
:101480000646FFF7B1FF056806F10B0020F00704E0
:10149000B4429CBF002070BD2B466A68BAB1106888
:1014A000A04210D304F1080188423CBF5068586044
:1014B00007D35168101941601168091B0160586019
:1014C0001460101D70BD13465268002AE7D12146F2
:1014D0002846FFF791FF0028DED170BD2DE9F041CD
:1014E000044616460D464769007B80072ED03846D5
:1014F000FFF70FFE50BB3EB3012E02D0022E25D1C6
:1015000004E0204600F025F905441DE03846FFF7C9
:101510000EFEE168002841F01001E16005DA204686
:1015200000F058F80120BDE8F081C9030BD56268CE
:10153000E16A914200D81146A26911442269891AD0
:10154000814200DD08460544002D01DA0220EAE769
:10155000E16A6068E268814206D29103E06203D5E5
:1015600022F4003141F01002A6690027AE4213DCDC
:10157000E16A814201D90B4600E0034603EB060C09
:101580002369ACEB030CAC4506DD814201D98C46E6
:1015900000E084469C4505D1A760276042F020000A
:1015A000A5620DE0AD1BE669AE1B8142A66000D9C5
:1015B0000846C01A281A20605819606022F02000DE
:1015C00003490840E060002084F84870ABE7000061
:1015D000BFCFD7FFC16821F4001141F08001C16085
:1015E00000218160016070472DE9F0478146144673
:1015F0000E464FF0FF383248D5685769054209D08A
:101600003846A169FFF78BFD002811DB2C48C04349
:101610000540E5602B46324649463846FFF76AFDED
:10162000A16920F00042B21A11440028A16103D040
:101630002046FFF7CFFF4046BDE8F08770B504466F
:101640000569C06A6168884200D80846E16821F4EB
:101650002011E160C90312D5A84208D02246411BDF
:101660002846FFF7C1FF10B14FF0FF3070BD0020DA
:10167000E562C4E90150E06820F48030E0600020B9
:1016800070BD10B50446C06820F02000E060A16A7B
:10169000A06988420DD02046FFF7D0FFE06820F413
:1016A000405040F01000E060A06AA0612069E06254
:1016B000606044F24001E0688843E06010BD0000D3
:1016C00010000200002801D000F01CB87047000094
:1016D00010B5014602A000F05DF8012010BD000029
:1016E00053494752545245443A20526564697265E1
:1016F00063743A2063616E2774206F70656E3A20C0
:101700000000000001491820ABBEFEE726000200E1
:1017100000210160C0E901107047102070470346A6
:1017200040688C46002818BF88423CBF034640688A
:10173000F8D318681844884207D00CF1030020F051
:101740000700001D411A521A0146081D0A60FFF7E2
:101750001EBD10B50146C268900703D0900607D59C
:10176000886A0AE0FFF71AFB01210160881E10BD9C
:101770008B69486818440B69C01A91F848301BB14E
:1017800091F84910401A10BD1103FCD50028FADD6C
:10179000401E10BD70B505460C460A2000E06D1CC9
:1017A00000F018F835B128780028F8D102E0641C60
:1017B00000F010F814B120780028F8D1BDE870408E
:1017C0000A2000F007B810B500F00CF8BDE8104092
:1017D000FFF778BF08B569468DF800000320ABBE5F
:1017E00008BD000010B5012805D0002103A0FFF7B7
:1017F000D1FF012010BD09A1F8E70000534947526D
:10180000544D454D3A204F7574206F6620686561D0
:1018100070206D656D6F7279000000003A20486598
:101820006170206D656D6F727920636F7272757073
:10183000746564005FEA400C08BF91F0000F4FEA46
:101840008C234FEAC12243EA51514FEA1C5018BF82
:1018500000F5F0404FEA300018BF41F000415FEA68
:101860006C5C00F02980BCF1FF3F08BF40F0804075
:101870007047130C06BF12044FF0100C4FF0000C11
:10188000130E04BF12020CF1080C130F04BF120157
:101890000CF1040C930F04BF92000CF1020CD30F57
:1018A00004BF52000CF1010C11464FF00002A0F1F0
:1018B0001F00A0EB0C00704711F0004F08BF7047ED
:1018C00031F000413FF4D5AF0B0C06BF09044FF0D7
:1018D000100C4FF0000C0B0E04BF09020CF1080CA9
:1018E0000B0F04BF09010CF1040C8B0F04BF89001E
:1018F0000CF1020CCB0F04BF49000CF1010CCCF130
:101900002003A0EB0C0022FA03F302FA0CF241EAE6
:10191000030100F10100704720F07F4C80EA0300D2
:1019200023F07F47ACEB070303F57C5300F0004046
:1019300003F1FF032DE980494FEA154B09B44FEA43
:10194000144325EA0B4E24EA03480FF2042606EB63
:10195000132749083E785FEA320203FB0667C7F5A2
:10196000000707FB06F64FEA54374FEAD64606F162
:10197000020607FB066CCCF1005C4FEA1C472CEA20
:10198000074C07FB06F40CFB06F504EB15464FEA83
:10199000961634BF00204FF000404FEAD13706FBC7
:1019A00007FC4FEA1C4C0CFB0BF7D21B03FB0CF79C
:1019B00061EB07010CFB0EF7B0EB074072EB17422F
:1019C0000CFB08F734BFA2EB0742B2EB074261EB16
:1019D00017414FEA0C444FEA910706FB07FC4FEA18
:1019E0001C4C0CFB0BF7B0EBC74072EB573203FB00
:1019F0000CF734BFA2EBC742B2EBC74261EB5731E1
:101A00000CFB0EF7B0EBC70072EB57720CFB08F73C
:101A100034BFA2EBC702B2EBC70261EB5771039F61
:101A20004FEA816141EA921104EBCC044FEAD137CD
:101A30004FEA826206FB07FC42EA90124FEA80609E
:101A40004FEA1C4C0CFB0BF7D21B03FB0CF761EBB2
:101A500007010CFB0EF7B0EB074072EB17420CFBD3
:101A600008F734BFA2EB0742B2EB074261EB174124
:101A70004FEA8C554FEA910704EB9C2406FB07FCC8
:101A80004FEA1C4C0CFB0BF7B0EBC74072EB573224
:101A900003FB0CF734BFA2EBC742B2EBC74261EBCA
:101AA00057310CFB0EF7B0EBC70072EB57720CFB13
:101AB00008F734BFA2EBC702B2EBC70261EB577164
:101AC00015EB4C254FEA816141EA92114FEA82629F
:101AD0004FEAD13742EA901206FB07FC44F10004BA
:101AE0004FEA80604FEA1C4C0CFB0BF7D21B03FB48
:101AF0000CF761EB07010CFB0EF7B0EB074072EB44
:101B000017420CFB08F734BFA2EB0742B2EB0742C7
:101B100061EB174115EB1C154FEA813141EA924107
:101B20004FEA823242EA90424FEA80304FEA0C7626
:101B300044F1000448EA03434EEA0B484FF0000E1C
:101B4000B2EB080C71EB030724BF624639464EEB3B
:101B50000E0E4FF0000B0018524149414BEB0B0B9E
:101B6000B2EB080C71EB03077BF1000B24BF62465C
:101B700039464EEB0E0E4FF0000B00185241494112
:101B80004BEB0B0BB2EB080C71EB03077BF1000B7B
:101B900024BF624639464EEB0E0E51EA020718BFCB
:101BA00046F0010616EB0E7655F1000254F10001E5
:101BB00003D5BDE88901BDE80088BDE88901BDE81D
:101BC0000048B619524141EB0101A3F101037047EE
:101BD00080807F7E7D7C7B7A79787776767574736A
:101BE000727171706F6E6E6D6C6C6B6A6A69686829
:101BF000676666656464636362616160605F5F5EBF
:101C00005E5D5D5C5C5B5B5A5A5959585857575634
:101C10005655555554545353525252515150505099
:101C20004F4F4F4E4E4D4D4D4C4C4C4B4B4B4A4AEB
:101C30004A4949494848484747474746464645452F
:101C40004544444444434343434242424241414168
:101C5000002B9C4630D477002BD01CB54FEA3707B9
:101C600003B44FF010004FF01001BAF1000F06D08E
:101C7000BCF1000FDCBF40F0080040F008014FF05D
:101C800000000FBCBDE810400BF1010BBBF1010FD0
:101C900008BF5FEA170722BF12F1010211F101012B
:101CA0004FF0004143F1000300F0004043EA000020
:101CB0007047F9D35708D0E746EA064613F1400FBC
:101CC0004FEA16461FDD13F1200FDFBF16430A4609
:101CD000002120335B42BED0C3F1200746EA06460E
:101CE00002FA07F74FEA164646EA0706C3F120074D
:101CF00022FA03F201FA07F721FA03F14FF0000389
:101D000042EA0702A7E746EA020646EA06464FEA23
:101D1000164646EA0106BCBF46EA0646360C4FF0B8
:101D200000034FF000024FF0000194E72DE9804CD2
:101D30009A46934670B491E8380007C831EA400CDF
:101D400048BF34EA430C03D5FFF7E6FDFFF780FFF9
:101D5000F0BCBDE8008C2DE9804C9A46934670B4E7
:101D600091E8380007C810F0804F08BF13F0804F8B
:101D700003D100F005F8FFF76BFFF0BCBDE8008C65
:101D800020F07F4780EA030023F07F4C07EB0C0331
:101D9000A3F57C5300F00040A3F1FE0392F0000F86
:101DA00000F0B38095F0000F00F077802DE9014935
:101DB0004FEA11404FEA144621EA004800FB06FCB6
:101DC00024EA064708FB06F607FB08F800FB07F7BE
:101DD00018EB06484CEB164C4FEA124B18EB074831
:101DE0004FEA15464CEB174022EA0B4E0BFB06FC64
:101DF00025EA06470EFB06F607FB0EFE0BFB07F770
:101E00001EEB064E4CEB164C4FF000061EEB074E39
:101E10004CEB174B18EB0B0840F1000018EB0E0BC6
:101E200058EB000840F100008F1A4FF000013CBF52
:101E3000C943661B14BFB5EB040C00213CBFC9436A
:101E4000F61B4FEA17444EEA8E0E27EA04454FEA86
:101E50001C4704FB07622CEA074C05FB07F70CFB49
:101E600005F604FB0CFC16EB074642EB174216EB9B
:101E70000C4642EB1C421BEB060658EB02024141AA
:101E800046EA9E0601D5BDE80189B619524141EBEB
:101E90000101A3F10103BDE801894FEA14454FEAAE
:101EA000114724EA054621EA074C05FB07F406FB27
:101EB00007F70CFB06F105FB0CFC11EB074144EBAB
:101EC00017444FEA124711EB0C4144EB1C4422EA41
:101ED000074C05FB07F206FB07F70CFB06F605FBB4
:101EE0000CFC16EB074642EB174216EB0C4642EB96
:101EF0001C456A1854F1000148BF7047B619524199
:101F000041EB0101A3F10103704795F0000F37D0B9
:101F10004FEA11424FEA144721EA024624EA074CED
:101F200002FB07F106FB07F70CFB06F402FB0CFCB7
:101F300014EB074441EB17414FEA154714EB0C44EF
:101F400041EB1C4125EA074C02FB07F506FB07F7AE
:101F50000CFB06F602FB0CFC16EB074645EB17459F
:101F600016EB0C4645EB1C42121951F1000148BF1B
:101F70007047B619524141EB0101A3F101037047CB
:101F80004FEA14454FEA114724EA054621EA074C77
:101F900005FB07F106FB07F70CFB06F24FF0000606
:101FA00005FB0CFC12EB074241EB174112EB0C4214
:101FB00051EB1C4148BF7047921841EB0101A3F15E
:101FC00001037047014800F0E5B90000E00000207F
:101FD0004A496FF0706210B5D1F8043323F44033EE
:101FE000C1F80433D1F8043344682343C1F80433FF
:101FF00001684B6823F480734B60016803694C6887
:1020000044EA03234B6001684B6823F040734B6044
:10201000016884684B6823434B6001688B6823F434
:1020200000638B600168C4688B6823438B60816A9E
:10203000D14201688A6822F070628A6001680DD01E
:10204000836A8A681A438A6001688A6822F040526B
:102050008A600168C36A8A681A4302E08A6822F0CB
:1020600040528A6001688A6822F002028A60016830
:1020700082698B6843EA42028A6090F82010002946
:10208000016811D01E4A4B6843F400634B6001683D
:102090004B6823F460434B600168446A4B6802EB71
:1020A000443213434B6003E04A6822F400624A6002
:1020B0000168144BCA6A22F47002CA620168848BF8
:1020C000CA6A03EB04531A43CA6201688A6822F49D
:1020D00000728A60016890F830208B6843EA4222DF
:1020E0008A6001688A6822F480628A6001684069B7
:1020F0008A6842EA8020886010BD0000002001400C
:1021000000E0FFFF0000F0FFFEE7704770470000AF
:10211000014800F0B1BA000010040020014800F0AE
:10212000ABBA000070040020014800F0A5BA00001E
:10213000D0040020014800F09FBA000030050020C4
:10214000014800F099BA0000B0030020016818238C
:10215000CAB2103AB2FBF3F2054B6FF30901032A3E
:102160009B5CC36500D9091D816508467047000066
:10217000A07E000810B583694FF0C074826A0146E2
:10218000002053B1B3F5005F15D072B1012A0CD015
:10219000022A0AD0032A09D104E01AB1012A06D082
:1021A000022A03D1C96AC90100D5012010BDC96A3C
:1021B000A142FAD010BD002AF7D0012AF2D0022A9B
:1021C000F3D0032AF3D010BD704772B6FEE7704714
:1021D000F8B50025009590F83C20012A1DD0012279
:1021E00080F83C20664C0723D6070A68092A22D9C2
:1021F000B24220D007680A3A02EB420CFA6803FAAE
:102200000CF39A43FA600A68A24208D102680B7A7A
:10221000D76847EA0363D36022E00220F8BD07686D
:102220000A3A8B6802EB4202D7F80CC0934043EAAB
:102230000C03FB6014E0076802EB4202D7F810C001
:1022400093402CEA030CC7F810C003680F788A6823
:10225000D3F810C007EB4707BA4042EA0C021A61F4
:102260004A681F23072A16D20768521E02EB820C07
:102270007A6B03FA0CF39A437A6303680F790A883E
:102280007F1ED3F834C092B207EB8707BA4042EA08
:102290000C025A632DE007680D2A15D2D21F02EBFB
:1022A000820C3A6B03FA0CF39A433A6302680F7993
:1022B0000B88FF1FD2F830C09BB207EB8707BB40EB
:1022C00043EA0C03136314E00D3A02EB820CFA6A42
:1022D00003FA0CF39A43FA6203680F790A880D3FF8
:1022E000D3F82CC092B207EB8707BA4042EA0C023F
:1022F000DA62244A0368934208D10B68B34205D1DD
:10230000D2F8043323F44003C2F804330368934241
:102310000ED10B68122B0BD1D2F8043323F4000337
:10232000C2F80433D2F8043343F48003C2F8043310
:102330000368934220D10B68A34201D0112B1BD11B
:10234000D2F8043323F48003C2F80433D2F8043300
:1023500043F40003C2F804330968A1420CD10A49CE
:102360000A4A0968B1FBF2F101EB8101490000E082
:10237000491E00910029FBD180F83C500020F8BD97
:1023800012000010002001405400002040420F00C5
:102390007047704770B5044600680668456816F0D7
:1023A000020F05F020012AD049B3216CC90603D4DD
:1023B000216C41F400712164816811F0405F17D1F4
:1023C000A169A9B9C16A11F4700F02D081684905E9
:1023D0000ED4416821F020014160206C20F480700F
:1023E0002064206CC00403D4206C40F00100206401
:1023F0002046FFF7CDFF21686FF01200086016F04D
:10240000040F05F0800132D089B3206CC00603D4DC
:10241000206C40F4005020642068816811F4401F53
:102420001ED1816B11F4401F02D08168490517D479
:102430004168490514D4816811F0405F10D1A16949
:1024400071B9416821F080014160206C20F4805016
:102450002064206CC00503D4206C40F0010020648F
:102460002046FFF7B4FE21686FF00C00086016F0FC
:10247000010F05F040010FD071B120680068C0075E
:102480000AD0206C40F480302064204600F043F8ED
:1024900021686FF00100086016F0200F05F08061E0
:1024A0000ED000290CD0606C6FF0200540F00200C7
:1024B0006064206805602046FFF76BFF20680560B8
:1024C00070BD70B504004FF0000503D0206C0026ED
:1024D00010B107E0012070BD204600F01DF86664D1
:1024E00084F83C60206CC00610D4206C20F4885026
:1024F00040F0020020642046FFF76AFD6664206C0D
:1025000020F0020040F00100206400E0012584F882
:102510003C60284670BD704770B586B006461421F1
:102520006846FEF71BF92149306888423BD12048B4
:10253000016841F480710160006800F480700590CA
:102540001B481438016841F0010101600068002552
:10255000032100F00100059080208DE8230015483C
:10256000694600F0CBF9144C14480115C214C4E9B3
:10257000000504F11400A560CB00C4E9035180E814
:102580002C0025622046656200F046F908B1FFF78D
:102590001CFEB46300220521A663122000F040FB5C
:1025A000122000F02FFB06B070BD0000002001409B
:1025B0004438024000000240B00300201064024092
:1025C0002DE9F041876D044600F0C6FA064694F8FE
:1025D00035000025022806D080206065012084F89F
:1025E0003450BDE8F0812068016821F016010160D7
:1025F0002068416921F080014161206C08B9A06C1C
:1026000020B12068016821F008010160206801689C
:1026100021F0010101600CE000F09EFA801B05280A
:1026200007D920216165032084F8350084F83450EF
:10263000D7E720680068C007EED194F85C203F20FF
:1026400001219040B86084F83510002084F834509F
:10265000C7E790F83510022903D080214165012099
:102660007047052180F835100068016821F00101EC
:1026700001600020704700002DE9F84304464FF048
:102680000009644B0820CDF800904FF41652A56D58
:1026900094F85C101B682E68B3FBF2F700FA01F1A6
:1026A00031420FD021680A6852070BD50A6822F020
:1026B00004020A6094F85C108840A860606D40F0E5
:1026C0000100606594F85C104FF0010808FA01F011
:1026D000304208D021684969090604D5A860606DB8
:1026E00040F00200606594F85C100420884030429D
:1026F00008D021680968890704D5A860606D40F09A
:102700000400606594F85C1010208840304218D0B6
:1027100021680968090714D5A86020680168490381
:1027200004D50068000308D5A16C07E00168C9055D
:1027300003D4016821F008010160216C09B1204631
:10274000884794F85C1020208840304231D02168BE
:102750000968C9062DD5A86094F8350005282068B9
:10276000016806D0490347D5006800031DD4616C99
:102770001CE021F0160101602068416921F0800110
:102780004161206C08B9A06C20B12068016821F07B
:102790000801016094F85C303F229A40AA6084F8F6
:1027A000358084F83490216D1FE0E16B09B120463B
:1027B0008847606D00282BD0606DC00714D00520BD
:1027C00084F835002068016821F00101016000985B
:1027D000401C0090B84203D820680068C007F6D1BA
:1027E00084F8358084F83490E16C002910D001B071
:1027F0002046BDE8F04308470168C905D5D4036801
:1028000023F01003036084F8358084F83490CCE71B
:10281000BDE8F883540000202DE9F047044600F09D
:102820009BF9054664B102214FF0000984F8351088
:1028300084F834902068016821F0010101600EE005
:102840000120BDE8F08700BF00F086F9401B052895
:1028500005D920216165032084F83500F1E720685F
:102860000068C007F0D1D4E90020D4E90251D4E9CE
:10287000043C284304F1180519430843116895E8FE
:10288000E00140EA0C001C4B2843194040EA0600D6
:1028900040EA0700B8F1040F40EA010003D1D4E98F
:1028A0000B1319430843106020680126656A4069CC
:1028B000042D20F0070045EA00050CD1D4E90A01F7
:1028C000054341B12046FFF755FC20B1402060652B
:1028D00084F83560B4E7206845612046FFF736FC90
:1028E00094F85C303F229A408260C4F8549084F897
:1028F00035600020A5E700003F8010E02DE9F84F8B
:10290000DFF80CB2012403254FF00F0A00220BF16F
:10291000040E00BF0B6804FA02F63340B34278D1CC
:102920000F7907F00307012F01D0022F1AD1876812
:102930004FEA4209D1F80CC005FA09F827EA08075E
:102940000CFA09FC4CEA070CC0F808C0476891F87B
:1029500004C0B743CCF3001C0CFA02FC4CEA070C91
:10296000C0F804C00E79F643B6070BD0C6684FEA2C
:10297000420C8F6805FA0CF826EA080607FA0CF7ED
:102980003743C7600E7906F00306022E12D1D6082F
:102990004FEA427800EB860600960F69D6F8209041
:1029A0004FEAD8660AFA06FCB74029EA0C06374314
:1029B000009E37620F7906684FEA420C07F0030762
:1029C00005FA0CF807FA0CF726EA08063743076001
:1029D0004E6816F4403F1CD04E4E376847F480478F
:1029E0003760366822F00308970706F480460096A1
:1029F000494E3F0F4644B146D6F80868DFF81C81BF
:102A00000AFA07FC404526EA0C0603D14FF0000CF9
:102A100041E076E0DFF808C1604502D14FF0010CDB
:102A200039E0DFF800C1604502D14FF0020C32E01E
:102A3000DFF8F4C0604502D14FF0030C2BE0DFF863
:102A4000ECC0604502D14FF0040C24E0DFF8E0C098
:102A5000604502D14FF0050C1DE0DFF8D8C060459D
:102A600002D14FF0060C16E0DFF8CCC0604502D171
:102A70004FF0070C0FE0DFF8C4C0604502D14FF003
:102A8000080C08E0DFF8B8C0604502D14FF0090C2F
:102A900001E04FF00A0C0CFA07FC4CEA060CC9F8EE
:102AA00008C84F68DBF80060FF0226EA030600D57D
:102AB0001E437746CBF80060D1F804C0DEF8006012
:102AC0005FEA8C2C26EA030600D51E43DFF840C0DF
:102AD0003E60ACF1040C4F68DCF80060BF0326EAEE
:102AE000030600D51E430A4FCCF80060083FD1F81A
:102AF00004C03E685FEACC3C26EA030600D51E43CC
:102B00003E60521C102AFFF405AFBDE8F88F0000AC
:102B1000083C0140443802400030014000000240BF
:102B20000004024000080240000C02400010024075
:102B30000014024000180240001C02400020024025
:102B4000002402400069084000D0012070470AB10B
:102B5000816170470904FBE7014880687047000005
:102B60004800002002488168027811448160704763
:102B700048000020032010B500F072F80F2000F08C
:102B800005F800F023F8002010BD000070B50D4DD1
:102B900004464FF47A700C4A29781268B0FBF1F0C1
:102BA000B2FBF0F000F0F8FD48B9102C07D200227B
:102BB0002146501E00F034F800206C6070BD0120EA
:102BC00070BD000048000020540000200C4882B076
:102BD000016841F080510160006800F08050009071
:102BE0000748001D016841F480410160006800222F
:102BF0000F2100F480400090901E02B000F010B849
:102C000040380240002809DB410900F01F0289001A
:102C1000012001F1E0219040C1F80001704700005F
:102C20000E4BF0B41B680D46C3F30223C3F1070635
:102C3000042E00D90426191D072901D2002300E023
:102C4000DB1E012404FA06F19C40491E2940641E43
:102C5000994014402143F0BC02F019BF0CED00E094
:102C6000064900F0070210B54FF6FF040868044B50
:102C7000204040EA02201843086010BD0CED00E03F
:102C80000000FA051848F8B5016841F0805101606C
:102C90000068164C00F080500090206840F48030AE
:102CA0002060FFF759FF4FF47A76054605E000BF34
:102CB000FFF752FF401BB0420FD86068C003F7D542
:102CC000206840F400302060FFF746FF054606E02C
:102CD000FFF742FF401BB04201D90320F8BD6068F6
:102CE0008003F5D50020F8BD403802400070004058
:102CF0002DE9F84F04460078DFF824944FF00006E1
:102D00003746C0070ED0D9F8001021F40001C9F8E9
:102D10000010D9F80010626B1143C9F80010606B05
:102D200000B90126FE4D2068843500030ED5E16B05
:102D3000286820F4401008432860E06BB0F5801F3D
:102D400001D010B102E0012600E0012720684FF415
:102D5000800BC0020CD5216C286820F44000084389
:102D60002860206C584501D1012601E000B90127F7
:102D70002068C10100D50126800666D5E8483830B4
:102D8000016841F0805101600068DFF898A300F00D
:102D900080500090DAF8001041F48071CAF80010F9
:102DA000FFF7DAFE804605E0FFF7D6FEA0EB08004D
:102DB00064287DD8DAF80000C005F5D5DFF8608317
:102DC00008F16808D8F8000010F440702AD0218E6D
:102DD00001F44071814225D0D8F80010D8F80020C5
:102DE00021F4407142F48032C8F80020D8F8002065
:102DF00022F48032C8F80020C8F80010D8F800008B
:102E0000C0070FD0FFF7A8FE824607E0FFF7A4FE39
:102E1000A0EB0A0141F288308142CAD8D8F80000FC
:102E20008007F3D5206BC0F3012103297ED0D9F8A8
:102E3000001021F4F811C9F80010228ED8F8001003
:102E4000C2F30B021143C8F800102078C00607D562
:102E5000286820F0807028602868A16B08432860EB
:102E60002188AF488830490405D5626E016821F495
:102E70004031114301602188090405D5A26E016823
:102E800021F44021114301602168C90305D5E26E98
:102E9000016821F44011114301602168890305D5BF
:102EA000226F016821F4400111430160217800E0A4
:102EB00034E1490605D5626C016821F00301114334
:102EC00001602178090605D5A26C016821F00C018A
:102ED000114301602188C90505D5E26C016821F024
:102EE0003001114301602188890505D5226D0168F3
:102EF00021F0C001114301602188490505D5626DAB
:102F0000016821F44071114301602188090505D54C
:102F1000A26D016821F44061114301602188C90458
:102F200007D5E26D016821F4405100E068E01143EB
:102F300001602188890405D5226E016821F4404191
:102F4000114301602168490205D5A26F016821F093
:102F500080611143016021684FF0006A890209D540
:102F6000E26F016821F0006111430160E16F51459A
:102F700000D1012721680A0700D50127490305D59B
:102F8000626F016821F040711143016021680902FC
:102F900006D5D4F88020016821F0805111430160EA
:102FA0002168490106D5D4F88420016821F0005138
:102FB000114301602068000106D5D4F88810286804
:102FC00020F00070084328602068C00006D5D4F8BF
:102FD0008C10286820F0806008432860DFF8489152
:102FE000012E02D0206880017ED5D9F800004E461F
:102FF00020F08060C9F80000FFF7AEFD80460FE0CA
:103000004A4AD9F80030104023F4F8120243C9F8B4
:10301000002012E7FFF7A0FDA0EB080064287DD890
:1030200030680001F6D421783D487C30C90712D0C1
:10303000616B81B9237A62680168D0F800C092019F
:10304000C1F3014142EA0142CCF3036142EA01616A
:1030500041EA0371016021680A0303D5E26BB2F50E
:10306000801F04D0C9021AD5216C594517D1636855
:10307000016894F80CC002689B01C1F3014143EA66
:103080000141C2F3027241EA0C6141EA027101603E
:103090002968626A21F01F01521E114329602168CC
:1030A000C90110D5238A62680168D0F800C0920176
:1030B000C1F3036142EA034242EA0162CCF30271C6
:1030C00042EA01710160216889010CD56168228A98
:1030D000237B94F808C0890141EA024141EA036177
:1030E00041EA0C71016000E011E03168B04641F046
:1030F00080613160FFF730FD064604E0FFF72CFDEC
:10310000801B64280AD8D8F800000001F6D5E7B380
:10311000D9F800004E4620F0805009E07BE0000026
:10312000083802400070004000380240FFFCFF0FEA
:10313000C9F80000FFF710FD074604E0FFF70CFD9B
:10314000C01B642867D83068C0438000F6D521686A
:1031500035480A0301D5E26B1AB1C9021DD5216CAD
:10316000D9B963690168277E02689B01C1F30141F7
:1031700043EA0143C2F3027143EA076242EA017182
:10318000016029686FF0FF0300E04BE0A26A21F4C0
:10319000F85103EB0222114329602168890212D5FC
:1031A000E16F51450FD1238C626901680768920174
:1031B000C1F3036142EA034242EA0162C7F30271CA
:1031C00042EA017101602178090716D56169026838
:1031D000D0F800C08B01277FC2F30362CCF301411A
:1031E00043EA014141EA026141EA0771016028684E
:1031F000E16A20F4403008432860306840F0805095
:103200003060FFF7A9FC044608E000BFFFF7A4FC0C
:10321000001B642802D90320BDE8F88F3068C04342
:103220008000F3D40020F7E7883802402DE9F0470A
:1032300005000F4663D0444E306800F00F00B842DE
:1032400009D2306820F00F0038433060306800F059
:103250000F00B84253D128683C4C810712D5400773
:1032600003D5206840F4E05020602878000703D59B
:10327000206840F460402060A968206820F0F000D9
:10328000084320602878C0072AD030496868083988
:10329000012810D00968022810D0890700292EDAE9
:1032A000216821F0030101432160FFF755FC8046AE
:1032B00041F288390DE009688903EFE78901EDE7FC
:1032C000FFF74AFCA0EB0801494502D90320BDE8FD
:1032D000F0876868216801F00C01B1EB800FEFD135
:1032E000306800F00F00B8420BD9306820F00F00B2
:1032F00038433060306800F00F00B84201D0012040
:10330000E5E72878400705D5E968206820F4E05013
:10331000084320602878000706D52869216821F431
:10332000604141EAC000206000F038F82168084A96
:10333000C1F30311515CC8400649086006480068A3
:10334000FFF724FC0020C2E7003C0240083802409E
:10335000A87E0008540000204C00002004490548C5
:1033600009680068044AC1F38221515CC840704773
:103370000838024054000020B87E0008044905487F
:1033800009680068044AC1F34231515CC840704783
:103390000838024054000020B87E0008154910B5D6
:1033A0001548096811F00C0213D01449042A0FD0F3
:1033B000082A0ED10F4C241F2268236802F03F0216
:1033C0005B0207D52068C0F38810A0FB010106E06E
:1033D000084610BD2168C1F38811A1FB000100233C
:1033E000FCF7F4FF2168C1F30141491C4900B0FB1F
:1033F000F1F010BD083802400024F40040787D014F
:103400002DE9F84F04004FF000076ED02078DFF868
:103410007CA3AAF10408C007A8F104054CD0DAF88F
:1034200000105046C1F38101012908D00068C0F3A3
:10343000810002280AD1D8F80000400206D5286889
:10344000800339D560680028DFD035E06068B0F5CA
:10345000803F0BD010B1B0F5A02F11D0286820F418
:1034600080302860286820F4802002E0286840F43A
:1034700080302860606890B1FFF76EFB06460AE076
:10348000286840F480202860F0E700BFFFF764FB65
:10349000801B642872D828688003F7D50CE0FFF7FA
:1034A0005BFB064605E000BFFFF756FB801B642868
:1034B000F0D828688003F7D42078800742D5DAF85E
:1034C0000010504611F00C0F08D00068C0F38100C6
:1034D00002280BD1D8F80000400207D428688007E2
:1034E00018D5E068012800D114E04AE1E06800281E
:1034F000286817D040F001002860FFF72DFB064632
:1035000005E000BFFFF728FB801B0228C2D828680F
:103510008007F7D52069296821F0F80141EAC00049
:1035200028600FE020F001002860FFF715FB064639
:1035300005E000BFFFF710FB801B02281ED828689B
:103540008007F7D42078000729D5904861696C304E
:1035500000298146016812D041F001010160FFF7A6
:10356000FBFA064605E000BFFFF7F6FA801B0228CB
:1035700004D8D9F800008007F6D510E089E021F0E2
:1035800001010160FFF7E8FA064604E0FFF7E4FAFC
:10359000801B02287DD8D9F800008007F6D4207857
:1035A00040076BD5DFF8E49109F13809D9F800003C
:1035B000C0000BD4D9F8001041F08051C9F80010B8
:1035C000D9F80000012700F0805000907048016891
:1035D000C90512D40168834641F480710160FFF788
:1035E000BBFA064605E000BFFFF7B6FA801B642869
:1035F0004FD8DBF80000C005F6D5644EA0686836E9
:1036000001280AD008B1052811D0306820F0010047
:103610003060306820F0040002E0306840F00100C3
:103620003060A068A0B1FFF797FA83460CE03068DD
:1036300040F004003060F0E7FFF78EFAA0EB0B01DA
:1036400041F28830814268D830688007F4D50EE0B6
:10365000FFF782FA834607E0FFF77EFAA0EB0B0143
:1036600041F28830814258D830688007F4D42FB1B5
:10367000D9F8001021F08051C9F80010A069E0B31A
:10368000DAF80010C1F3810102294DD00228286820
:1036900000E042E020F08070286003D0FFF75CFA81
:1036A00004463DE0FFF758FA064604E0FFF754FAF7
:1036B000801B022831D828688001F7D4D4E9092179
:1036C000DFF8D0C0D4E9070694F830304F0894F8FA
:1036D0002C1030430CEB074444EA8212104340EABA
:1036E000016040EA0370C8F80000286840F080706C
:1036F0002860FFF731FA044605E044E0FFF72CFAB2
:10370000001B022809D828688001F7D53BE000BFDC
:10371000FFF722FA001B022802D90320BDE8F88F28
:1037200028688001F4D42EE00128D8F8000028D0C1
:10373000E16900F480028A4223D1216A00F03F024D
:103740008A421ED1626A47F6C0710140B1EB821F06
:1037500017D1A16A4FF0FF3200F4403302EB510160
:10376000B3EB014F0DD194F82C1000F07062B2EB66
:10377000016F06D194F8301000F0E040B0EB017F0B
:1037800001D00120CAE70020C8E700000838024045
:10379000007000400000FFFF401EB0F1807F10B5B8
:1037A00001D3012010BD4FF0E02460610F216017AC
:1037B00002F06DF90020A0610721216110BD000019
:1037C0002DE9F04390F83C20012A42D0012280F8F4
:1037D0003C2051F80C4BDFF880804FF0000991E855
:1037E000680051E9022723F44073B1F80CC03B4351
:1037F000CF6923F480631343026823F400632343F7
:1038000023F4805343EA050323F4005343EA0603F9
:1038100023F4804343EA07030C3923F47023424521
:1038200043EA0C4302D00D4CA2420CD18D8C23F400
:103830007006D1E9073446EA055121F08071194339
:1038400021F000732343536480F83C900020BDE8CE
:10385000F0830220FBE7000000000140000401406B
:10386000F0B590F83C20012A3BD01F4E012480F88F
:103870003C40022280F83D2002681C4D5368B24251
:10388000D2F808C001D0AA4203D14F6823F47003D4
:103890003B430F6823F070031F4357600268B24236
:1038A00013D0B2F1804F10D0114B9A420DD0114B72
:1038B0009A420AD0104B9A4207D0AA4205D00F4B29
:1038C0009A4202D00E4B9A4204D189682CF08003B0
:1038D00019439160002180F83D4080F83C10084673
:1038E000F0BD0220F0BD00000000014000040140D6
:1038F0000004004000080040000C0040004001406F
:103900000018004010B5040003D094F83D0010B139
:1039100007E0012010BD002084F83C00204600F0A4
:1039200023F8022084F83D002068211D01F0CEFB21
:10393000012084F8480084F83E0084F83F0084F8B1
:10394000400084F8410084F8420084F8430084F881
:10395000440084F8450084F8460084F8470084F861
:103960003D00002010BD000010B586B004461421B3
:103970006846FCF7F3FE1F4A21681F48914207D1B1
:10398000016841F001010160006800F001000CE0F5
:10399000B1F1804F0CD0194A914207D1016841F032
:1039A00002010160006800F00200059006B010BD41
:1039B0001148001F016841F001010160006800F03A
:1039C000010005900C481438016841F001010160C4
:1039D00000680123202100F00100059000200091E3
:1039E00002226946CDE90120CDE903030448FEF730
:1039F00085FFDBE70000014044380240000401403D
:103A00000000024070B5044690F83C0000250128F3
:103A100017D0334B012684F83C60022084F83D0027
:103A200022689068184020F47F4090600868502811
:103A300038D00DDC20284FD005DC90B3102811D1F0
:103A40004AE0022070BD302846D040280AD13BE031
:103A500060282FD070280DD0B0F5805F03D0B0F56E
:103A6000005F12D0012584F83D60002084F83C00FE
:103A7000284670BD4A682068D1E9021301F08CFB2A
:103A80002068816841F0770109E04A682068D1E93F
:103A9000021301F081FB2068816841F4804181605C
:103AA000E1E719E0CA684968206801F007FD20686D
:103AB000502106E0CA684968206801F051FD20687D
:103AC000602101F072FBCEE7CA684968206801F006
:103AD000F5FC20684021F4E7226801461046F0E733
:103AE00088FFFEFF2DE9F041054690F83C000026D6
:103AF0000C46012810D0012085F83C0072B1042A40
:103B00001CD0082A2CD00C2A51D00126002085F880
:103B10003C003046BDE8F0810220FBE7E3682868FE
:103B2000D4E9001201F0DCFC2868816921F00C0165
:103B3000816128688169A26811430FE0E368286801
:103B4000D4E9001201F01EFD2868816921F440616A
:103B5000816128688169A26841EA02218161D5E713
:103B6000D4E900232868217B076A4FF4206C0907F9
:103B700027F4807707620CEA0222C769D0F820C0D8
:103B800027F003071F432CF4206C27F0F00342EAD0
:103B90000C0243EA1161C16102622868C16921F027
:103BA0000C01C1612868A268C169114329E0286835
:103BB000D4E90032E168076A4FF6FF7C4FF4204EEB
:103BC00027F4805707620CEA0131C769D0F820C09A
:103BD0000EEA033327F4407747EA02222CF4204C04
:103BE00022F470421143C16143EA0C030362286866
:103BF000C16921F44061C1612868A168C26942EAD3
:103C00000121C16182E710B5040003D094F83D00A2
:103C100010B107E0012010BD002084F83C002046D0
:103C200000F022F8022084F83D002068211D01F0F8
:103C30004DFA012084F8480084F83E0084F83F00E3
:103C400084F8400084F8410084F8420084F843007E
:103C500084F8440084F8450084F8460084F847005E
:103C600084F83D00002010BD7047000010B586B0FC
:103C7000044614216846FCF771FD194A00202368A8
:103C8000184993424FF0020212D10B6843F010031F
:103C90000B600968012301F0100105914FF42061C8
:103CA0000091CDE90120CDE903030F48694613E0F7
:103CB0000E4CA34212D10B6843F004030B60096859
:103CC000032301F004010591C0210091CDE90120F9
:103CD000CDE9030306486946FEF710FE06B010BDA5
:103CE0000000014030380240001002400004014052
:103CF0000008024070B5044690F83C0000250128F9
:103D00000BD0012084F83C000C2A1ED007DC82B1C5
:103D1000042A12D0082A06D113E0022070BD102A0E
:103D200017D0142A19D00125002084F83C00284619
:103D300070BD206801F042FAF6E7206801F078FAD9
:103D4000F2E7206801F0B0FAEEE7206801F0E8FA47
:103D5000EAE7206801F010FBE6E7206801F038FB95
:103D6000E2E710B5040003D094F83D0010B107E07D
:103D7000012010BD002084F83C00204600F022F80D
:103D8000022084F83D002068211D01F09FF90120E8
:103D900084F8480084F83E0084F83F0084F840002E
:103DA00084F8410084F8420084F8430084F8440019
:103DB00084F8450084F8460084F8470084F83D0004
:103DC000002010BD704770B5044690F83C000026F6
:103DD0000D4601280BD0012084F83C000C2A4AD063
:103DE00007DC82B1042A20D0082A06D131E0022063
:103DF00070BD102A53D0142A63D00126002084F805
:103E00003C00304670BD206801F0D8F92068816917
:103E100041F0080181612068816921F0040181611C
:103E200020682A698169114311E0206801F000FAD5
:103E30002068816941F4006181612068816921F411
:103E40008061816120682969826942EA012181617A
:103E5000D4E7206801F028FA2068C16941F0080120
:103E6000C1612068C16921F00401C16120682A692B
:103E7000C169114311E0206801F052FA2068C1695C
:103E800041F40061C1612068C16921F48061C161B0
:103E900020682969C26942EA0121C161AEE7206850
:103EA00001F06AFA2068416D41F00801416520681F
:103EB000416D21F00401416520682A69416D11437B
:103EC00011E0206801F084FA2068416D41F400613E
:103ED00041652068416D21F4806141652068296950
:103EE000426D42EA0121416588E710B5040003D024
:103EF00094F83D0010B107E0012010BD002084F8C7
:103F00003C00204600F022F8022084F83D002068A2
:103F1000211D01F0DBF8012084F8480084F83E0000
:103F200084F83F0084F8400084F8410084F842009F
:103F300084F8430084F8440084F8450084F846007F
:103F400084F8470084F83D00002010BD704770B52C
:103F5000044690F83C00012812D0012584F83C501A
:103F6000022084F83D00204601F05EFA00284FF060
:103F7000000007D084F83D5084F83C00012070BD5B
:103F8000022070BD2168CA6822F04002CA60216820
:103F9000CA6822F48042CA6084F83D5084F83C002C
:103FA000002070BD70477047704700002DE9F04158
:103FB00002680446002540F60F06D0691168936830
:103FC000304205D186067DD58E067BD5616E1CE11B
:103FD000994F03F001060F40374373D0C70709D04C
:103FE000CF0507D501271762D4F8802042F00102DF
:103FF000C4F8802082070AD5DA0708D02768022291
:104000003A62D4F8802042F00402C4F880204207CB
:104010000AD5DA0708D0236804221A62D4F880206F
:1040200042F00202C4F8802002070CD501F0200201
:10403000324308D0236808221A62D4F8802042F064
:104040000802C4F8802002050BD54A0109D523686F
:104050004FF400621A62D4F8802042F02002C4F8C3
:104060008020D4F88020002A36D0800605D5880626
:1040700003D5616E09B1204688472168D4F88000D5
:104080008968490602D410F0280F27D0204601F095
:104090003CFB2068806840061BD52068083050E84B
:1040A000001F21F0400140E80012002AF5D1206FE6
:1040B00078B162490165206FFEF7CBFA00280BD07A
:1040C000206F00E010E0016D00E02046BDE8F04107
:1040D00008472046FFF768FFBDE8F0812046FFF75C
:1040E00063FFC4F88050F7E7276E2026012F7CD1AC
:1040F000C7067AD5CF0678D5102010622068806870
:10410000400641D5216F086840680004000CE3D0E8
:10411000B4F858208242DFD9A4F85A00C869B0F533
:10412000807F2AD0216851E8000F20F4807041E898
:104130000002002AF6D12068083050E8001F21F064
:10414000010140E80012002AF5D12068083050E84B
:10415000001F21F0400140E80012002AF5D1E66777
:104160002566216851E8000F20F0100041E80002A8
:10417000002AF6D1206FFEF723FAB4F85800B4F8FD
:104180005A10401A81B22BE0B4F85800B4F85A1013
:10419000B4F85A20401A81B2002A9DD000299BD041
:1041A000206850E8002F22F4907240E80023002B92
:1041B000F6D1206800F1080050E8002F22F001023B
:1041C00040E80023002BF4D1E66725666566206889
:1041D00050E8002F22F0100240E80023002BF6D117
:1041E0002046FFF7DFFE77E7FFE7C70208D55B024F
:1041F00006D54FF4801010622046FFF7D4FE6BE71F
:10420000020606D50A0604D5A16E00297FF45DAF2B
:1042100062E74006E7D54806E5D52046026852E841
:10422000001F21F0400142E80013002BF6D1866701
:10423000856600F091F94FE720010004F756000869
:1042400010B5040002D0A06F10B107E0012010BD2E
:10425000002084F87400204600F026F82420A0678F
:104260002068016821F001010160204601F072FA26
:104270000128ECD0606A10B1204601F0AAF920684C
:10428000416821F4904141602068816821F02A0151
:1042900081602068016841F0010101602046BDE8AD
:1042A000104001F0FAB900002DE9F04F87B0064642
:1042B00014216846FCF752FA6D480222DFF8B4C1B7
:1042C0000321356810386A4B002497064FF0400BE5
:1042D00065454FF4806A4DD11D6845F400251D6089
:1042E0001B6803F400230593036843F0080303608D
:1042F000006800F00800059008208DE81600CDE960
:1043000003105D486946FEF7F9FADFF87091D04670
:104310005B4A4846C9F80020C0E90174C0E9034A75
:10432000C9F81440C9F81840C9F81C40C9F8204021
:10433000C9F82440FEF770FA08B1FDF746FF514D69
:10434000C6F87090C9F8386028464D4AC5E9034858
:104350006C613032AC61EC612C626C6285E884087F
:10436000FEF75AFA08B1FDF730FFF566AE6307B005
:10437000BDE8F08FDFF810C165451DD13C4B1B1D1A
:104380001D6845F010051D601B6803F010030593C0
:10439000036843F0020303600068042300F0020096
:1043A0000590CDE903134FF4404069468DE81500B0
:1043B0003648FEF7A3FADAE7DFF8D4C06545D6D170
:1043C0001D6845F400351D601B6803F40033059338
:1043D000036843F0010303600068072300F0010055
:1043E00005900C20CDE903138DE815002948694696
:1043F000FEF784FADFF8A080B946214A57464046C6
:104400004832C8F80020C8E90194C8E9034AC8F84E
:104410001440C8F81840C8F81C40C8F82040C8F834
:104420002440FEF7F9F908B1FDF7CFFE1B4DC6F8A1
:104430007080C8F838602846114BC5E903476C61A5
:104440006033AC61EC612C626C6285E8080AFEF7AF
:10445000E3F908B1FDF7B9FEF56600220521AE6368
:104460002620FEF7DDFB2620FEF7CCFB7FE70000D1
:1044700040380240004C0040000C02401004002074
:10448000406002407004002000100140000402401F
:104490000044004000000240D0040020300500200D
:1044A0002DE9F8430446806F1F4616460D46202826
:1044B00050D1CDB1C6B194F8740001284AD0012082
:1044C00084F8740021224FF00008C4F88080A267AD
:1044D000FEF742FB8146A068A4F85060A4F8526041
:1044E000B0F5805F03D004E00120BDE8F8832069C7
:1044F00028B12E465FF0000584F8748010E0002695
:10450000FAE78021204601F03DFAB8B9C6B116F8A5
:10451000010B21688862B4F85200401EA4F85200D2
:10452000B4F852004B464FF0000200970028E8D143
:104530004FF04001204601F025FA38B10320D4E7BE
:1045400035F8020B2168C0F30800E3E72020A067DC
:104550000020CAE70220C8E77047FEE710B5314CDB
:10456000002020806080A080E080208160813B204E
:1045700000F020F901462CA0FBF7A0FF3D2000F041
:1045800019F901462CA0FBF799FF3F2000F012F922
:1045900001462DA0FBF792FF412000F00BF900EE41
:1045A000100A9FED2D1B9FED2E2BB8EEC00B2EA0F9
:1045B00080EE013B33EE020B53EC102BFBF77EFF3A
:1045C000432000F0F7F801462BA0FBF777FF4520CA
:1045D00000F0F0F801462BA0FBF770FF3F2000F041
:1045E000E9F801462AA0FBF769FF2CA0FBF766FF5C
:1045F0003B2000F0DFF820803D2000F0DBF86080F9
:104600003F2000F0D7F8A080432000F0D3F8E080EE
:10461000452000F0CFF820813F2000F0CBF86081EA
:1046200010BD000090050020414343454C5F583ABF
:104630002025640900000000414343454C5F593A7E
:104640002025640900000000414343454C5F5A3A6D
:1046500020256409000000000000000000407540B3
:10466000A4703D0AD743424054454D503A2025306E
:104670002E326609000000004759524F5F583A2019
:10468000256409004759524F5F593A2025640900B3
:104690004759524F5F5A3A20256409000D0A00001D
:1046A00030B53C4C054600202DED028B85B02080B6
:1046B0006080A080E080208160813B2000F07AF85B
:1046C00021889FED358B084400EE100AB8EEC00B30
:1046D00020EE080B01F0ECF93D2085ED000B00F019
:1046E00069F86188084400EE100AB8EEC00B20EEAD
:1046F000080B01F0DDF93F2085ED020B00F05AF8C0
:10470000A188084400EE100AB8EEC00B20EE080B9A
:1047100001F0CEF995ED001B9FED212B21EE021B40
:1047200020EE020B85ED001BB5EEC01BF1EE10FA7A
:1047300095ED023B23EE022B85ED022B85ED040B5C
:104740001ADC9FED193BB4EEC31BF1EE10FA13D93E
:10475000B5EEC02BF1EE10FA0EDCB4EEC32BF1EE89
:1047600010FA09D9B5EEC00BF1EE10FA04DCB4EE84
:10477000C30BF1EE10FA08D88DED020B0C488DED4D
:10478000002B53EC112BFBF799FE05B0BDEC028B0F
:1047900030BD000090050020000000000000103F28
:1047A000A79196CADBA54C4000000000008066403F
:1047B0008080000870B5044600F0F4F8641C0546DB
:1047C000E0B200F0EFF840EA052000B270BD002032
:1047D00000BF401C6428FBDB704700002DE9F0415E
:1047E0000024074600F0FCF8214E0025002202219B
:1047F0003046FEF7ACF9FFF7EAFF0122304602210E
:10480000FEF7A5F960060121040E3046FEF79AF97D
:1048100008B1641CE4B2FFF7DAFF6D1CEDB2082D9D
:10482000E4D34FF000024FF002013046CFB1FEF763
:104830008EF900F0F5F8002230460121FEF787F9E5
:10484000FFF7C5FF012230460221FEF780F9FFF78E
:10485000BEFF002230460221FEF779F92046BDE86E
:10486000F081FEF774F900F0DBF80122E4E70000C4
:104870000014024070B5054600F0D2F8124E002236
:1048800002213046FEF763F90024280601D50122F3
:1048900000E0002230460121FEF759F968060122A6
:1048A000050E30460221FEF752F9FFF790FF002275
:1048B00030460221FEF74BF9FFF789FF641CE4B292
:1048C000082CE2D370BD00000014024010B500F0C7
:1048D000A7F80D4C012211462046FEF738F90122B7
:1048E00020460221FEF733F9FFF771FF0022204630
:1048F0000121FEF72CF9FFF76AFF00222046BDE8F0
:1049000010400221FEF723B90014024010B500F058
:1049100087F80D4C002202212046FEF718F90022EC
:1049200020460121FEF713F9FFF751FF012220462F
:104930000221FEF70CF9012220461146FEF707F985
:10494000BDE81040FFF743BF0014024070B50024DB
:1049500000F046F8124D012211462846FEF7F7F8FE
:10496000FFF735FF012228460221FEF7F0F8FFF796
:104970002EFF07E0641CE4B2FA2C03D9FFF7C6FF50
:10498000012070BD01212846FEF7DCF80028F1D196
:10499000002228460221FEF7DAF8002070BD000050
:1049A0000014024010B50446FFF790FFD020FFF737
:1049B00061FFFFF7CBFF2046FFF75CFFFFF7C6FF65
:1049C000FFF784FFD120FFF755FFFFF7BFFF00205F
:1049D000FFF704FF0446FFF799FF204610BD0000D3
:1049E00000B587B014216846FBF7B8FE0A48016895
:1049F00041F020010160006800210222039200F0D2
:104A0000200005900120CDE9000104486946FDF72A
:104A100075FF07B000BD00003038024000140240AE
:104A200000B587B014216846FBF798FE0A48016874
:104A300041F0200101600068022100F02000059093
:104A400001200090CDE90201019069460348FDF77D
:104A500055FF07B000BD000030380240001402408E
:104A6000C006010E1C2000F034B8C006010E1B2049
:104A700000F02FB8BC2801D3012110E0622801D337
:104A800002210CE02A2801D3032108E0142801D3D5
:104A9000042104E00A2801D3052100E006211A20A0
:104AA00000F017B810B504464FF47A70844201D96B
:104AB000044602E0042C00D20424B0FBF4F0401EB3
:104AC000C1B2192000F005F86008BDE81040FFF7FA
:104AD000D1BF70B50C460546FFF7F8FED020FFF7B2
:104AE000C9FEFFF733FF50B92846FFF7C3FEFFF7B3
:104AF0002DFF2046FFF7BEFEFFF728FF18B1FFF796
:104B000005FF012070BDFFF701FF002070BD000010
:104B10007FB515480025134901240095019522040D
:104B200002950395016004618461C0E901250F4984
:104B300080F82050C0E90A15C560C46180F8304093
:104B40004461FDF7BEFC08B172B6FEE70720694676
:104B50008DE831000448FDF73BFB002801D072B618
:104B6000FEE77FBD00200140E00000200100000FB3
:104B70001D4808B5016841F400110160016801F4A5
:104B800000110091016841F4800101600068002279
:104B9000052100F4800000900D20FEF741F80D2063
:104BA000FEF730F8002205210F20FEF739F80F201C
:104BB000FEF728F8002205211020FEF731F810201A
:104BC000FEF720F8002205211120FEF729F8112018
:104BD000FEF718F8002205213820FEF721F8BDE87D
:104BE00008403820FEF70EB83038024010B586B0C5
:104BF00014216846FBF7B2FD2548016841F0200109
:104C00000160016801F020010591016841F0800117
:104C10000160016801F080010591016841F0010126
:104C20000160016801F001010591016841F0100186
:104C30000160016801F010010591016841F0020175
:104C40000160016801F002010591016841F0040171
:104C50000160016801F004010591016841F008015B
:104C60000160006800220B4C032100F00800059051
:104C70002046FDF76CFF032220460121CDE90212F8
:104C8000CDE900216946FDF739FE06B010BD0000F0
:104C9000303802400014024010B59AB000241C21A4
:104CA000009412A801940294039404940594069429
:104CB000FBF754FD2C2107A8FBF750FD32484FF6B7
:104CC000FF723049C0E90014C0E902420461446146
:104CD0008461FEF717FE08B172B6FEE74FF480500C
:104CE000009029486946FEF78DFE08B172B6FEE7CE
:104CF0002548FFF7FAF808B172B6FEE72248FFF739
:104D000030F808B172B6FEE71F4804A90494059470
:104D10000694FEF7A5FD08B172B6FEE76020149474
:104D2000CDE912041848002212A91594169417947C
:104D30001894FFF748F808B172B6FEE7124804224B
:104D400012A91294FEF7D6FF08B172B6FEE74FF42F
:104D5000005007940894099401030A94CDE90B408C
:104D6000CDE90E41084807A90D9410941194FEF75F
:104D700027FD08B172B6FEE70348FEF777FF1AB0C9
:104D800010BD0000000001402801002010B58CB0CB
:104D900026480024621E00944FF080410194029442
:104DA00003940494059406940794089409940A942F
:104DB000C0E90014C0E9024204618461FEF7A2FD6B
:104DC00008B172B6FEE74FF480500090174869466C
:104DD000FEF718FE08B172B6FEE71448FEF713FF9F
:104DE00008B172B6FEE7114804A904940694FEF7D0
:104DF00037FD08B172B6FEE70120002207A9CDE910
:104E000007400A4809940A94FEF76CFE08B172B68E
:104E1000FEE7022008900548042207A9FEF762FE7B
:104E2000002801D072B6FEE70CB010BD740100205E
:104E300010B59AB0142112A8FBF790FC0024179427
:104E40001C2118940BA81994FBF788FC2C216846A8
:104E5000FBF784FC2D484FF6FF722B49C0E9001484
:104E6000C0E90242046144618461FEF74BFD08B170
:104E700072B6FEE72548FEF774FF08B172B6FEE78A
:104E8000224812A912941394FFF761F808B172B680
:104E9000FEE71E4817A9179418941994FEF7E0FC32
:104EA00008B172B6FEE70B9400220C940BA91748C8
:104EB0000D940E940F9410941194FEF71BFF08B1FB
:104EC00072B6FEE7114804220BA9FEF713FF08B1E2
:104ED00072B6FEE74FF4005000940194010302946F
:104EE000CDE9044003940694CDE90741074869469B
:104EF00009940A94FEF764FC08B172B6FEE7034811
:104F0000FEF7B4FE1AB010BD00040140C00100203D
:104F10000C48002110B50A4C0C224FF4E133046018
:104F2000C0E90131C160C0E904128161C16101625F
:104F30004162FFF785F9002801D072B6FEE710BD87
:104F4000004C00400C0200200C48002110B50A4C17
:104F50000C224FF4E1330460C0E90131C160C0E9C3
:104F600004128161C16101624162FFF769F90028A1
:104F700001D072B6FEE710BD001001409002002083
:104F80000C48002110B50A4C0C224FF4E1330460A8
:104F9000C0E90131C160C0E904128161C1610162EF
:104FA0004162FFF74DF9002801D072B6FEE710BD4F
:104FB0000044004014030020FEE7FEE700F0E2FE9C
:104FC000FFF7CCFA4FF47A7000F092FF0248FFF737
:104FD00067FB6420F8E7000098030020C82000F079
:104FE00087FFFBE710B5FDF7BDFD02F0C1FC01280E
:104FF00003D0BDE8104002F031B910BD30B5B7B0F4
:10500000342124A8FBF7AAFB142131A8FBF7A6FB47
:1050100090216846FBF7A2FB2648016841F08051C9
:105020000160006800F0805036902348016841F428
:1050300040410160006800240DF1B00C0225249568
:105040000822C423CDE92A5400F4404036908CE86D
:105050002C0010212F9501203095CDE9270124A89F
:10506000FEF7CEF908B172B6FEE7FDF70BFE08B108
:1050700072B6FEE74FF4805233944FF4A0510F20E4
:10508000CDE93412CDE93105062131A8FEF7CEF87D
:1050900008B172B6FEE74FF4307014941194129474
:1050A00000906846FDF724FE002801D072B6FEE7A6
:1050B00037B030BD403802400070004002480168FF
:1050C00041F470010160704788ED00E0F0B5274BB6
:1050D0004FF0804E264D02689842264E264F274CB0
:1050E00009D0704507D0A84205D0B04203D0B842DD
:1050F00001D0A04205D1D1F804C022F070024CEAE0
:10510000020298421BD0704519D0A84217D0B04275
:1051100015D0B84213D0A04211D0194DA8420ED0DC
:10512000184DA8420BD0184DA84208D0174DA842E0
:1051300005D0174DA84202D0164DA84203D1CD6824
:1051400022F440722A434D6922F080022A43026011
:1051500098428A68C2620A68826201D0A04201D184
:105160000969016301214161F0BD000000000140B7
:105170000004004000080040000C00400004014012
:105180000040014000440140004801400018004038
:10519000001C00400020004042EA032283680A43CA
:1051A00023F47F410A4382607047826822F07002D4
:1051B0000A4342F00701816070470000F0B5026ABF
:1051C000DFF860C0184F22F00102DFF860E00262F1
:1051D000066A4268836926F002060D68B8428C6848
:1051E00003EA0C0323F0030344EA060445EA03053B
:1051F00001D0704505D1CB6824F00804234323F087
:105200000404B84201D0704505D122F44076D1E9BA
:10521000053233431A434260856149684163046241
:10522000F0BD00008FFFFEFF0000014000040140C0
:10523000F0B5026A194E1A4C22F01002DFF864E051
:105240000262056A4368826925F02005D1F808C02A
:10525000A0420F6802EA060222F4407245EA0C15E9
:1052600042EA072201D0704506D1CE6825F08005BC
:1052700045EA061525F04005A04201D0704507D14A
:10528000D1E9054623F4406343EA840343EA8603F5
:1052900043608261496881630562F0BDFF8FFFFE54
:1052A0000000014000040140F0B5026A194F1A4E97
:1052B00022F48072DFF864E00262056A4368C26922
:1052C00025F40075D1F808C0B0420C6802EA070264
:1052D00022F0030245EA0C2544EA020401D070459D
:1052E00006D1CF6825F4006242EA072222F48065E5
:1052F000B04201D0704507D123F44052D1E90536C0
:1053000042EA031242EA06134360C4614968C1637A
:105310000562F0BD8FFFFEFF000001400004014068
:10532000F0B5026A124B114F22F480529842026289
:10533000046A4268C36924F400548E680D6803EA65
:10534000070323F4407344EA063443EA052302D0FA
:10535000084DA84204D14D6922F4804242EA8512E8
:105360004260C361496801640462F0BDFF8FFFFEC3
:105370000000014000040140F0B5026ADFF844C0BB
:1053800022F480320262056A4268446D25F40035D9
:105390000E8960450C4F0B6804EA070445EA064590
:1053A00043EA040302D0094CA04204D14C6922F420
:1053B000803242EA042242604365496881650562A1
:1053C000F0BD0000000001408FFFFEFF000401401F
:1053D000F0B5026ADFF844C022F480120262046A67
:1053E0004268436D24F400140E8960450C4F0D682B
:1053F00003EA070344EA065443EA052302D0094DB1
:10540000A84204D14D6922F4802242EA85224260FA
:1054100043654968C1650462F0BD000000000140B9
:10542000FF8FFFFE000401402DE9F041D1E9002388
:1054300005680024204FAE6826F0700633433B40D9
:105440001A43AA604A6812F00F0F32D11211082ACB
:105450002FD2DFE802F02F2F2F2F0B2228048A688B
:105460000068D1E90313FFF797FE23E00A68052AD5
:1054700010D00268136A156A25F0010515620268EA
:105480000D69916921F0F00141EA0511916100680F
:1054900003620FE00120BDE8F0810A6900688968B5
:1054A00000F00CF806E00A690068896800F058F816
:1054B00000E001242046EEE7F8FFFEFF10B5036A86
:1054C000046A23F00A0324F00104046284690B4394
:1054D00024F0F00141EA02118161036210BD000075
:1054E00070B5046A174D24F001040462A84284696F
:1054F000056A14D0B0F1804F11D0134EB0420ED0D7
:10550000124EB0420BD0124EB04208D0114EB042F3
:1055100005D0114EB04202D0104EB04203D124F05B
:105520000304144301E044F001041A0724F0F003DB
:1055300025F00A0401F00A01214343EA1262826164
:10554000016270BD000001400004004000080040FE
:10555000000C0040000401400040014000180040E1
:1055600010B5036A23F0100303628369046A23F40D
:10557000704324F0A00443EA0232826144EA01113C
:10558000016210BD70B5056AA0244FF6FF7606EAE9
:10559000033325F01005056204EA01118469056AE8
:1055A00024F4407425F0A00544EA0222294322F4A1
:1055B000704213438361016270BD10B501F006FBB8
:1055C000002805D0D0E90021BDE81040084610476A
:1055D00010BD90F82410C90706D00168836A4A6894
:1055E00022F400321A434A6090F82410890706D545
:1055F0000168C36A4A6822F480321A434A6090F80C
:105600002410490706D50168036B4A6822F48022FA
:105610001A434A6090F82410090706D50168436BC5
:105620004A6822F400421A434A6090F82410C906DE
:1056300006D50168836B8A6822F480521A438A6017
:1056400090F82410890606D50168C36B8A6822F495
:1056500000521A438A6090F82410490611D5016857
:10566000036C4A6822F480121A434A60016CB1F557
:10567000801F06D10168436C4A6822F4C0021A43B5
:105680004A6090F82410090606D50168826C4868C3
:1056900020F40020104348607047F8B50026044607
:1056A000C0F88060FDF758FA054620686FF07E4725
:1056B0000068000708D500222B464FF40011204651
:1056C000009700F05FF960B92068006840070AD5CC
:1056D00000222B464FF480012046009700F052F93B
:1056E00008B10320F8BD2020A067E06726660020EF
:1056F00084F87460F8BD10B5806B0021A0F85A10D2
:10570000A0F85210FEF750FC10BD016851E8002FC0
:1057100022F4907241E80023002BF6D10168083191
:1057200051E8002F22F0010241E80023002BF5D1BF
:10573000016E012908D1026852E8001F21F0100112
:1057400042E80013002BF6D100212022C267016637
:10575000416670472DE9F04104460368C2698168DB
:10576000D4E90450DFF8F0C17C4E29431F680025BE
:1057700010437B4A014307EA0C070F431F604FF4B5
:1057800000402168E7684B6823F440533B434B607B
:105790002768A369216AD7F808C019432CF430633D
:1057A0000B43BB602168B1420AD1116811F00301BB
:1057B00052D001297CD0022971D003296ED184E016
:1057C000684B99420AD1116811F00C0167D0042985
:1057D00065D0082975D00C2960D176E0624B9942DA
:1057E0000AD1116811F0300159D010296BD020294D
:1057F00067D0302952D168E05C4B99420AD11168D8
:1058000011F0C0014BD040295DD0802959D0C0296A
:1058100044D15AE0564B99420DD1116811F44071B0
:105820003DD0B1F5807F4ED0B1F5007F49D0B1F5C4
:10583000407F33D149E04F4B99420FD1116811F4A9
:10584000406109D0B1F5806F3DD0B1F5006F38D01F
:10585000B1F5406F22D138E0012120E0464B99425A
:105860000DD1116811F4405119D0B1F5805F2AD0E3
:10587000B1F5005F25D0B1F5405F0FD125E03F4B7A
:1058800099420BD1116811F4404108D0B1F5804F15
:1058900019D0814215D0B1F5404F16D01021E369DF
:1058A000374A4FF6EF7683422ED1092949D201E0DB
:1058B00009E006E0DFE801F00B0E11451345454510
:1058C00016000221EBE70421E9E70821E7E7FDF7ED
:1058D00045FD06E0FDF752FD03E0104602E0FDF74E
:1058E0005DFD78B36168400000EB5100B0FBF1F062
:1058F000A0F11001B14224D84FF6F0732168C0F333
:1059000042021840104320E009291AD2DFE801F0D2
:1059100005080B190D1919191000FDF71FFD06E0F8
:10592000FDF72CFD03E0104602E0FDF737FD48B11E
:10593000616800EB5100B0FBF1F0A0F11001B14241
:1059400001D9012502E0216880B2C86000206066AC
:10595000A0662846BDE8F081F369FFEF0010014022
:10596000903802400044004000480040004C004095
:10597000005000400014014000780040007C0040CE
:105980000024F4002DE9F0479A4617460E460446D7
:10599000089D4FF000094FF020084CE0681C4AD0E9
:1059A000FDF7DAF8A0EB0A00A8422AD84DB3206828
:1059B000016849073FD5C069C04300053BD4216851
:1059C0004FF400600862216851E8000F20F4D070A5
:1059D00041E80002002AF6D12068083050E8001F94
:1059E00021F0010140E80012002AF5D1C4F87880C6
:1059F00084F87490C4F87C80C4F880800320BDE8EB
:105A0000F087206850E8001F21F4D07140E80012B0
:105A1000002AF6D12068083050E8001F21F001016B
:105A200040E80012002AF5D1C4F8788084F8749018
:105A3000C4F87C80E2E72068C06936EA000004D040
:105A40000020B842AAD00020D9E70120F9E70000E1
:105A50000148FEF7ABBA000014030020FEE703B4D0
:105A600001984100009850EAC12018BF04204A0D57
:105A700018BF40F0010040F2FF72B2EB515F08BF67
:105A800040F00200012808BF052002B07047090756
:105A900000284FEA116104DB00F1E02080F80014D7
:105AA000704700F00F0000F1E02080F8141D7047EF
:105AB00010B5694A2DED020B2DED0C8B82B00F99BC
:105AC00021F000409FED66CB90422CDBA0F14053CB
:105AD0000E9AA3F17F631A430FD06349884202DC18
